{
  "contractName": "BillRepo",
  "abi": [
    {
      "constant": false,
      "inputs": [
        {
          "internalType": "string",
          "name": "id",
          "type": "string"
        },
        {
          "internalType": "string",
          "name": "name",
          "type": "string"
        },
        {
          "internalType": "uint256",
          "name": "totalPrice",
          "type": "uint256"
        },
        {
          "internalType": "uint256",
          "name": "VAT",
          "type": "uint256"
        }
      ],
      "name": "addProduct",
      "outputs": [],
      "payable": false,
      "stateMutability": "nonpayable",
      "type": "function"
    },
    {
      "constant": true,
      "inputs": [
        {
          "internalType": "uint256",
          "name": "",
          "type": "uint256"
        },
        {
          "internalType": "uint256",
          "name": "",
          "type": "uint256"
        }
      ],
      "name": "billIdToEntryId",
      "outputs": [
        {
          "internalType": "uint256",
          "name": "",
          "type": "uint256"
        }
      ],
      "payable": false,
      "stateMutability": "view",
      "type": "function"
    },
    {
      "constant": true,
      "inputs": [
        {
          "internalType": "uint256",
          "name": "",
          "type": "uint256"
        }
      ],
      "name": "billToOwner",
      "outputs": [
        {
          "internalType": "address",
          "name": "",
          "type": "address"
        }
      ],
      "payable": false,
      "stateMutability": "view",
      "type": "function"
    },
    {
      "constant": true,
      "inputs": [
        {
          "internalType": "uint256",
          "name": "",
          "type": "uint256"
        }
      ],
      "name": "bills",
      "outputs": [
        {
          "internalType": "uint256",
          "name": "date",
          "type": "uint256"
        },
        {
          "internalType": "uint256",
          "name": "total",
          "type": "uint256"
        }
      ],
      "payable": false,
      "stateMutability": "view",
      "type": "function"
    },
    {
      "constant": true,
      "inputs": [
        {
          "internalType": "uint256",
          "name": "",
          "type": "uint256"
        }
      ],
      "name": "entries",
      "outputs": [
        {
          "internalType": "uint256",
          "name": "productIndex",
          "type": "uint256"
        },
        {
          "internalType": "uint256",
          "name": "quantity",
          "type": "uint256"
        }
      ],
      "payable": false,
      "stateMutability": "view",
      "type": "function"
    },
    {
      "constant": true,
      "inputs": [
        {
          "internalType": "string",
          "name": "id",
          "type": "string"
        }
      ],
      "name": "getProduct",
      "outputs": [
        {
          "internalType": "string",
          "name": "",
          "type": "string"
        },
        {
          "internalType": "string",
          "name": "",
          "type": "string"
        },
        {
          "internalType": "uint256",
          "name": "",
          "type": "uint256"
        },
        {
          "internalType": "uint256",
          "name": "",
          "type": "uint256"
        }
      ],
      "payable": false,
      "stateMutability": "view",
      "type": "function"
    },
    {
      "constant": true,
      "inputs": [
        {
          "internalType": "string",
          "name": "id",
          "type": "string"
        }
      ],
      "name": "idExists",
      "outputs": [
        {
          "internalType": "bool",
          "name": "",
          "type": "bool"
        }
      ],
      "payable": false,
      "stateMutability": "view",
      "type": "function"
    },
    {
      "constant": true,
      "inputs": [
        {
          "internalType": "string",
          "name": "",
          "type": "string"
        }
      ],
      "name": "orderToBillId",
      "outputs": [
        {
          "internalType": "uint256",
          "name": "",
          "type": "uint256"
        }
      ],
      "payable": false,
      "stateMutability": "view",
      "type": "function"
    },
    {
      "constant": true,
      "inputs": [
        {
          "internalType": "string",
          "name": "id",
          "type": "string"
        },
        {
          "internalType": "string",
          "name": "name",
          "type": "string"
        },
        {
          "internalType": "uint256",
          "name": "totalPrice",
          "type": "uint256"
        },
        {
          "internalType": "uint256",
          "name": "VAT",
          "type": "uint256"
        }
      ],
      "name": "productAdded",
      "outputs": [
        {
          "internalType": "bool",
          "name": "",
          "type": "bool"
        }
      ],
      "payable": false,
      "stateMutability": "view",
      "type": "function"
    },
    {
      "constant": true,
      "inputs": [
        {
          "internalType": "string",
          "name": "",
          "type": "string"
        }
      ],
      "name": "productToOwner",
      "outputs": [
        {
          "internalType": "address",
          "name": "",
          "type": "address"
        }
      ],
      "payable": false,
      "stateMutability": "view",
      "type": "function"
    },
    {
      "constant": true,
      "inputs": [
        {
          "internalType": "uint256",
          "name": "",
          "type": "uint256"
        }
      ],
      "name": "products",
      "outputs": [
        {
          "internalType": "string",
          "name": "name",
          "type": "string"
        },
        {
          "internalType": "uint256",
          "name": "VAT",
          "type": "uint256"
        },
        {
          "internalType": "uint256",
          "name": "priceWithVAT",
          "type": "uint256"
        }
      ],
      "payable": false,
      "stateMutability": "view",
      "type": "function"
    },
    {
      "constant": true,
      "inputs": [
        {
          "internalType": "string",
          "name": "id",
          "type": "string"
        }
      ],
      "name": "idExistsOrders",
      "outputs": [
        {
          "internalType": "bool",
          "name": "",
          "type": "bool"
        }
      ],
      "payable": false,
      "stateMutability": "view",
      "type": "function"
    },
    {
      "constant": false,
      "inputs": [
        {
          "internalType": "string",
          "name": "orderId",
          "type": "string"
        },
        {
          "internalType": "uint256",
          "name": "date",
          "type": "uint256"
        },
        {
          "internalType": "uint256",
          "name": "total",
          "type": "uint256"
        }
      ],
      "name": "createBill",
      "outputs": [],
      "payable": false,
      "stateMutability": "nonpayable",
      "type": "function"
    },
    {
      "constant": false,
      "inputs": [
        {
          "internalType": "string",
          "name": "orderId",
          "type": "string"
        },
        {
          "internalType": "string",
          "name": "productId",
          "type": "string"
        },
        {
          "internalType": "uint256",
          "name": "quantity",
          "type": "uint256"
        }
      ],
      "name": "addEntry",
      "outputs": [],
      "payable": false,
      "stateMutability": "nonpayable",
      "type": "function"
    }
  ],
  "bytecode": "0x608060405234801561001057600080fd5b50612156806100206000396000f3fe608060405234801561001057600080fd5b50600436106100ea5760003560e01c806368111cce1161008c5780637ed5e55b116100665780637ed5e55b146109da5780638e8d080a14610aa9578063b30906d414610b78578063be0968e814610bc1576100ea565b806368111cce146105f957806373b0404c146107a75780637acc0b2014610925576100ea565b806326638e86116100c857806326638e861461039657806328bdcde8146104695780632dc3b1c7146104b2578063426ed70e146104fe576100ea565b806301cecd14146100ef578063189ce0e6146102555780631d77d48914610328575b600080fd5b6102536004803603608081101561010557600080fd5b810190808035906020019064010000000081111561012257600080fd5b82018360208201111561013457600080fd5b8035906020019184600183028401116401000000008311171561015657600080fd5b91908080601f016020809104026020016040519081016040528093929190818152602001838380828437600081840152601f19601f820116905080830192505050505050509192919290803590602001906401000000008111156101b957600080fd5b8201836020820111156101cb57600080fd5b803590602001918460018302840111640100000000831117156101ed57600080fd5b91908080601f016020809104026020016040519081016040528093929190818152602001838380828437600081840152601f19601f8201169050808301925050505050505091929192908035906020019092919080359060200190929190505050610d1d565b005b61030e6004803603602081101561026b57600080fd5b810190808035906020019064010000000081111561028857600080fd5b82018360208201111561029a57600080fd5b803590602001918460018302840111640100000000831117156102bc57600080fd5b91908080601f016020809104026020016040519081016040528093929190818152602001838380828437600081840152601f19601f820116905080830192505050505050509192919290505050611011565b604051808215151515815260200191505060405180910390f35b6103546004803603602081101561033e57600080fd5b8101908080359060200190929190505050611150565b604051808273ffffffffffffffffffffffffffffffffffffffff1673ffffffffffffffffffffffffffffffffffffffff16815260200191505060405180910390f35b61044f600480360360208110156103ac57600080fd5b81019080803590602001906401000000008111156103c957600080fd5b8201836020820111156103db57600080fd5b803590602001918460018302840111640100000000831117156103fd57600080fd5b91908080601f016020809104026020016040519081016040528093929190818152602001838380828437600081840152601f19601f820116905080830192505050505050509192919290505050611183565b604051808215151515815260200191505060405180910390f35b6104956004803603602081101561047f57600080fd5b81019080803590602001909291905050506112c2565b604051808381526020018281526020019250505060405180910390f35b6104e8600480360360408110156104c857600080fd5b8101908080359060200190929190803590602001909291905050506112f3565b6040518082815260200191505060405180910390f35b6105b76004803603602081101561051457600080fd5b810190808035906020019064010000000081111561053157600080fd5b82018360208201111561054357600080fd5b8035906020019184600183028401116401000000008311171561056557600080fd5b91908080601f016020809104026020016040519081016040528093929190818152602001838380828437600081840152601f19601f820116905080830192505050505050509192919290505050611321565b604051808273ffffffffffffffffffffffffffffffffffffffff1673ffffffffffffffffffffffffffffffffffffffff16815260200191505060405180910390f35b6106b26004803603602081101561060f57600080fd5b810190808035906020019064010000000081111561062c57600080fd5b82018360208201111561063e57600080fd5b8035906020019184600183028401116401000000008311171561066057600080fd5b91908080601f016020809104026020016040519081016040528093929190818152602001838380828437600081840152601f19601f82011690508083019250505050505050919291929050505061136a565b604051808060200180602001858152602001848152602001838103835287818151815260200191508051906020019080838360005b838110156107025780820151818401526020810190506106e7565b50505050905090810190601f16801561072f5780820380516001836020036101000a031916815260200191505b50838103825286818151815260200191508051906020019080838360005b8381101561076857808201518184015260208101905061074d565b50505050905090810190601f1680156107955780820380516001836020036101000a031916815260200191505b50965050505050505060405180910390f35b61090b600480360360808110156107bd57600080fd5b81019080803590602001906401000000008111156107da57600080fd5b8201836020820111156107ec57600080fd5b8035906020019184600183028401116401000000008311171561080e57600080fd5b91908080601f016020809104026020016040519081016040528093929190818152602001838380828437600081840152601f19601f8201169050808301925050505050505091929192908035906020019064010000000081111561087157600080fd5b82018360208201111561088357600080fd5b803590602001918460018302840111640100000000831117156108a557600080fd5b91908080601f016020809104026020016040519081016040528093929190818152602001838380828437600081840152601f19601f82011690508083019250505050505050919291929080359060200190929190803590602001909291905050506117b9565b604051808215151515815260200191505060405180910390f35b6109516004803603602081101561093b57600080fd5b8101908080359060200190929190505050611b47565b6040518080602001848152602001838152602001828103825285818151815260200191508051906020019080838360005b8381101561099d578082015181840152602081019050610982565b50505050905090810190601f1680156109ca5780820380516001836020036101000a031916815260200191505b5094505050505060405180910390f35b610aa7600480360360608110156109f057600080fd5b8101908080359060200190640100000000811115610a0d57600080fd5b820183602082011115610a1f57600080fd5b80359060200191846001830284011164010000000083111715610a4157600080fd5b91908080601f016020809104026020016040519081016040528093929190818152602001838380828437600081840152601f19601f8201169050808301925050505050505091929192908035906020019092919080359060200190929190505050611c16565b005b610b6260048036036020811015610abf57600080fd5b8101908080359060200190640100000000811115610adc57600080fd5b820183602082011115610aee57600080fd5b80359060200191846001830284011164010000000083111715610b1057600080fd5b91908080601f016020809104026020016040519081016040528093929190818152602001838380828437600081840152601f19601f820116905080830192505050505050509192919290505050611d8d565b6040518082815260200191505060405180910390f35b610ba460048036036020811015610b8e57600080fd5b8101908080359060200190929190505050611dbb565b604051808381526020018281526020019250505060405180910390f35b610d1b60048036036060811015610bd757600080fd5b8101908080359060200190640100000000811115610bf457600080fd5b820183602082011115610c0657600080fd5b80359060200191846001830284011164010000000083111715610c2857600080fd5b91908080601f016020809104026020016040519081016040528093929190818152602001838380828437600081840152601f19601f82011690508083019250505050505050919291929080359060200190640100000000811115610c8b57600080fd5b820183602082011115610c9d57600080fd5b80359060200191846001830284011164010000000083111715610cbf57600080fd5b91908080601f016020809104026020016040519081016040528093929190818152602001838380828437600081840152601f19601f82011690508083019250505050505050919291929080359060200190929190505050611dec565b005b60001515610d2d858585856117b9565b151514610d3957600080fd5b610d4284611183565b15610e0d573373ffffffffffffffffffffffffffffffffffffffff166003856040518082805190602001908083835b60208310610d945780518252602082019150602081019050602083039250610d71565b6001836020036101000a038019825116818451168082178552505050505050905001915050908152602001604051809103902060009054906101000a900473ffffffffffffffffffffffffffffffffffffffff1673ffffffffffffffffffffffffffffffffffffffff1614610e0857600080fd5b610eb6565b336003856040518082805190602001908083835b60208310610e445780518252602082019150602081019050602083039250610e21565b6001836020036101000a038019825116818451168082178552505050505050905001915050908152602001604051809103902060006101000a81548173ffffffffffffffffffffffffffffffffffffffff021916908373ffffffffffffffffffffffffffffffffffffffff1602179055505b600060016000604051806060016040528087815260200185815260200186815250908060018154018082558091505090600182039060005260206000209060030201600090919290919091506000820151816000019080519060200190610f1e929190611ffc565b50602082015181600101556040820151816002015550500390506002856040518082805190602001908083835b60208310610f6e5780518252602082019150602081019050602083039250610f4b565b6001836020036101000a0380198251168184511680821785525050505050509050019150509081526020016040518091039020819080600181540180825580915050906001820390600052602060002001600090919290919091505550600185908060018154018082558091505090600182039060005260206000200160009091929091909150908051906020019061100892919061207c565b50505050505050565b600080600090505b60058054905081101561114557826040516020018082805190602001908083835b6020831061105d578051825260208201915060208101905060208303925061103a565b6001836020036101000a03801982511681845116808217855250505050505090500191505060405160208183030381529060405280519060200120600182815481106110a557fe5b90600052602060002001604051602001808280546001816001161561010002031660029004801561110d5780601f106110eb57610100808354040283529182019161110d565b820191906000526020600020905b8154815290600101906020018083116110f9575b505091505060405160208183030381529060405280519060200120141561113857600191505061114b565b8080600101915050611019565b50600090505b919050565b60076020528060005260406000206000915054906101000a900473ffffffffffffffffffffffffffffffffffffffff1681565b600080600090505b6001805490508110156112b757826040516020018082805190602001908083835b602083106111cf57805182526020820191506020810190506020830392506111ac565b6001836020036101000a038019825116818451168082178552505050505050905001915050604051602081830303815290604052805190602001206001828154811061121757fe5b90600052602060002001604051602001808280546001816001161561010002031660029004801561127f5780601f1061125d57610100808354040283529182019161127f565b820191906000526020600020905b81548152906001019060200180831161126b575b50509150506040516020818303038152906040528051906020012014156112aa5760019150506112bd565b808060010191505061118b565b50600090505b919050565b600481815481106112cf57fe5b90600052602060002090600202016000915090508060000154908060010154905082565b6009602052816000526040600020818154811061130c57fe5b90600052602060002001600091509150505481565b6003818051602081018201805184825260208301602085012081835280955050505050506000915054906101000a900473ffffffffffffffffffffffffffffffffffffffff1681565b60608060008060006002866040518082805190602001908083835b602083106113a85780518252602082019150602081019050602083039250611385565b6001836020036101000a03801982511681845116808217855250505050505090500191505090815260200160405180910390208054905014156113ea57600080fd5b8460006002876040518082805190602001908083835b602083106114235780518252602082019150602081019050602083039250611400565b6001836020036101000a038019825116818451168082178552505050505050905001915050908152602001604051809103902060016002896040518082805190602001908083835b6020831061148e578051825260208201915060208101905060208303925061146b565b6001836020036101000a03801982511681845116808217855250505050505090500191505090815260200160405180910390208054905003815481106114d057fe5b9060005260206000200154815481106114e557fe5b906000526020600020906003020160000160006002886040518082805190602001908083835b6020831061152e578051825260208201915060208101905060208303925061150b565b6001836020036101000a0380198251168184511680821785525050505050509050019150509081526020016040518091039020600160028a6040518082805190602001908083835b602083106115995780518252602082019150602081019050602083039250611576565b6001836020036101000a03801982511681845116808217855250505050505090500191505090815260200160405180910390208054905003815481106115db57fe5b9060005260206000200154815481106115f057fe5b90600052602060002090600302016001015460006002896040518082805190602001908083835b6020831061163a5780518252602082019150602081019050602083039250611617565b6001836020036101000a0380198251168184511680821785525050505050509050019150509081526020016040518091039020600160028b6040518082805190602001908083835b602083106116a55780518252602082019150602081019050602083039250611682565b6001836020036101000a03801982511681845116808217855250505050505090500191505090815260200160405180910390208054905003815481106116e757fe5b9060005260206000200154815481106116fc57fe5b906000526020600020906003020160020154828054600181600116156101000203166002900480601f0160208091040260200160405190810160405280929190818152602001828054600181600116156101000203166002900480156117a35780601f10611778576101008083540402835291602001916117a3565b820191906000526020600020905b81548152906001019060200180831161178657829003601f168201915b5050505050925093509350935093509193509193565b60006117c485611183565b6117cd57600080fd5b60008090505b6002866040518082805190602001908083835b6020831061180957805182526020820191506020810190506020830392506117e6565b6001836020036101000a038019825116818451168082178552505050505050905001915050908152602001604051809103902080549050811015611b3957846040516020018082805190602001908083835b6020831061187e578051825260208201915060208101905060208303925061185b565b6001836020036101000a0380198251168184511680821785525050505050509050019150506040516020818303038152906040528051906020012060006002886040518082805190602001908083835b602083106118f157805182526020820191506020810190506020830392506118ce565b6001836020036101000a0380198251168184511680821785525050505050509050019150509081526020016040518091039020838154811061192f57fe5b90600052602060002001548154811061194457fe5b906000526020600020906003020160000160405160200180828054600181600116156101000203166002900480156119b35780601f106119915761010080835404028352918201916119b3565b820191906000526020600020905b81548152906001019060200180831161199f575b505091505060405160208183030381529060405280519060200120148015611a7657508360006002886040518082805190602001908083835b60208310611a0f57805182526020820191506020810190506020830392506119ec565b6001836020036101000a03801982511681845116808217855250505050505090500191505090815260200160405180910390208381548110611a4d57fe5b906000526020600020015481548110611a6257fe5b906000526020600020906003020160020154145b8015611b1d57508260006002886040518082805190602001908083835b60208310611ab65780518252602082019150602081019050602083039250611a93565b6001836020036101000a03801982511681845116808217855250505050505090500191505090815260200160405180910390208381548110611af457fe5b906000526020600020015481548110611b0957fe5b906000526020600020906003020160010154145b15611b2c576001915050611b3f565b80806001019150506117d3565b50600090505b949350505050565b60008181548110611b5457fe5b9060005260206000209060030201600091509050806000018054600181600116156101000203166002900480601f016020809104026020016040519081016040528092919081815260200182805460018160011615610100020316600290048015611c005780601f10611bd557610100808354040283529160200191611c00565b820191906000526020600020905b815481529060010190602001808311611be357829003601f168201915b5050505050908060010154908060020154905083565b611c1f83611011565b15611c2957600080fd5b6000600160046040518060400160405280868152602001858152509080600181540180825580915050906001820390600052602060002090600202016000909192909190915060008201518160000155602082015181600101555050039050336007600083815260200190815260200160002060006101000a81548173ffffffffffffffffffffffffffffffffffffffff021916908373ffffffffffffffffffffffffffffffffffffffff160217905550806008856040518082805190602001908083835b60208310611d115780518252602082019150602081019050602083039250611cee565b6001836020036101000a0380198251168184511680821785525050505050509050019150509081526020016040518091039020819055506005849080600181540180825580915050906001820390600052602060002001600090919290919091509080519060200190611d8592919061207c565b505050505050565b6008818051602081018201805184825260208301602085012081835280955050505050506000915090505481565b60068181548110611dc857fe5b90600052602060002090600202016000915090508060000154908060010154905082565b611df582611183565b611dfe57600080fd5b60006001600660405180604001604052806002876040518082805190602001908083835b60208310611e455780518252602082019150602081019050602083039250611e22565b6001836020036101000a038019825116818451168082178552505050505050905001915050908152602001604051809103902060016002896040518082805190602001908083835b60208310611eb05780518252602082019150602081019050602083039250611e8d565b6001836020036101000a0380198251168184511680821785525050505050509050019150509081526020016040518091039020805490500381548110611ef257fe5b9060005260206000200154815260200185815250908060018154018082558091505090600182039060005260206000209060020201600090919290919091506000820151816000015560208201518160010155505003905060006008856040518082805190602001908083835b60208310611f825780518252602082019150602081019050602083039250611f5f565b6001836020036101000a0380198251168184511680821785525050505050509050019150509081526020016040518091039020549050600960008281526020019081526020016000208290806001815401808255809150509060018203906000526020600020016000909192909190915055505050505050565b828054600181600116156101000203166002900490600052602060002090601f016020900481019282601f1061203d57805160ff191683800117855561206b565b8280016001018555821561206b579182015b8281111561206a57825182559160200191906001019061204f565b5b50905061207891906120fc565b5090565b828054600181600116156101000203166002900490600052602060002090601f016020900481019282601f106120bd57805160ff19168380011785556120eb565b828001600101855582156120eb579182015b828111156120ea5782518255916020019190600101906120cf565b5b5090506120f891906120fc565b5090565b61211e91905b8082111561211a576000816000905550600101612102565b5090565b9056fea265627a7a72315820ace59c16bb9e53a184689c572a359fedd84c6a00cca37f5620ff7a39eaa81f8a64736f6c63430005100032",
  "source": "pragma solidity >=0.5.0 <0.6.0;\r\n\r\nimport \"./ProductRepo.sol\";\r\n\r\ncontract BillRepo is ProductRepo{\r\n\r\n\r\n    struct BillEntry {\r\n        uint productIndex;\r\n        uint quantity;\r\n    }\r\n\r\n    struct Bill {\r\n        uint date; // ddmmyyyy\r\n        uint total; // again, multiplied by 100\r\n    }\r\n\r\n    Bill[] public bills;\r\n    string[] internal orderIds;\r\n    BillEntry[] public entries;\r\n\r\n    mapping (uint => address) public billToOwner;\r\n    mapping (string => uint) public orderToBillId;\r\n    mapping (uint => uint[]) public billIdToEntryId;\r\n\r\n    function idExistsOrders(string memory id) public view returns (bool) {\r\n        for (uint index = 0; index < orderIds.length; index++) {\r\n            if (keccak256(abi.encodePacked(ids[index])) == keccak256(abi.encodePacked(id))) {\r\n                return true;\r\n            }\r\n        }\r\n        return false;\r\n    }\r\n    // require order id not exist\r\n    function createBill(string memory orderId, uint date, uint total) public {\r\n        require(!idExistsOrders(orderId));\r\n        uint id = bills.push(Bill(date, total)) - 1;\r\n        billToOwner[id] = msg.sender;\r\n        orderToBillId[orderId] = id;\r\n        orderIds.push(orderId);\r\n    }\r\n\r\n    function addEntry(string memory orderId,  string memory productId, uint quantity) public {\r\n        require(idExists(productId));\r\n        uint entryIndex = entries.push(BillEntry(idToProducts[productId][idToProducts[productId].length - 1], quantity)) - 1;\r\n        uint billIndex = orderToBillId[orderId];\r\n        billIdToEntryId[billIndex].push(entryIndex);\r\n    }\r\n\r\n   /* function getBillByOrderId(string memory orderId) public view returns (uint, uint, string[] memory, uint[] memory){\r\n        Bill memory bill = bills[orderToBillId[orderId]];\r\n        string[] memory ids = new string[](bill.entries.length);\r\n        uint[] memory quantities = new uint[](bill.entries.length);\r\n        for (uint i = 0; i < bill.entries.length; i++) {\r\n            ids[i] = bill.entries[i].productId;\r\n            quantities[i] = bill.entries[i].quantity;\r\n        }\r\n        return (bill.date, bill.total, ids, quantities);\r\n    }*/\r\n\r\n\r\n}\r\n",
  "sourcePath": "H:\\Faculta\\Licenta\\webshop\\Licenta\\blockchain\\contracts\\BillRepo.sol",
  "compiler": {
    "name": "solc",
    "version": "0.5.16+commit.9c3226ce.Emscripten.clang"
  },
  "schemaVersion": "3.4.7",
  "updatedAt": "2022-05-20T11:36:03.613Z",
  "devdoc": {
    "methods": {}
  },
  "userdoc": {
    "methods": {}
  }
}