{
  "contractName": "BillRepo",
  "abi": [
    {
      "constant": false,
      "inputs": [
        {
          "internalType": "string",
          "name": "id",
          "type": "string"
        },
        {
          "internalType": "string",
          "name": "name",
          "type": "string"
        },
        {
          "internalType": "uint256",
          "name": "totalPrice",
          "type": "uint256"
        },
        {
          "internalType": "uint256",
          "name": "VAT",
          "type": "uint256"
        }
      ],
      "name": "addProduct",
      "outputs": [],
      "payable": false,
      "stateMutability": "nonpayable",
      "type": "function"
    },
    {
      "constant": true,
      "inputs": [
        {
          "internalType": "uint256",
          "name": "",
          "type": "uint256"
        },
        {
          "internalType": "uint256",
          "name": "",
          "type": "uint256"
        }
      ],
      "name": "billIdToEntryId",
      "outputs": [
        {
          "internalType": "uint256",
          "name": "",
          "type": "uint256"
        }
      ],
      "payable": false,
      "stateMutability": "view",
      "type": "function"
    },
    {
      "constant": true,
      "inputs": [
        {
          "internalType": "uint256",
          "name": "",
          "type": "uint256"
        }
      ],
      "name": "billToOwner",
      "outputs": [
        {
          "internalType": "address",
          "name": "",
          "type": "address"
        }
      ],
      "payable": false,
      "stateMutability": "view",
      "type": "function"
    },
    {
      "constant": true,
      "inputs": [
        {
          "internalType": "uint256",
          "name": "",
          "type": "uint256"
        }
      ],
      "name": "bills",
      "outputs": [
        {
          "internalType": "uint256",
          "name": "date",
          "type": "uint256"
        },
        {
          "internalType": "uint256",
          "name": "total",
          "type": "uint256"
        }
      ],
      "payable": false,
      "stateMutability": "view",
      "type": "function"
    },
    {
      "constant": true,
      "inputs": [
        {
          "internalType": "uint256",
          "name": "",
          "type": "uint256"
        }
      ],
      "name": "entries",
      "outputs": [
        {
          "internalType": "uint256",
          "name": "productIndex",
          "type": "uint256"
        },
        {
          "internalType": "uint256",
          "name": "quantity",
          "type": "uint256"
        }
      ],
      "payable": false,
      "stateMutability": "view",
      "type": "function"
    },
    {
      "constant": true,
      "inputs": [
        {
          "internalType": "string",
          "name": "id",
          "type": "string"
        }
      ],
      "name": "getProduct",
      "outputs": [
        {
          "internalType": "string",
          "name": "",
          "type": "string"
        },
        {
          "internalType": "string",
          "name": "",
          "type": "string"
        },
        {
          "internalType": "uint256",
          "name": "",
          "type": "uint256"
        },
        {
          "internalType": "uint256",
          "name": "",
          "type": "uint256"
        }
      ],
      "payable": false,
      "stateMutability": "view",
      "type": "function"
    },
    {
      "constant": false,
      "inputs": [
        {
          "internalType": "string",
          "name": "id",
          "type": "string"
        },
        {
          "internalType": "address",
          "name": "newPermission",
          "type": "address"
        }
      ],
      "name": "grantPermissions",
      "outputs": [],
      "payable": false,
      "stateMutability": "nonpayable",
      "type": "function"
    },
    {
      "constant": true,
      "inputs": [
        {
          "internalType": "string",
          "name": "id",
          "type": "string"
        }
      ],
      "name": "idExists",
      "outputs": [
        {
          "internalType": "bool",
          "name": "",
          "type": "bool"
        }
      ],
      "payable": false,
      "stateMutability": "view",
      "type": "function"
    },
    {
      "constant": true,
      "inputs": [
        {
          "internalType": "string",
          "name": "id",
          "type": "string"
        }
      ],
      "name": "inPermissions",
      "outputs": [
        {
          "internalType": "bool",
          "name": "",
          "type": "bool"
        }
      ],
      "payable": false,
      "stateMutability": "view",
      "type": "function"
    },
    {
      "constant": true,
      "inputs": [
        {
          "internalType": "uint256",
          "name": "",
          "type": "uint256"
        }
      ],
      "name": "orderIds",
      "outputs": [
        {
          "internalType": "string",
          "name": "",
          "type": "string"
        }
      ],
      "payable": false,
      "stateMutability": "view",
      "type": "function"
    },
    {
      "constant": true,
      "inputs": [
        {
          "internalType": "string",
          "name": "",
          "type": "string"
        }
      ],
      "name": "orderToBillId",
      "outputs": [
        {
          "internalType": "uint256",
          "name": "",
          "type": "uint256"
        }
      ],
      "payable": false,
      "stateMutability": "view",
      "type": "function"
    },
    {
      "constant": true,
      "inputs": [
        {
          "internalType": "string",
          "name": "id",
          "type": "string"
        },
        {
          "internalType": "string",
          "name": "name",
          "type": "string"
        },
        {
          "internalType": "uint256",
          "name": "totalPrice",
          "type": "uint256"
        },
        {
          "internalType": "uint256",
          "name": "VAT",
          "type": "uint256"
        }
      ],
      "name": "productAdded",
      "outputs": [
        {
          "internalType": "bool",
          "name": "",
          "type": "bool"
        }
      ],
      "payable": false,
      "stateMutability": "view",
      "type": "function"
    },
    {
      "constant": true,
      "inputs": [
        {
          "internalType": "string",
          "name": "",
          "type": "string"
        }
      ],
      "name": "productToOwner",
      "outputs": [
        {
          "internalType": "address",
          "name": "",
          "type": "address"
        }
      ],
      "payable": false,
      "stateMutability": "view",
      "type": "function"
    },
    {
      "constant": true,
      "inputs": [
        {
          "internalType": "string",
          "name": "",
          "type": "string"
        },
        {
          "internalType": "uint256",
          "name": "",
          "type": "uint256"
        }
      ],
      "name": "productToPermissions",
      "outputs": [
        {
          "internalType": "address",
          "name": "",
          "type": "address"
        }
      ],
      "payable": false,
      "stateMutability": "view",
      "type": "function"
    },
    {
      "constant": true,
      "inputs": [
        {
          "internalType": "uint256",
          "name": "",
          "type": "uint256"
        }
      ],
      "name": "products",
      "outputs": [
        {
          "internalType": "string",
          "name": "name",
          "type": "string"
        },
        {
          "internalType": "uint256",
          "name": "VAT",
          "type": "uint256"
        },
        {
          "internalType": "uint256",
          "name": "priceWithVAT",
          "type": "uint256"
        }
      ],
      "payable": false,
      "stateMutability": "view",
      "type": "function"
    },
    {
      "constant": true,
      "inputs": [
        {
          "internalType": "string",
          "name": "id",
          "type": "string"
        }
      ],
      "name": "idExistsOrders",
      "outputs": [
        {
          "internalType": "bool",
          "name": "",
          "type": "bool"
        }
      ],
      "payable": false,
      "stateMutability": "view",
      "type": "function"
    },
    {
      "constant": true,
      "inputs": [
        {
          "internalType": "string",
          "name": "orderId",
          "type": "string"
        },
        {
          "internalType": "string",
          "name": "productId",
          "type": "string"
        },
        {
          "internalType": "uint256",
          "name": "quantity",
          "type": "uint256"
        }
      ],
      "name": "entryDeployedInCurrentBill",
      "outputs": [
        {
          "internalType": "bool",
          "name": "",
          "type": "bool"
        }
      ],
      "payable": false,
      "stateMutability": "view",
      "type": "function"
    },
    {
      "constant": true,
      "inputs": [
        {
          "internalType": "uint256",
          "name": "prodIndex",
          "type": "uint256"
        },
        {
          "internalType": "uint256",
          "name": "quantity",
          "type": "uint256"
        }
      ],
      "name": "entryExists",
      "outputs": [
        {
          "internalType": "int256",
          "name": "",
          "type": "int256"
        }
      ],
      "payable": false,
      "stateMutability": "view",
      "type": "function"
    },
    {
      "constant": false,
      "inputs": [
        {
          "internalType": "string",
          "name": "orderId",
          "type": "string"
        },
        {
          "internalType": "uint256",
          "name": "date",
          "type": "uint256"
        },
        {
          "internalType": "uint256",
          "name": "total",
          "type": "uint256"
        }
      ],
      "name": "createBill",
      "outputs": [],
      "payable": false,
      "stateMutability": "nonpayable",
      "type": "function"
    },
    {
      "constant": false,
      "inputs": [
        {
          "internalType": "string",
          "name": "orderId",
          "type": "string"
        },
        {
          "internalType": "string",
          "name": "productId",
          "type": "string"
        },
        {
          "internalType": "uint256",
          "name": "quantity",
          "type": "uint256"
        }
      ],
      "name": "addEntry",
      "outputs": [],
      "payable": false,
      "stateMutability": "nonpayable",
      "type": "function"
    },
    {
      "constant": true,
      "inputs": [
        {
          "internalType": "string",
          "name": "orderId",
          "type": "string"
        }
      ],
      "name": "getBillByOrderId",
      "outputs": [
        {
          "internalType": "uint256",
          "name": "",
          "type": "uint256"
        },
        {
          "internalType": "uint256",
          "name": "",
          "type": "uint256"
        }
      ],
      "payable": false,
      "stateMutability": "view",
      "type": "function"
    },
    {
      "constant": true,
      "inputs": [
        {
          "internalType": "string",
          "name": "orderId",
          "type": "string"
        },
        {
          "internalType": "string",
          "name": "productId",
          "type": "string"
        }
      ],
      "name": "getProductForEntry",
      "outputs": [
        {
          "internalType": "string",
          "name": "",
          "type": "string"
        },
        {
          "internalType": "string",
          "name": "",
          "type": "string"
        },
        {
          "internalType": "uint256",
          "name": "",
          "type": "uint256"
        },
        {
          "internalType": "uint256",
          "name": "",
          "type": "uint256"
        }
      ],
      "payable": false,
      "stateMutability": "view",
      "type": "function"
    },
    {
      "constant": true,
      "inputs": [
        {
          "internalType": "string",
          "name": "orderId",
          "type": "string"
        },
        {
          "internalType": "uint256",
          "name": "entryNumber",
          "type": "uint256"
        }
      ],
      "name": "getProductNameForEntry",
      "outputs": [
        {
          "internalType": "string",
          "name": "",
          "type": "string"
        }
      ],
      "payable": false,
      "stateMutability": "view",
      "type": "function"
    },
    {
      "constant": true,
      "inputs": [
        {
          "internalType": "string",
          "name": "orderId",
          "type": "string"
        }
      ],
      "name": "getVATsByOrderId",
      "outputs": [
        {
          "internalType": "uint256[]",
          "name": "",
          "type": "uint256[]"
        }
      ],
      "payable": false,
      "stateMutability": "view",
      "type": "function"
    },
    {
      "constant": true,
      "inputs": [
        {
          "internalType": "string",
          "name": "orderId",
          "type": "string"
        }
      ],
      "name": "getPricesByOrderId",
      "outputs": [
        {
          "internalType": "uint256[]",
          "name": "",
          "type": "uint256[]"
        }
      ],
      "payable": false,
      "stateMutability": "view",
      "type": "function"
    },
    {
      "constant": true,
      "inputs": [
        {
          "internalType": "string",
          "name": "orderId",
          "type": "string"
        }
      ],
      "name": "getQuantitiesByOrderId",
      "outputs": [
        {
          "internalType": "uint256[]",
          "name": "",
          "type": "uint256[]"
        }
      ],
      "payable": false,
      "stateMutability": "view",
      "type": "function"
    }
  ],
  "bytecode": "0x608060405234801561001057600080fd5b50614cb2806100206000396000f3fe608060405234801561001057600080fd5b506004361061018e5760003560e01c8063426ed70e116100de5780637ed5e55b11610097578063b30906d411610071578063b30906d414611506578063be0968e81461154f578063beb41a5c146116ab578063d87e18851461181f5761018e565b80637ed5e55b146112585780637eda9f1a146113275780638e8d080a146114375761018e565b8063426ed70e14610b675780635eb3388314610c625780635fdab0f914610d6757806368111cce14610e7757806373b0404c146110255780637acc0b20146111a35761018e565b806326638e861161014b57806332d2f0451161012557806332d2f0451461086257806334878919146109355780633a1013db14610a0b57806340b861c814610a575761018e565b806326638e86146106fa57806328bdcde8146107cd5780632dc3b1c7146108165761018e565b806301cecd14146101935780630286828e146102f9578063189ce0e6146103d45780631d77d489146104a75780631f0f77dd146105155780632372208414610653575b600080fd5b6102f7600480360360808110156101a957600080fd5b81019080803590602001906401000000008111156101c657600080fd5b8201836020820111156101d857600080fd5b803590602001918460018302840111640100000000831117156101fa57600080fd5b91908080601f016020809104026020016040519081016040528093929190818152602001838380828437600081840152601f19601f8201169050808301925050505050505091929192908035906020019064010000000081111561025d57600080fd5b82018360208201111561026f57600080fd5b8035906020019184600183028401116401000000008311171561029157600080fd5b91908080601f016020809104026020016040519081016040528093929190818152602001838380828437600081840152601f19601f8201169050808301925050505050505091929192908035906020019092919080359060200190929190505050611a64565b005b6103d26004803603604081101561030f57600080fd5b810190808035906020019064010000000081111561032c57600080fd5b82018360208201111561033e57600080fd5b8035906020019184600183028401116401000000008311171561036057600080fd5b91908080601f016020809104026020016040519081016040528093929190818152602001838380828437600081840152601f19601f820116905080830192505050505050509192919290803573ffffffffffffffffffffffffffffffffffffffff169060200190929190505050611d58565b005b61048d600480360360208110156103ea57600080fd5b810190808035906020019064010000000081111561040757600080fd5b82018360208201111561041957600080fd5b8035906020019184600183028401116401000000008311171561043b57600080fd5b91908080601f016020809104026020016040519081016040528093929190818152602001838380828437600081840152601f19601f820116905080830192505050505050509192919290505050611eea565b604051808215151515815260200191505060405180910390f35b6104d3600480360360208110156104bd57600080fd5b8101908080359060200190929190505050612029565b604051808273ffffffffffffffffffffffffffffffffffffffff1673ffffffffffffffffffffffffffffffffffffffff16815260200191505060405180910390f35b6105d86004803603604081101561052b57600080fd5b810190808035906020019064010000000081111561054857600080fd5b82018360208201111561055a57600080fd5b8035906020019184600183028401116401000000008311171561057c57600080fd5b91908080601f016020809104026020016040519081016040528093929190818152602001838380828437600081840152601f19601f8201169050808301925050505050505091929192908035906020019092919050505061205c565b6040518080602001828103825283818151815260200191508051906020019080838360005b838110156106185780820151818401526020810190506105fd565b50505050905090810190601f1680156106455780820380516001836020036101000a031916815260200191505b509250505060405180910390f35b61067f6004803603602081101561066957600080fd5b81019080803590602001909291905050506122a2565b6040518080602001828103825283818151815260200191508051906020019080838360005b838110156106bf5780820151818401526020810190506106a4565b50505050905090810190601f1680156106ec5780820380516001836020036101000a031916815260200191505b509250505060405180910390f35b6107b36004803603602081101561071057600080fd5b810190808035906020019064010000000081111561072d57600080fd5b82018360208201111561073f57600080fd5b8035906020019184600183028401116401000000008311171561076157600080fd5b91908080601f016020809104026020016040519081016040528093929190818152602001838380828437600081840152601f19601f82011690508083019250505050505050919291929050505061235b565b604051808215151515815260200191505060405180910390f35b6107f9600480360360208110156107e357600080fd5b810190808035906020019092919050505061249a565b604051808381526020018281526020019250505060405180910390f35b61084c6004803603604081101561082c57600080fd5b8101908080359060200190929190803590602001909291905050506124cb565b6040518082815260200191505060405180910390f35b61091b6004803603602081101561087857600080fd5b810190808035906020019064010000000081111561089557600080fd5b8201836020820111156108a757600080fd5b803590602001918460018302840111640100000000831117156108c957600080fd5b91908080601f016020809104026020016040519081016040528093929190818152602001838380828437600081840152601f19601f8201169050808301925050505050505091929192905050506124f9565b604051808215151515815260200191505060405180910390f35b6109ee6004803603602081101561094b57600080fd5b810190808035906020019064010000000081111561096857600080fd5b82018360208201111561097a57600080fd5b8035906020019184600183028401116401000000008311171561099c57600080fd5b91908080601f016020809104026020016040519081016040528093929190818152602001838380828437600081840152601f19601f820116905080830192505050505050509192919290505050612669565b604051808381526020018281526020019250505060405180910390f35b610a4160048036036040811015610a2157600080fd5b81019080803590602001909291908035906020019092919050505061285b565b6040518082815260200191505060405180910390f35b610b1060048036036020811015610a6d57600080fd5b8101908080359060200190640100000000811115610a8a57600080fd5b820183602082011115610a9c57600080fd5b80359060200191846001830284011164010000000083111715610abe57600080fd5b91908080601f016020809104026020016040519081016040528093929190818152602001838380828437600081840152601f19601f820116905080830192505050505050509192919290505050612900565b6040518080602001828103825283818151815260200191508051906020019060200280838360005b83811015610b53578082015181840152602081019050610b38565b505050509050019250505060405180910390f35b610c2060048036036020811015610b7d57600080fd5b8101908080359060200190640100000000811115610b9a57600080fd5b820183602082011115610bac57600080fd5b80359060200191846001830284011164010000000083111715610bce57600080fd5b91908080601f016020809104026020016040519081016040528093929190818152602001838380828437600081840152601f19601f820116905080830192505050505050509192919290505050612c15565b604051808273ffffffffffffffffffffffffffffffffffffffff1673ffffffffffffffffffffffffffffffffffffffff16815260200191505060405180910390f35b610d2560048036036040811015610c7857600080fd5b8101908080359060200190640100000000811115610c9557600080fd5b820183602082011115610ca757600080fd5b80359060200191846001830284011164010000000083111715610cc957600080fd5b91908080601f016020809104026020016040519081016040528093929190818152602001838380828437600081840152601f19601f82011690508083019250505050505050919291929080359060200190929190505050612c5e565b604051808273ffffffffffffffffffffffffffffffffffffffff1673ffffffffffffffffffffffffffffffffffffffff16815260200191505060405180910390f35b610e2060048036036020811015610d7d57600080fd5b8101908080359060200190640100000000811115610d9a57600080fd5b820183602082011115610dac57600080fd5b80359060200191846001830284011164010000000083111715610dce57600080fd5b91908080601f016020809104026020016040519081016040528093929190818152602001838380828437600081840152601f19601f820116905080830192505050505050509192919290505050612cbf565b6040518080602001828103825283818151815260200191508051906020019060200280838360005b83811015610e63578082015181840152602081019050610e48565b505050509050019250505060405180910390f35b610f3060048036036020811015610e8d57600080fd5b8101908080359060200190640100000000811115610eaa57600080fd5b820183602082011115610ebc57600080fd5b80359060200191846001830284011164010000000083111715610ede57600080fd5b91908080601f016020809104026020016040519081016040528093929190818152602001838380828437600081840152601f19601f820116905080830192505050505050509192919290505050612fb6565b604051808060200180602001858152602001848152602001838103835287818151815260200191508051906020019080838360005b83811015610f80578082015181840152602081019050610f65565b50505050905090810190601f168015610fad5780820380516001836020036101000a031916815260200191505b50838103825286818151815260200191508051906020019080838360005b83811015610fe6578082015181840152602081019050610fcb565b50505050905090810190601f1680156110135780820380516001836020036101000a031916815260200191505b50965050505050505060405180910390f35b6111896004803603608081101561103b57600080fd5b810190808035906020019064010000000081111561105857600080fd5b82018360208201111561106a57600080fd5b8035906020019184600183028401116401000000008311171561108c57600080fd5b91908080601f016020809104026020016040519081016040528093929190818152602001838380828437600081840152601f19601f820116905080830192505050505050509192919290803590602001906401000000008111156110ef57600080fd5b82018360208201111561110157600080fd5b8035906020019184600183028401116401000000008311171561112357600080fd5b91908080601f016020809104026020016040519081016040528093929190818152602001838380828437600081840152601f19601f82011690508083019250505050505050919291929080359060200190929190803590602001909291905050506134d8565b604051808215151515815260200191505060405180910390f35b6111cf600480360360208110156111b957600080fd5b8101908080359060200190929190505050613871565b6040518080602001848152602001838152602001828103825285818151815260200191508051906020019080838360005b8381101561121b578082015181840152602081019050611200565b50505050905090810190601f1680156112485780820380516001836020036101000a031916815260200191505b5094505050505060405180910390f35b6113256004803603606081101561126e57600080fd5b810190808035906020019064010000000081111561128b57600080fd5b82018360208201111561129d57600080fd5b803590602001918460018302840111640100000000831117156112bf57600080fd5b91908080601f016020809104026020016040519081016040528093929190818152602001838380828437600081840152601f19601f8201169050808301925050505050505091929192908035906020019092919080359060200190929190505050613940565b005b6113e06004803603602081101561133d57600080fd5b810190808035906020019064010000000081111561135a57600080fd5b82018360208201111561136c57600080fd5b8035906020019184600183028401116401000000008311171561138e57600080fd5b91908080601f016020809104026020016040519081016040528093929190818152602001838380828437600081840152601f19601f820116905080830192505050505050509192919290505050613abd565b6040518080602001828103825283818151815260200191508051906020019060200280838360005b83811015611423578082015181840152602081019050611408565b505050509050019250505060405180910390f35b6114f06004803603602081101561144d57600080fd5b810190808035906020019064010000000081111561146a57600080fd5b82018360208201111561147c57600080fd5b8035906020019184600183028401116401000000008311171561149e57600080fd5b91908080601f016020809104026020016040519081016040528093929190818152602001838380828437600081840152601f19601f820116905080830192505050505050509192919290505050613dd2565b6040518082815260200191505060405180910390f35b6115326004803603602081101561151c57600080fd5b8101908080359060200190929190505050613e00565b604051808381526020018281526020019250505060405180910390f35b6116a96004803603606081101561156557600080fd5b810190808035906020019064010000000081111561158257600080fd5b82018360208201111561159457600080fd5b803590602001918460018302840111640100000000831117156115b657600080fd5b91908080601f016020809104026020016040519081016040528093929190818152602001838380828437600081840152601f19601f8201169050808301925050505050505091929192908035906020019064010000000081111561161957600080fd5b82018360208201111561162b57600080fd5b8035906020019184600183028401116401000000008311171561164d57600080fd5b91908080601f016020809104026020016040519081016040528093929190818152602001838380828437600081840152601f19601f82011690508083019250505050505050919291929080359060200190929190505050613e31565b005b611805600480360360608110156116c157600080fd5b81019080803590602001906401000000008111156116de57600080fd5b8201836020820111156116f057600080fd5b8035906020019184600183028401116401000000008311171561171257600080fd5b91908080601f016020809104026020016040519081016040528093929190818152602001838380828437600081840152601f19601f8201169050808301925050505050505091929192908035906020019064010000000081111561177557600080fd5b82018360208201111561178757600080fd5b803590602001918460018302840111640100000000831117156117a957600080fd5b91908080601f016020809104026020016040519081016040528093929190818152602001838380828437600081840152601f19601f82011690508083019250505050505050919291929080359060200190929190505050614307565b604051808215151515815260200191505060405180910390f35b61196f6004803603604081101561183557600080fd5b810190808035906020019064010000000081111561185257600080fd5b82018360208201111561186457600080fd5b8035906020019184600183028401116401000000008311171561188657600080fd5b91908080601f016020809104026020016040519081016040528093929190818152602001838380828437600081840152601f19601f820116905080830192505050505050509192919290803590602001906401000000008111156118e957600080fd5b8201836020820111156118fb57600080fd5b8035906020019184600183028401116401000000008311171561191d57600080fd5b91908080601f016020809104026020016040519081016040528093929190818152602001838380828437600081840152601f19601f8201169050808301925050505050505091929192905050506146ef565b604051808060200180602001858152602001848152602001838103835287818151815260200191508051906020019080838360005b838110156119bf5780820151818401526020810190506119a4565b50505050905090810190601f1680156119ec5780820380516001836020036101000a031916815260200191505b50838103825286818151815260200191508051906020019080838360005b83811015611a25578082015181840152602081019050611a0a565b50505050905090810190601f168015611a525780820380516001836020036101000a031916815260200191505b50965050505050505060405180910390f35b60001515611a74858585856134d8565b151514611a8057600080fd5b611a898461235b565b15611b54573373ffffffffffffffffffffffffffffffffffffffff166003856040518082805190602001908083835b60208310611adb5780518252602082019150602081019050602083039250611ab8565b6001836020036101000a038019825116818451168082178552505050505050905001915050908152602001604051809103902060009054906101000a900473ffffffffffffffffffffffffffffffffffffffff1673ffffffffffffffffffffffffffffffffffffffff1614611b4f57600080fd5b611bfd565b336003856040518082805190602001908083835b60208310611b8b5780518252602082019150602081019050602083039250611b68565b6001836020036101000a038019825116818451168082178552505050505050905001915050908152602001604051809103902060006101000a81548173ffffffffffffffffffffffffffffffffffffffff021916908373ffffffffffffffffffffffffffffffffffffffff1602179055505b600060016000604051806060016040528087815260200185815260200186815250908060018154018082558091505090600182039060005260206000209060030201600090919290919091506000820151816000019080519060200190611c65929190614b58565b50602082015181600101556040820151816002015550500390506002856040518082805190602001908083835b60208310611cb55780518252602082019150602081019050602083039250611c92565b6001836020036101000a03801982511681845116808217855250505050505090500191505090815260200160405180910390208190806001815401808255809150509060018203906000526020600020016000909192909190915055506001859080600181540180825580915050906001820390600052602060002001600090919290919091509080519060200190611d4f929190614bd8565b50505050505050565b3373ffffffffffffffffffffffffffffffffffffffff166003836040518082805190602001908083835b60208310611da55780518252602082019150602081019050602083039250611d82565b6001836020036101000a038019825116818451168082178552505050505050905001915050908152602001604051809103902060009054906101000a900473ffffffffffffffffffffffffffffffffffffffff1673ffffffffffffffffffffffffffffffffffffffff1614611e1957600080fd5b6004826040518082805190602001908083835b60208310611e4f5780518252602082019150602081019050602083039250611e2c565b6001836020036101000a03801982511681845116808217855250505050505090500191505090815260200160405180910390208190806001815401808255809150509060018203906000526020600020016000909192909190916101000a81548173ffffffffffffffffffffffffffffffffffffffff021916908373ffffffffffffffffffffffffffffffffffffffff160217905550505050565b600080600090505b60068054905081101561201e57826040516020018082805190602001908083835b60208310611f365780518252602082019150602081019050602083039250611f13565b6001836020036101000a0380198251168184511680821785525050505050509050019150506040516020818303038152906040528051906020012060068281548110611f7e57fe5b906000526020600020016040516020018082805460018160011615610100020316600290048015611fe65780601f10611fc4576101008083540402835291820191611fe6565b820191906000526020600020905b815481529060010190602001808311611fd2575b5050915050604051602081830303815290604052805190602001201415612011576001915050612024565b8080600101915050611ef2565b50600090505b919050565b60086020528060005260406000206000915054906101000a900473ffffffffffffffffffffffffffffffffffffffff1681565b6060823373ffffffffffffffffffffffffffffffffffffffff16600860006009846040518082805190602001908083835b602083106120b0578051825260208201915060208101905060208303925061208d565b6001836020036101000a038019825116818451168082178552505050505050905001915050908152602001604051809103902054815260200190815260200160002060009054906101000a900473ffffffffffffffffffffffffffffffffffffffff1673ffffffffffffffffffffffffffffffffffffffff161461213357600080fd5b60006007600a60006009886040518082805190602001908083835b60208310612171578051825260208201915060208101905060208303925061214e565b6001836020036101000a038019825116818451168082178552505050505050905001915050908152602001604051809103902054815260200190815260200160002085815481106121be57fe5b9060005260206000200154815481106121d357fe5b906000526020600020906002020160000154815481106121ef57fe5b90600052602060002090600302016000018054600181600116156101000203166002900480601f0160208091040260200160405190810160405280929190818152602001828054600181600116156101000203166002900480156122945780601f1061226957610100808354040283529160200191612294565b820191906000526020600020905b81548152906001019060200180831161227757829003601f168201915b505050505091505092915050565b600681815481106122af57fe5b906000526020600020016000915090508054600181600116156101000203166002900480601f0160208091040260200160405190810160405280929190818152602001828054600181600116156101000203166002900480156123535780601f1061232857610100808354040283529160200191612353565b820191906000526020600020905b81548152906001019060200180831161233657829003601f168201915b505050505081565b600080600090505b60018054905081101561248f57826040516020018082805190602001908083835b602083106123a75780518252602082019150602081019050602083039250612384565b6001836020036101000a03801982511681845116808217855250505050505090500191505060405160208183030381529060405280519060200120600182815481106123ef57fe5b9060005260206000200160405160200180828054600181600116156101000203166002900480156124575780601f10612435576101008083540402835291820191612457565b820191906000526020600020905b815481529060010190602001808311612443575b5050915050604051602081830303815290604052805190602001201415612482576001915050612495565b8080600101915050612363565b50600090505b919050565b600581815481106124a757fe5b90600052602060002090600202016000915090508060000154908060010154905082565b600a60205281600052604060002081815481106124e457fe5b90600052602060002001600091509150505481565b600080600090505b6004836040518082805190602001908083835b602083106125375780518252602082019150602081019050602083039250612514565b6001836020036101000a03801982511681845116808217855250505050505090500191505090815260200160405180910390208054905081101561265e573373ffffffffffffffffffffffffffffffffffffffff166004846040518082805190602001908083835b602083106125c2578051825260208201915060208101905060208303925061259f565b6001836020036101000a0380198251168184511680821785525050505050509050019150509081526020016040518091039020828154811061260057fe5b9060005260206000200160009054906101000a900473ffffffffffffffffffffffffffffffffffffffff1673ffffffffffffffffffffffffffffffffffffffff161415612651576001915050612664565b8080600101915050612501565b50600090505b919050565b600080823373ffffffffffffffffffffffffffffffffffffffff16600860006009846040518082805190602001908083835b602083106126be578051825260208201915060208101905060208303925061269b565b6001836020036101000a038019825116818451168082178552505050505050905001915050908152602001604051809103902054815260200190815260200160002060009054906101000a900473ffffffffffffffffffffffffffffffffffffffff1673ffffffffffffffffffffffffffffffffffffffff161461274157600080fd5b60056009856040518082805190602001908083835b602083106127795780518252602082019150602081019050602083039250612756565b6001836020036101000a038019825116818451168082178552505050505050905001915050908152602001604051809103902054815481106127b757fe5b90600052602060002090600202016000015460056009866040518082805190602001908083835b6020831061280157805182526020820191506020810190506020830392506127de565b6001836020036101000a0380198251168184511680821785525050505050509050019150509081526020016040518091039020548154811061283f57fe5b9060005260206000209060020201600101549250925050915091565b600080600090505b6007805490508110156128d557836007828154811061287e57fe5b9060005260206000209060020201600001541480156128ba575082600782815481106128a657fe5b906000526020600020906002020160010154145b156128c857809150506128fa565b8080600101915050612863565b507fffffffffffffffffffffffffffffffffffffffffffffffffffffffffffffffff90505b92915050565b6060813373ffffffffffffffffffffffffffffffffffffffff16600860006009846040518082805190602001908083835b602083106129545780518252602082019150602081019050602083039250612931565b6001836020036101000a038019825116818451168082178552505050505050905001915050908152602001604051809103902054815260200190815260200160002060009054906101000a900473ffffffffffffffffffffffffffffffffffffffff1673ffffffffffffffffffffffffffffffffffffffff16146129d757600080fd5b6060600a60006009866040518082805190602001908083835b60208310612a1357805182526020820191506020810190506020830392506129f0565b6001836020036101000a038019825116818451168082178552505050505050905001915050908152602001604051809103902054815260200190815260200160002080549050604051908082528060200260200182016040528015612a875781602001602082028038833980820191505090505b50905060008090505b600a60006009876040518082805190602001908083835b60208310612aca5780518252602082019150602081019050602083039250612aa7565b6001836020036101000a038019825116818451168082178552505050505050905001915050908152602001604051809103902054815260200190815260200160002080549050811015612c0a5760006007600a60006009896040518082805190602001908083835b60208310612b555780518252602082019150602081019050602083039250612b32565b6001836020036101000a03801982511681845116808217855250505050505090500191505090815260200160405180910390205481526020019081526020016000208381548110612ba257fe5b906000526020600020015481548110612bb757fe5b90600052602060002090600202016000015481548110612bd357fe5b906000526020600020906003020160010154828281518110612bf157fe5b6020026020010181815250508080600101915050612a90565b508092505050919050565b6003818051602081018201805184825260208301602085012081835280955050505050506000915054906101000a900473ffffffffffffffffffffffffffffffffffffffff1681565b6004828051602081018201805184825260208301602085012081835280955050505050508181548110612c8d57fe5b906000526020600020016000915091509054906101000a900473ffffffffffffffffffffffffffffffffffffffff1681565b6060813373ffffffffffffffffffffffffffffffffffffffff16600860006009846040518082805190602001908083835b60208310612d135780518252602082019150602081019050602083039250612cf0565b6001836020036101000a038019825116818451168082178552505050505050905001915050908152602001604051809103902054815260200190815260200160002060009054906101000a900473ffffffffffffffffffffffffffffffffffffffff1673ffffffffffffffffffffffffffffffffffffffff1614612d9657600080fd5b6060600a60006009866040518082805190602001908083835b60208310612dd25780518252602082019150602081019050602083039250612daf565b6001836020036101000a038019825116818451168082178552505050505050905001915050908152602001604051809103902054815260200190815260200160002080549050604051908082528060200260200182016040528015612e465781602001602082028038833980820191505090505b50905060008090505b600a60006009876040518082805190602001908083835b60208310612e895780518252602082019150602081019050602083039250612e66565b6001836020036101000a038019825116818451168082178552505050505050905001915050908152602001604051809103902054815260200190815260200160002080549050811015612fab576007600a60006009886040518082805190602001908083835b60208310612f125780518252602082019150602081019050602083039250612eef565b6001836020036101000a03801982511681845116808217855250505050505090500191505090815260200160405180910390205481526020019081526020016000208281548110612f5f57fe5b906000526020600020015481548110612f7457fe5b906000526020600020906002020160010154828281518110612f9257fe5b6020026020010181815250508080600101915050612e4f565b508092505050919050565b606080600080843373ffffffffffffffffffffffffffffffffffffffff166003826040518082805190602001908083835b6020831061300a5780518252602082019150602081019050602083039250612fe7565b6001836020036101000a038019825116818451168082178552505050505050905001915050908152602001604051809103902060009054906101000a900473ffffffffffffffffffffffffffffffffffffffff1673ffffffffffffffffffffffffffffffffffffffff1614806130855750613084816124f9565b5b61308e57600080fd5b60006002876040518082805190602001908083835b602083106130c657805182526020820191506020810190506020830392506130a3565b6001836020036101000a038019825116818451168082178552505050505050905001915050908152602001604051809103902080549050141561310857600080fd5b8560006002886040518082805190602001908083835b60208310613141578051825260208201915060208101905060208303925061311e565b6001836020036101000a0380198251168184511680821785525050505050509050019150509081526020016040518091039020600160028a6040518082805190602001908083835b602083106131ac5780518252602082019150602081019050602083039250613189565b6001836020036101000a03801982511681845116808217855250505050505090500191505090815260200160405180910390208054905003815481106131ee57fe5b90600052602060002001548154811061320357fe5b906000526020600020906003020160000160006002896040518082805190602001908083835b6020831061324c5780518252602082019150602081019050602083039250613229565b6001836020036101000a0380198251168184511680821785525050505050509050019150509081526020016040518091039020600160028b6040518082805190602001908083835b602083106132b75780518252602082019150602081019050602083039250613294565b6001836020036101000a03801982511681845116808217855250505050505090500191505090815260200160405180910390208054905003815481106132f957fe5b90600052602060002001548154811061330e57fe5b906000526020600020906003020160010154600060028a6040518082805190602001908083835b602083106133585780518252602082019150602081019050602083039250613335565b6001836020036101000a0380198251168184511680821785525050505050509050019150509081526020016040518091039020600160028c6040518082805190602001908083835b602083106133c357805182526020820191506020810190506020830392506133a0565b6001836020036101000a038019825116818451168082178552505050505050905001915050908152602001604051809103902080549050038154811061340557fe5b90600052602060002001548154811061341a57fe5b906000526020600020906003020160020154828054600181600116156101000203166002900480601f0160208091040260200160405190810160405280929190818152602001828054600181600116156101000203166002900480156134c15780601f10613496576101008083540402835291602001916134c1565b820191906000526020600020905b8154815290600101906020018083116134a457829003601f168201915b505050505092509450945094509450509193509193565b60008015156134e68661235b565b151514156134f75760009050613869565b60008090505b6002866040518082805190602001908083835b602083106135335780518252602082019150602081019050602083039250613510565b6001836020036101000a03801982511681845116808217855250505050505090500191505090815260200160405180910390208054905081101561386357846040516020018082805190602001908083835b602083106135a85780518252602082019150602081019050602083039250613585565b6001836020036101000a0380198251168184511680821785525050505050509050019150506040516020818303038152906040528051906020012060006002886040518082805190602001908083835b6020831061361b57805182526020820191506020810190506020830392506135f8565b6001836020036101000a0380198251168184511680821785525050505050509050019150509081526020016040518091039020838154811061365957fe5b90600052602060002001548154811061366e57fe5b906000526020600020906003020160000160405160200180828054600181600116156101000203166002900480156136dd5780601f106136bb5761010080835404028352918201916136dd565b820191906000526020600020905b8154815290600101906020018083116136c9575b5050915050604051602081830303815290604052805190602001201480156137a057508360006002886040518082805190602001908083835b602083106137395780518252602082019150602081019050602083039250613716565b6001836020036101000a0380198251168184511680821785525050505050509050019150509081526020016040518091039020838154811061377757fe5b90600052602060002001548154811061378c57fe5b906000526020600020906003020160020154145b801561384757508260006002886040518082805190602001908083835b602083106137e057805182526020820191506020810190506020830392506137bd565b6001836020036101000a0380198251168184511680821785525050505050509050019150509081526020016040518091039020838154811061381e57fe5b90600052602060002001548154811061383357fe5b906000526020600020906003020160010154145b15613856576001915050613869565b80806001019150506134fd565b50600090505b949350505050565b6000818154811061387e57fe5b9060005260206000209060030201600091509050806000018054600181600116156101000203166002900480601f01602080910402602001604051908101604052809291908181526020018280546001816001161561010002031660029004801561392a5780601f106138ff5761010080835404028352916020019161392a565b820191906000526020600020905b81548152906001019060200180831161390d57829003601f168201915b5050505050908060010154908060020154905083565b6000151561394d84611eea565b15151461395957600080fd5b6000600160056040518060400160405280868152602001858152509080600181540180825580915050906001820390600052602060002090600202016000909192909190915060008201518160000155602082015181600101555050039050336008600083815260200190815260200160002060006101000a81548173ffffffffffffffffffffffffffffffffffffffff021916908373ffffffffffffffffffffffffffffffffffffffff160217905550806009856040518082805190602001908083835b60208310613a415780518252602082019150602081019050602083039250613a1e565b6001836020036101000a0380198251168184511680821785525050505050509050019150509081526020016040518091039020819055506006849080600181540180825580915050906001820390600052602060002001600090919290919091509080519060200190613ab5929190614bd8565b505050505050565b6060813373ffffffffffffffffffffffffffffffffffffffff16600860006009846040518082805190602001908083835b60208310613b115780518252602082019150602081019050602083039250613aee565b6001836020036101000a038019825116818451168082178552505050505050905001915050908152602001604051809103902054815260200190815260200160002060009054906101000a900473ffffffffffffffffffffffffffffffffffffffff1673ffffffffffffffffffffffffffffffffffffffff1614613b9457600080fd5b6060600a60006009866040518082805190602001908083835b60208310613bd05780518252602082019150602081019050602083039250613bad565b6001836020036101000a038019825116818451168082178552505050505050905001915050908152602001604051809103902054815260200190815260200160002080549050604051908082528060200260200182016040528015613c445781602001602082028038833980820191505090505b50905060008090505b600a60006009876040518082805190602001908083835b60208310613c875780518252602082019150602081019050602083039250613c64565b6001836020036101000a038019825116818451168082178552505050505050905001915050908152602001604051809103902054815260200190815260200160002080549050811015613dc75760006007600a60006009896040518082805190602001908083835b60208310613d125780518252602082019150602081019050602083039250613cef565b6001836020036101000a03801982511681845116808217855250505050505090500191505090815260200160405180910390205481526020019081526020016000208381548110613d5f57fe5b906000526020600020015481548110613d7457fe5b90600052602060002090600202016000015481548110613d9057fe5b906000526020600020906003020160020154828281518110613dae57fe5b6020026020010181815250508080600101915050613c4d565b508092505050919050565b6009818051602081018201805184825260208301602085012081835280955050505050506000915090505481565b60078181548110613e0d57fe5b90600052602060002090600202016000915090508060000154908060010154905082565b823373ffffffffffffffffffffffffffffffffffffffff16600860006009846040518082805190602001908083835b60208310613e835780518252602082019150602081019050602083039250613e60565b6001836020036101000a038019825116818451168082178552505050505050905001915050908152602001604051809103902054815260200190815260200160002060009054906101000a900473ffffffffffffffffffffffffffffffffffffffff1673ffffffffffffffffffffffffffffffffffffffff1614613f0657600080fd5b613f0f8361235b565b613f1857600080fd5b60001515613f27858585614307565b151514613f3357600080fd5b600061402c6002856040518082805190602001908083835b60208310613f6e5780518252602082019150602081019050602083039250613f4b565b6001836020036101000a038019825116818451168082178552505050505050905001915050908152602001604051809103902060016002876040518082805190602001908083835b60208310613fd95780518252602082019150602081019050602083039250613fb6565b6001836020036101000a038019825116818451168082178552505050505050905001915050908152602001604051809103902080549050038154811061401b57fe5b90600052602060002001548461285b565b90507fffffffffffffffffffffffffffffffffffffffffffffffffffffffffffffffff81146141065760006009866040518082805190602001908083835b6020831061408d578051825260208201915060208101905060208303925061406a565b6001836020036101000a0380198251168184511680821785525050505050509050019150509081526020016040518091039020549050600a600082815260200190815260200160002082908060018154018082558091505090600182039060005260206000200160009091929091909150555050614300565b60006001600760405180604001604052806002896040518082805190602001908083835b6020831061414d578051825260208201915060208101905060208303925061412a565b6001836020036101000a0380198251168184511680821785525050505050509050019150509081526020016040518091039020600160028b6040518082805190602001908083835b602083106141b85780518252602082019150602081019050602083039250614195565b6001836020036101000a03801982511681845116808217855250505050505090500191505090815260200160405180910390208054905003815481106141fa57fe5b9060005260206000200154815260200187815250908060018154018082558091505090600182039060005260206000209060020201600090919290919091506000820151816000015560208201518160010155505003905060006009876040518082805190602001908083835b6020831061428a5780518252602082019150602081019050602083039250614267565b6001836020036101000a0380198251168184511680821785525050505050509050019150509081526020016040518091039020549050600a600082815260200190815260200160002082908060018154018082558091505090600182039060005260206000200160009091929091909150555050505b5050505050565b6000833373ffffffffffffffffffffffffffffffffffffffff16600860006009846040518082805190602001908083835b6020831061435b5780518252602082019150602081019050602083039250614338565b6001836020036101000a038019825116818451168082178552505050505050905001915050908152602001604051809103902054815260200190815260200160002060009054906101000a900473ffffffffffffffffffffffffffffffffffffffff1673ffffffffffffffffffffffffffffffffffffffff16146143de57600080fd5b833373ffffffffffffffffffffffffffffffffffffffff166003826040518082805190602001908083835b6020831061442c5780518252602082019150602081019050602083039250614409565b6001836020036101000a038019825116818451168082178552505050505050905001915050908152602001604051809103902060009054906101000a900473ffffffffffffffffffffffffffffffffffffffff1673ffffffffffffffffffffffffffffffffffffffff1614806144a757506144a6816124f9565b5b6144b057600080fd5b60006009876040518082805190602001908083835b602083106144e857805182526020820191506020810190506020830392506144c5565b6001836020036101000a038019825116818451168082178552505050505050905001915050908152602001604051809103902054905060008090505b600a6000838152602001908152602001600020805490508110156146df576000600a6000848152602001908152602001600020828154811061456257fe5b9060005260206000200154905060008090505b6002896040518082805190602001908083835b602083106145ab5780518252602082019150602081019050602083039250614588565b6001836020036101000a0380198251168184511680821785525050505050509050019150509081526020016040518091039020805490508110156146d057600782815481106145f657fe5b90600052602060002090600202016000015460028a6040518082805190602001908083835b6020831061463e578051825260208201915060208101905060208303925061461b565b6001836020036101000a0380198251168184511680821785525050505050509050019150509081526020016040518091039020828154811061467c57fe5b90600052602060002001541480156146b15750876007838154811061469d57fe5b906000526020600020906002020160010154145b156146c35760019650505050506146e6565b8080600101915050614575565b50508080600101915050614524565b5060009350505b50509392505050565b606080600080853373ffffffffffffffffffffffffffffffffffffffff16600860006009846040518082805190602001908083835b602083106147475780518252602082019150602081019050602083039250614724565b6001836020036101000a038019825116818451168082178552505050505050905001915050908152602001604051809103902054815260200190815260200160002060009054906101000a900473ffffffffffffffffffffffffffffffffffffffff1673ffffffffffffffffffffffffffffffffffffffff16146147ca57600080fd5b6147d38661235b565b6147dc57600080fd5b60006009886040518082805190602001908083835b6020831061481457805182526020820191506020810190506020830392506147f1565b6001836020036101000a038019825116818451168082178552505050505050905001915050908152602001604051809103902054905060008090505b600a600083815260200190815260200160002080549050811015614adf5760006007600a6000858152602001908152602001600020838154811061489057fe5b9060005260206000200154815481106148a557fe5b906000526020600020906002020160000154905060008090505b60028a6040518082805190602001908083835b602083106148f557805182526020820191506020810190506020830392506148d2565b6001836020036101000a038019825116818451168082178552505050505050905001915050908152602001604051809103902080549050811015614ad0578160028b6040518082805190602001908083835b6020831061496a5780518252602082019150602081019050602083039250614947565b6001836020036101000a038019825116818451168082178552505050505050905001915050908152602001604051809103902082815481106149a857fe5b90600052602060002001541415614ac35789600083815481106149c757fe5b9060005260206000209060030201600001600084815481106149e557fe5b90600052602060002090600302016001015460008581548110614a0457fe5b906000526020600020906003020160020154828054600181600116156101000203166002900480601f016020809104026020016040519081016040528092919081815260200182805460018160011615610100020316600290048015614aab5780601f10614a8057610100808354040283529160200191614aab565b820191906000526020600020905b815481529060010190602001808311614a8e57829003601f168201915b50505050509250985098509850985050505050614b4e565b80806001019150506148bf565b50508080600101915050614850565b506040517f08c379a00000000000000000000000000000000000000000000000000000000081526004018080602001828103825260098152602001807f4e6f7420666f756e64000000000000000000000000000000000000000000000081525060200191505060405180910390fd5b5092959194509250565b828054600181600116156101000203166002900490600052602060002090601f016020900481019282601f10614b9957805160ff1916838001178555614bc7565b82800160010185558215614bc7579182015b82811115614bc6578251825591602001919060010190614bab565b5b509050614bd49190614c58565b5090565b828054600181600116156101000203166002900490600052602060002090601f016020900481019282601f10614c1957805160ff1916838001178555614c47565b82800160010185558215614c47579182015b82811115614c46578251825591602001919060010190614c2b565b5b509050614c549190614c58565b5090565b614c7a91905b80821115614c76576000816000905550600101614c5e565b5090565b9056fea265627a7a72315820c1904ea611ed5254104218a5c27dd1152fb0f0290b378f871fe0699ddd05aaf564736f6c63430005100032",
  "source": "pragma solidity >=0.5.0 <0.6.0;\r\nimport \"./ProductRepo.sol\";\r\n\r\ncontract BillRepo is ProductRepo{\r\n\r\n\r\n    struct BillEntry {\r\n        uint productIndex;\r\n        uint quantity;\r\n    }\r\n\r\n    struct Bill {\r\n        uint date; // in miliseconds from 1 January 1970\r\n        uint total; // again, multiplied by 100\r\n    }\r\n\r\n    Bill[] public bills;\r\n    string[] public orderIds;\r\n    BillEntry[] public entries;\r\n\r\n    mapping (uint => address) public billToOwner;\r\n    mapping (string => uint) public orderToBillId;\r\n    mapping (uint => uint[]) public billIdToEntryId;\r\n\r\n    modifier isOwner(string memory orderId) {\r\n        require(billToOwner[orderToBillId[orderId]] == msg.sender);\r\n        _;\r\n    }\r\n    function idExistsOrders(string memory id) public view returns (bool) {\r\n        for (uint index = 0; index < orderIds.length; index++) {\r\n            if (keccak256(abi.encodePacked(orderIds[index])) == keccak256(abi.encodePacked(id))) {\r\n                return true;\r\n            }\r\n        }\r\n        return false;\r\n    }\r\n\r\n    function entryDeployedInCurrentBill(string memory orderId, string memory productId, uint quantity) public  isOwner(orderId)  hasPermissions(productId) view returns(bool) {\r\n        uint billIndex = orderToBillId[orderId];\r\n        for (uint billEntryIndex = 0; billEntryIndex < billIdToEntryId[billIndex].length; billEntryIndex++) {\r\n            uint entryIndex = billIdToEntryId[billIndex][billEntryIndex];\r\n            for (uint product = 0; product < idToProducts[productId].length; product++) {\r\n                if (idToProducts[productId][product] == entries[entryIndex].productIndex &&\r\n                    entries[entryIndex].quantity == quantity) {\r\n                    return true;\r\n                }\r\n            }\r\n        }\r\n        return false;\r\n    }\r\n\r\n    function entryExists(uint prodIndex, uint quantity) public view returns (int) {\r\n        for (int index = 0; uint(index) < entries.length; index++) {\r\n            if (entries[uint(index)].productIndex == prodIndex && entries[uint(index)].quantity == quantity) {\r\n                return index;\r\n            }\r\n        }\r\n        return -1;\r\n    }\r\n\r\n\r\n    // require order id not exist\r\n    function createBill(string memory orderId, uint date, uint total) public {\r\n        require(idExistsOrders(orderId) == false);\r\n        uint id = bills.push(Bill(date, total)) - 1;\r\n        billToOwner[id] = msg.sender;\r\n        orderToBillId[orderId] = id;\r\n        orderIds.push(orderId);\r\n    }\r\n\r\n    // check if entry exists, if so, reuse it\r\n    function addEntry(string memory orderId,  string memory productId, uint quantity) public isOwner(orderId) {\r\n        require(idExists(productId));\r\n        require(entryDeployedInCurrentBill(orderId, productId, quantity) == false);\r\n        int index = entryExists(idToProducts[productId][idToProducts[productId].length - 1], quantity);\r\n        if (index != -1) {\r\n            uint billIndex = orderToBillId[orderId];\r\n            billIdToEntryId[billIndex].push(uint(index));\r\n        }\r\n        else {\r\n            uint entryIndex = entries.push(BillEntry(idToProducts[productId][idToProducts[productId].length - 1], quantity)) - 1;\r\n            uint billIndex = orderToBillId[orderId];\r\n            billIdToEntryId[billIndex].push(entryIndex);\r\n        }\r\n    }\r\n\r\n    function getBillByOrderId(string memory orderId) public isOwner(orderId) view returns (uint, uint) {\r\n        return (bills[orderToBillId[orderId]].date, bills[orderToBillId[orderId]].total);\r\n    }\r\n\r\n\r\n    function getProductForEntry(string memory orderId, string memory productId) public isOwner(orderId) view returns(string memory, string memory, uint, uint) {\r\n        require(idExists(productId));\r\n        uint billIndex = orderToBillId[orderId];\r\n        for (uint iterator = 0; iterator < billIdToEntryId[billIndex].length; iterator++) {\r\n            uint currentIndex = entries[billIdToEntryId[billIndex][iterator]].productIndex;\r\n            for(uint index = 0; index < idToProducts[productId].length; index++) {\r\n                if (idToProducts[productId][index] == currentIndex) {\r\n                    return (\r\n                    productId,\r\n                    products[currentIndex].name,\r\n                    products[currentIndex].VAT,\r\n                    products[currentIndex].priceWithVAT);\r\n                }\r\n            }\r\n        }\r\n        revert('Not found');\r\n\r\n    }\r\n\r\n    function getProductNameForEntry(string memory orderId, uint entryNumber) public isOwner(orderId) view returns (string memory) {\r\n        return products[entries[billIdToEntryId[orderToBillId[orderId]][entryNumber]].productIndex].name;\r\n    }\r\n\r\n    function getVATsByOrderId(string memory orderId) public isOwner(orderId) view returns (uint[] memory) {\r\n        uint[] memory VATs = new uint[](billIdToEntryId[orderToBillId[orderId]].length);\r\n        for (uint i = 0; i < billIdToEntryId[orderToBillId[orderId]].length; i++) {\r\n            VATs[i] = products[entries[billIdToEntryId[orderToBillId[orderId]][i]].productIndex].VAT;\r\n        }\r\n        return VATs;\r\n    }\r\n\r\n    function getPricesByOrderId(string memory orderId) public isOwner(orderId) view returns (uint[] memory) {\r\n        uint[] memory prices = new uint[](billIdToEntryId[orderToBillId[orderId]].length);\r\n        for (uint i = 0; i < billIdToEntryId[orderToBillId[orderId]].length; i++) {\r\n            prices[i] = products[entries[billIdToEntryId[orderToBillId[orderId]][i]].productIndex].priceWithVAT;\r\n        }\r\n        return prices;\r\n    }\r\n\r\n    function getQuantitiesByOrderId(string memory orderId) public isOwner(orderId) view returns (uint[] memory) {\r\n        uint[] memory quantities = new uint[](billIdToEntryId[orderToBillId[orderId]].length);\r\n        for (uint i = 0; i < billIdToEntryId[orderToBillId[orderId]].length; i++) {\r\n            quantities[i] = entries[billIdToEntryId[orderToBillId[orderId]][i]].quantity;\r\n        }\r\n        return quantities;\r\n    }\r\n\r\n}\r\n",
  "sourcePath": "H:\\Faculta\\Licenta\\webshop\\Licenta\\blockchain\\contracts\\BillRepo.sol",
  "compiler": {
    "name": "solc",
    "version": "0.5.16+commit.9c3226ce.Emscripten.clang"
  },
  "schemaVersion": "3.4.7",
  "updatedAt": "2022-06-07T15:55:21.965Z",
  "devdoc": {
    "methods": {}
  },
  "userdoc": {
    "methods": {}
  }
}