{
  "contractName": "Demo",
  "abi": [
    {
      "constant": true,
      "inputs": [],
      "name": "count",
      "outputs": [
        {
          "internalType": "uint256",
          "name": "",
          "type": "uint256"
        }
      ],
      "payable": false,
      "stateMutability": "view",
      "type": "function"
    },
    {
      "constant": false,
      "inputs": [],
      "name": "getCounter",
      "outputs": [
        {
          "internalType": "uint256",
          "name": "",
          "type": "uint256"
        }
      ],
      "payable": false,
      "stateMutability": "nonpayable",
      "type": "function"
    },
    {
      "constant": false,
      "inputs": [],
      "name": "inc",
      "outputs": [],
      "payable": false,
      "stateMutability": "nonpayable",
      "type": "function"
    },
    {
      "constant": false,
      "inputs": [],
      "name": "dec",
      "outputs": [],
      "payable": false,
      "stateMutability": "nonpayable",
      "type": "function"
    }
  ],
  "bytecode": "0x6080604052601460005534801561001557600080fd5b5060fb806100246000396000f3fe6080604052348015600f57600080fd5b506004361060465760003560e01c806306661abd14604b578063371303c01460675780638ada066e14606f578063b3bcfa8214608b575b600080fd5b60516093565b6040518082815260200191505060405180910390f35b606d6099565b005b607560ab565b6040518082815260200191505060405180910390f35b609160b4565b005b60005481565b60016000808282540192505081905550565b60008054905090565b6001600080828254039250508190555056fea265627a7a72315820d4281828f6fcabd472a5eff54a784b88c5aa66b3e14b0ab2a79c8eb6969bff0364736f6c63430005100032",
  "source": "pragma solidity >=0.4.22 <0.9.0;\n\ncontract Demo {\n\tuint public count = 20;\n\n\t// Function to get the current count\n\tfunction getCounter() public returns (uint) {\n\t\treturn count;\n\t}\n\n\t// Function to increment count by 1\n\tfunction inc() public {\n\t\tcount += 1;\n\t}\n\n\t// Function to decrement count by 1\n\tfunction dec() public {\n\t\t// This function will fail if count = 0\n\t\tcount -= 1;\n\t}\n}",
  "sourcePath": "H:\\Faculta\\Licenta\\webshop\\Licenta\\blockchain\\contracts\\Demo.sol",
  "compiler": {
    "name": "solc",
    "version": "0.5.16+commit.9c3226ce.Emscripten.clang"
  },
  "schemaVersion": "3.4.7",
  "updatedAt": "2022-05-19T16:49:18.033Z",
  "devdoc": {
    "methods": {}
  },
  "userdoc": {
    "methods": {}
  }
}