{
  "contractName": "ProductRepo",
  "abi": [
    {
      "constant": true,
      "inputs": [
        {
          "internalType": "string",
          "name": "",
          "type": "string"
        }
      ],
      "name": "productToOwner",
      "outputs": [
        {
          "internalType": "address",
          "name": "",
          "type": "address"
        }
      ],
      "payable": false,
      "stateMutability": "view",
      "type": "function"
    },
    {
      "constant": true,
      "inputs": [
        {
          "internalType": "uint256",
          "name": "",
          "type": "uint256"
        }
      ],
      "name": "products",
      "outputs": [
        {
          "internalType": "string",
          "name": "name",
          "type": "string"
        },
        {
          "internalType": "uint256",
          "name": "VAT",
          "type": "uint256"
        },
        {
          "internalType": "uint256",
          "name": "priceWithVAT",
          "type": "uint256"
        }
      ],
      "payable": false,
      "stateMutability": "view",
      "type": "function"
    },
    {
      "constant": false,
      "inputs": [
        {
          "internalType": "string",
          "name": "id",
          "type": "string"
        }
      ],
      "name": "productAdded",
      "outputs": [
        {
          "internalType": "bool",
          "name": "",
          "type": "bool"
        }
      ],
      "payable": false,
      "stateMutability": "nonpayable",
      "type": "function"
    },
    {
      "constant": false,
      "inputs": [
        {
          "internalType": "string",
          "name": "id",
          "type": "string"
        },
        {
          "internalType": "string",
          "name": "name",
          "type": "string"
        },
        {
          "internalType": "uint256",
          "name": "totalPrice",
          "type": "uint256"
        },
        {
          "internalType": "uint256",
          "name": "VAT",
          "type": "uint256"
        }
      ],
      "name": "addProduct",
      "outputs": [],
      "payable": false,
      "stateMutability": "nonpayable",
      "type": "function"
    },
    {
      "constant": false,
      "inputs": [
        {
          "internalType": "string",
          "name": "id",
          "type": "string"
        },
        {
          "internalType": "string",
          "name": "name",
          "type": "string"
        }
      ],
      "name": "setName",
      "outputs": [],
      "payable": false,
      "stateMutability": "nonpayable",
      "type": "function"
    },
    {
      "constant": false,
      "inputs": [
        {
          "internalType": "string",
          "name": "id",
          "type": "string"
        },
        {
          "internalType": "uint256",
          "name": "totalPrice",
          "type": "uint256"
        }
      ],
      "name": "setPrice",
      "outputs": [],
      "payable": false,
      "stateMutability": "nonpayable",
      "type": "function"
    },
    {
      "constant": false,
      "inputs": [
        {
          "internalType": "string",
          "name": "id",
          "type": "string"
        },
        {
          "internalType": "uint256",
          "name": "VAT",
          "type": "uint256"
        }
      ],
      "name": "setVAT",
      "outputs": [],
      "payable": false,
      "stateMutability": "nonpayable",
      "type": "function"
    },
    {
      "constant": true,
      "inputs": [
        {
          "internalType": "string",
          "name": "id",
          "type": "string"
        }
      ],
      "name": "getProduct",
      "outputs": [
        {
          "internalType": "string",
          "name": "",
          "type": "string"
        },
        {
          "internalType": "string",
          "name": "",
          "type": "string"
        },
        {
          "internalType": "uint256",
          "name": "",
          "type": "uint256"
        },
        {
          "internalType": "uint256",
          "name": "",
          "type": "uint256"
        }
      ],
      "payable": false,
      "stateMutability": "view",
      "type": "function"
    }
  ],
  "bytecode": "0x608060405234801561001057600080fd5b506112e8806100206000396000f3fe608060405234801561001057600080fd5b50600436106100885760003560e01c80635c707f071161005b5780635c707f071461047857806368111cce146105ca57806370e80e57146107785780637acc0b201461084b57610088565b806301cecd141461008d5780630b3d1322146101f357806322e01192146102b8578063426ed70e1461037d575b600080fd5b6101f1600480360360808110156100a357600080fd5b81019080803590602001906401000000008111156100c057600080fd5b8201836020820111156100d257600080fd5b803590602001918460018302840111640100000000831117156100f457600080fd5b91908080601f016020809104026020016040519081016040528093929190818152602001838380828437600081840152601f19601f8201169050808301925050505050505091929192908035906020019064010000000081111561015757600080fd5b82018360208201111561016957600080fd5b8035906020019184600183028401116401000000008311171561018b57600080fd5b91908080601f016020809104026020016040519081016040528093929190818152602001838380828437600081840152601f19601f8201169050808301925050505050505091929192908035906020019092919080359060200190929190505050610900565b005b6102b66004803603604081101561020957600080fd5b810190808035906020019064010000000081111561022657600080fd5b82018360208201111561023857600080fd5b8035906020019184600183028401116401000000008311171561025a57600080fd5b91908080601f016020809104026020016040519081016040528093929190818152602001838380828437600081840152601f19601f82011690508083019250505050505050919291929080359060200190929190505050610c0d565b005b61037b600480360360408110156102ce57600080fd5b81019080803590602001906401000000008111156102eb57600080fd5b8201836020820111156102fd57600080fd5b8035906020019184600183028401116401000000008311171561031f57600080fd5b91908080601f016020809104026020016040519081016040528093929190818152602001838380828437600081840152601f19601f82011690508083019250505050505050919291929080359060200190929190505050610c82565b005b6104366004803603602081101561039357600080fd5b81019080803590602001906401000000008111156103b057600080fd5b8201836020820111156103c257600080fd5b803590602001918460018302840111640100000000831117156103e457600080fd5b91908080601f016020809104026020016040519081016040528093929190818152602001838380828437600081840152601f19601f820116905080830192505050505050509192919290505050610cf7565b604051808273ffffffffffffffffffffffffffffffffffffffff1673ffffffffffffffffffffffffffffffffffffffff16815260200191505060405180910390f35b6105c86004803603604081101561048e57600080fd5b81019080803590602001906401000000008111156104ab57600080fd5b8201836020820111156104bd57600080fd5b803590602001918460018302840111640100000000831117156104df57600080fd5b91908080601f016020809104026020016040519081016040528093929190818152602001838380828437600081840152601f19601f8201169050808301925050505050505091929192908035906020019064010000000081111561054257600080fd5b82018360208201111561055457600080fd5b8035906020019184600183028401116401000000008311171561057657600080fd5b91908080601f016020809104026020016040519081016040528093929190818152602001838380828437600081840152601f19601f820116905080830192505050505050509192919290505050610d40565b005b610683600480360360208110156105e057600080fd5b81019080803590602001906401000000008111156105fd57600080fd5b82018360208201111561060f57600080fd5b8035906020019184600183028401116401000000008311171561063157600080fd5b91908080601f016020809104026020016040519081016040528093929190818152602001838380828437600081840152601f19601f820116905080830192505050505050509192919290505050610dc5565b604051808060200180602001858152602001848152602001838103835287818151815260200191508051906020019080838360005b838110156106d35780820151818401526020810190506106b8565b50505050905090810190601f1680156107005780820380516001836020036101000a031916815260200191505b50838103825286818151815260200191508051906020019080838360005b8381101561073957808201518184015260208101905061071e565b50505050905090810190601f1680156107665780820380516001836020036101000a031916815260200191505b50965050505050505060405180910390f35b6108316004803603602081101561078e57600080fd5b81019080803590602001906401000000008111156107ab57600080fd5b8201836020820111156107bd57600080fd5b803590602001918460018302840111640100000000831117156107df57600080fd5b91908080601f016020809104026020016040519081016040528093929190818152602001838380828437600081840152601f19601f820116905080830192505050505050509192919290505050611037565b604051808215151515815260200191505060405180910390f35b6108776004803603602081101561086157600080fd5b81019080803590602001909291905050506110bf565b6040518080602001848152602001838152602001828103825285818151815260200191508051906020019080838360005b838110156108c35780820151818401526020810190506108a8565b50505050905090810190601f1680156108f05780820380516001836020036101000a031916815260200191505b5094505050505060405180910390f35b60006001856040518082805190602001908083835b602083106109385780518252602082019150602081019050602083039250610915565b6001836020036101000a0380198251168184511680821785525050505050509050019150509081526020016040518091039020600201541461097957600080fd5b6000600160006040518060600160405280878152602001858152602001868152509080600181540180825580915050906001820390600052602060002090600302016000909192909190915060008201518160000190805190602001906109e192919061118e565b5060208201518160010155604082015181600201555050039050836001866040518082805190602001908083835b60208310610a325780518252602082019150602081019050602083039250610a0f565b6001836020036101000a03801982511681845116808217855250505050505090500191505090815260200160405180910390206000019080519060200190610a7b92919061120e565b50816001866040518082805190602001908083835b60208310610ab35780518252602082019150602081019050602083039250610a90565b6001836020036101000a038019825116818451168082178552505050505050905001915050908152602001604051809103902060010181905550826001866040518082805190602001908083835b60208310610b245780518252602082019150602081019050602083039250610b01565b6001836020036101000a038019825116818451168082178552505050505050905001915050908152602001604051809103902060020181905550336002866040518082805190602001908083835b60208310610b955780518252602082019150602081019050602083039250610b72565b6001836020036101000a038019825116818451168082178552505050505050905001915050908152602001604051809103902060006101000a81548173ffffffffffffffffffffffffffffffffffffffff021916908373ffffffffffffffffffffffffffffffffffffffff1602179055505050505050565b806001836040518082805190602001908083835b60208310610c445780518252602082019150602081019050602083039250610c21565b6001836020036101000a0380198251168184511680821785525050505050509050019150509081526020016040518091039020600101819055505050565b806001836040518082805190602001908083835b60208310610cb95780518252602082019150602081019050602083039250610c96565b6001836020036101000a0380198251168184511680821785525050505050509050019150509081526020016040518091039020600201819055505050565b6002818051602081018201805184825260208301602085012081835280955050505050506000915054906101000a900473ffffffffffffffffffffffffffffffffffffffff1681565b806001836040518082805190602001908083835b60208310610d775780518252602082019150602081019050602083039250610d54565b6001836020036101000a03801982511681845116808217855250505050505090500191505090815260200160405180910390206000019080519060200190610dc092919061120e565b505050565b60608060008060006001866040518082805190602001908083835b60208310610e035780518252602082019150602081019050602083039250610de0565b6001836020036101000a0380198251168184511680821785525050505050509050019150509081526020016040518091039020600201541415610e4557600080fd5b846001866040518082805190602001908083835b60208310610e7c5780518252602082019150602081019050602083039250610e59565b6001836020036101000a03801982511681845116808217855250505050505090500191505090815260200160405180910390206000016001876040518082805190602001908083835b60208310610ee85780518252602082019150602081019050602083039250610ec5565b6001836020036101000a0380198251168184511680821785525050505050509050019150509081526020016040518091039020600101546001886040518082805190602001908083835b60208310610f555780518252602082019150602081019050602083039250610f32565b6001836020036101000a038019825116818451168082178552505050505050905001915050908152602001604051809103902060020154828054600181600116156101000203166002900480601f0160208091040260200160405190810160405280929190818152602001828054600181600116156101000203166002900480156110215780601f10610ff657610100808354040283529160200191611021565b820191906000526020600020905b81548152906001019060200180831161100457829003601f168201915b5050505050925093509350935093509193509193565b6000806001836040518082805190602001908083835b60208310611070578051825260208201915060208101905060208303925061104d565b6001836020036101000a038019825116818451168082178552505050505050905001915050908152602001604051809103902060020154146110b557600190506110ba565b600090505b919050565b600081815481106110cc57fe5b9060005260206000209060030201600091509050806000018054600181600116156101000203166002900480601f0160208091040260200160405190810160405280929190818152602001828054600181600116156101000203166002900480156111785780601f1061114d57610100808354040283529160200191611178565b820191906000526020600020905b81548152906001019060200180831161115b57829003601f168201915b5050505050908060010154908060020154905083565b828054600181600116156101000203166002900490600052602060002090601f016020900481019282601f106111cf57805160ff19168380011785556111fd565b828001600101855582156111fd579182015b828111156111fc5782518255916020019190600101906111e1565b5b50905061120a919061128e565b5090565b828054600181600116156101000203166002900490600052602060002090601f016020900481019282601f1061124f57805160ff191683800117855561127d565b8280016001018555821561127d579182015b8281111561127c578251825591602001919060010190611261565b5b50905061128a919061128e565b5090565b6112b091905b808211156112ac576000816000905550600101611294565b5090565b9056fea265627a7a723158209da9df307712d5c43d8155d531f6af2770583eb75244f2b081186e71537701fd64736f6c63430005100032",
  "source": "pragma solidity >=0.5.0 <0.6.0;\r\n\r\ncontract ProductRepo {\r\n    struct Product {\r\n        string name;\r\n        uint VAT;  // 24% e 24\r\n        uint priceWithVAT; // all prices are * 100, no decimals\r\n    }\r\n\r\n    Product[] public products;\r\n\r\n    mapping (string => Product) idToProduct;\r\n    mapping (string => address) public productToOwner;\r\n\r\n    function productAdded(string memory id) public returns (bool) {\r\n        if (idToProduct[id].priceWithVAT != 0) {\r\n            return true;\r\n        }\r\n        return false;\r\n    }\r\n\r\n    function addProduct(string memory id, string memory name, uint totalPrice, uint VAT) public {\r\n        require(idToProduct[id].priceWithVAT == 0);\r\n        uint index = products.push(Product(name, VAT, totalPrice)) - 1;\r\n        idToProduct[id].name = name;\r\n        idToProduct[id].VAT = VAT;\r\n        idToProduct[id].priceWithVAT = totalPrice;\r\n        productToOwner[id] = msg.sender;\r\n    }\r\n\r\n    function setName(string memory id, string memory name) public {\r\n        idToProduct[id].name = name;\r\n    }\r\n\r\n    function setPrice(string memory id, uint totalPrice) public {\r\n        idToProduct[id].priceWithVAT = totalPrice;\r\n    }\r\n\r\n    function setVAT(string memory id, uint VAT) public {\r\n        idToProduct[id].VAT = VAT;\r\n    }\r\n\r\n    function getProduct(string memory id) public view returns(string memory, string memory, uint, uint) {\r\n        require(idToProduct[id].priceWithVAT != 0);\r\n        return (id, idToProduct[id].name, idToProduct[id].VAT, idToProduct[id].priceWithVAT);\r\n    }\r\n}\r\n",
  "sourcePath": "H:\\Faculta\\Licenta\\webshop\\Licenta\\blockchain\\contracts\\ProductRepo.sol",
  "compiler": {
    "name": "solc",
    "version": "0.5.16+commit.9c3226ce.Emscripten.clang"
  },
  "schemaVersion": "3.4.7",
  "updatedAt": "2022-05-19T16:49:18.035Z",
  "devdoc": {
    "methods": {}
  },
  "userdoc": {
    "methods": {}
  }
}