{
  "contractName": "ProductRepo",
  "abi": [
    {
      "constant": true,
      "inputs": [
        {
          "internalType": "string",
          "name": "",
          "type": "string"
        }
      ],
      "name": "productToOwner",
      "outputs": [
        {
          "internalType": "address",
          "name": "",
          "type": "address"
        }
      ],
      "payable": false,
      "stateMutability": "view",
      "type": "function"
    },
    {
      "constant": true,
      "inputs": [
        {
          "internalType": "uint256",
          "name": "",
          "type": "uint256"
        }
      ],
      "name": "products",
      "outputs": [
        {
          "internalType": "string",
          "name": "name",
          "type": "string"
        },
        {
          "internalType": "uint256",
          "name": "VAT",
          "type": "uint256"
        },
        {
          "internalType": "uint256",
          "name": "priceWithVAT",
          "type": "uint256"
        }
      ],
      "payable": false,
      "stateMutability": "view",
      "type": "function"
    },
    {
      "constant": true,
      "inputs": [
        {
          "internalType": "string",
          "name": "id",
          "type": "string"
        }
      ],
      "name": "idExists",
      "outputs": [
        {
          "internalType": "bool",
          "name": "",
          "type": "bool"
        }
      ],
      "payable": false,
      "stateMutability": "view",
      "type": "function"
    },
    {
      "constant": true,
      "inputs": [
        {
          "internalType": "string",
          "name": "id",
          "type": "string"
        },
        {
          "internalType": "string",
          "name": "name",
          "type": "string"
        },
        {
          "internalType": "uint256",
          "name": "totalPrice",
          "type": "uint256"
        },
        {
          "internalType": "uint256",
          "name": "VAT",
          "type": "uint256"
        }
      ],
      "name": "productAdded",
      "outputs": [
        {
          "internalType": "bool",
          "name": "",
          "type": "bool"
        }
      ],
      "payable": false,
      "stateMutability": "view",
      "type": "function"
    },
    {
      "constant": false,
      "inputs": [
        {
          "internalType": "string",
          "name": "id",
          "type": "string"
        },
        {
          "internalType": "string",
          "name": "name",
          "type": "string"
        },
        {
          "internalType": "uint256",
          "name": "totalPrice",
          "type": "uint256"
        },
        {
          "internalType": "uint256",
          "name": "VAT",
          "type": "uint256"
        }
      ],
      "name": "addProduct",
      "outputs": [],
      "payable": false,
      "stateMutability": "nonpayable",
      "type": "function"
    },
    {
      "constant": true,
      "inputs": [
        {
          "internalType": "string",
          "name": "id",
          "type": "string"
        }
      ],
      "name": "getProduct",
      "outputs": [
        {
          "internalType": "string",
          "name": "",
          "type": "string"
        },
        {
          "internalType": "string",
          "name": "",
          "type": "string"
        },
        {
          "internalType": "uint256",
          "name": "",
          "type": "uint256"
        },
        {
          "internalType": "uint256",
          "name": "",
          "type": "uint256"
        }
      ],
      "payable": false,
      "stateMutability": "view",
      "type": "function"
    }
  ],
  "bytecode": "0x608060405234801561001057600080fd5b506116b1806100206000396000f3fe608060405234801561001057600080fd5b50600436106100625760003560e01c806301cecd141461006757806326638e86146101cd578063426ed70e146102a057806368111cce1461039b57806373b0404c146105495780637acc0b20146106c7575b600080fd5b6101cb6004803603608081101561007d57600080fd5b810190808035906020019064010000000081111561009a57600080fd5b8201836020820111156100ac57600080fd5b803590602001918460018302840111640100000000831117156100ce57600080fd5b91908080601f016020809104026020016040519081016040528093929190818152602001838380828437600081840152601f19601f8201169050808301925050505050505091929192908035906020019064010000000081111561013157600080fd5b82018360208201111561014357600080fd5b8035906020019184600183028401116401000000008311171561016557600080fd5b91908080601f016020809104026020016040519081016040528093929190818152602001838380828437600081840152601f19601f820116905080830192505050505050509192919290803590602001909291908035906020019092919050505061077c565b005b610286600480360360208110156101e357600080fd5b810190808035906020019064010000000081111561020057600080fd5b82018360208201111561021257600080fd5b8035906020019184600183028401116401000000008311171561023457600080fd5b91908080601f016020809104026020016040519081016040528093929190818152602001838380828437600081840152601f19601f820116905080830192505050505050509192919290505050610b18565b604051808215151515815260200191505060405180910390f35b610359600480360360208110156102b657600080fd5b81019080803590602001906401000000008111156102d357600080fd5b8201836020820111156102e557600080fd5b8035906020019184600183028401116401000000008311171561030757600080fd5b91908080601f016020809104026020016040519081016040528093929190818152602001838380828437600081840152601f19601f820116905080830192505050505050509192919290505050610c57565b604051808273ffffffffffffffffffffffffffffffffffffffff1673ffffffffffffffffffffffffffffffffffffffff16815260200191505060405180910390f35b610454600480360360208110156103b157600080fd5b81019080803590602001906401000000008111156103ce57600080fd5b8201836020820111156103e057600080fd5b8035906020019184600183028401116401000000008311171561040257600080fd5b91908080601f016020809104026020016040519081016040528093929190818152602001838380828437600081840152601f19601f820116905080830192505050505050509192919290505050610ca0565b604051808060200180602001858152602001848152602001838103835287818151815260200191508051906020019080838360005b838110156104a4578082015181840152602081019050610489565b50505050905090810190601f1680156104d15780820380516001836020036101000a031916815260200191505b50838103825286818151815260200191508051906020019080838360005b8381101561050a5780820151818401526020810190506104ef565b50505050905090810190601f1680156105375780820380516001836020036101000a031916815260200191505b50965050505050505060405180910390f35b6106ad6004803603608081101561055f57600080fd5b810190808035906020019064010000000081111561057c57600080fd5b82018360208201111561058e57600080fd5b803590602001918460018302840111640100000000831117156105b057600080fd5b91908080601f016020809104026020016040519081016040528093929190818152602001838380828437600081840152601f19601f8201169050808301925050505050505091929192908035906020019064010000000081111561061357600080fd5b82018360208201111561062557600080fd5b8035906020019184600183028401116401000000008311171561064757600080fd5b91908080601f016020809104026020016040519081016040528093929190818152602001838380828437600081840152601f19601f82011690508083019250505050505050919291929080359060200190929190803590602001909291905050506110ef565b604051808215151515815260200191505060405180910390f35b6106f3600480360360208110156106dd57600080fd5b8101908080359060200190929190505050611488565b6040518080602001848152602001838152602001828103825285818151815260200191508051906020019080838360005b8381101561073f578082015181840152602081019050610724565b50505050905090810190601f16801561076c5780820380516001836020036101000a031916815260200191505b5094505050505060405180910390f35b6000151561078c858585856110ef565b15151461079857600080fd5b6107a184610b18565b1561086c573373ffffffffffffffffffffffffffffffffffffffff166003856040518082805190602001908083835b602083106107f357805182526020820191506020810190506020830392506107d0565b6001836020036101000a038019825116818451168082178552505050505050905001915050908152602001604051809103902060009054906101000a900473ffffffffffffffffffffffffffffffffffffffff1673ffffffffffffffffffffffffffffffffffffffff161461086757600080fd5b610915565b336003856040518082805190602001908083835b602083106108a35780518252602082019150602081019050602083039250610880565b6001836020036101000a038019825116818451168082178552505050505050905001915050908152602001604051809103902060006101000a81548173ffffffffffffffffffffffffffffffffffffffff021916908373ffffffffffffffffffffffffffffffffffffffff1602179055505b60006001600060405180606001604052808781526020018581526020018681525090806001815401808255809150509060018203906000526020600020906003020160009091929091909150600082015181600001908051906020019061097d929190611557565b50602082015181600101556040820151816002015550500390506002856040518082805190602001908083835b602083106109cd57805182526020820191506020810190506020830392506109aa565b6001836020036101000a03801982511681845116808217855250505050505090500191505090815260200160405180910390208190806001815401808255809150509060018203906000526020600020016000909192909190915055506001859080600181540180825580915050906001820390600052602060002001600090919290919091509080519060200190610a679291906115d7565b5050336003866040518082805190602001908083835b60208310610aa05780518252602082019150602081019050602083039250610a7d565b6001836020036101000a038019825116818451168082178552505050505050905001915050908152602001604051809103902060006101000a81548173ffffffffffffffffffffffffffffffffffffffff021916908373ffffffffffffffffffffffffffffffffffffffff1602179055505050505050565b600080600090505b600180549050811015610c4c57826040516020018082805190602001908083835b60208310610b645780518252602082019150602081019050602083039250610b41565b6001836020036101000a0380198251168184511680821785525050505050509050019150506040516020818303038152906040528051906020012060018281548110610bac57fe5b906000526020600020016040516020018082805460018160011615610100020316600290048015610c145780601f10610bf2576101008083540402835291820191610c14565b820191906000526020600020905b815481529060010190602001808311610c00575b5050915050604051602081830303815290604052805190602001201415610c3f576001915050610c52565b8080600101915050610b20565b50600090505b919050565b6003818051602081018201805184825260208301602085012081835280955050505050506000915054906101000a900473ffffffffffffffffffffffffffffffffffffffff1681565b60608060008060006002866040518082805190602001908083835b60208310610cde5780518252602082019150602081019050602083039250610cbb565b6001836020036101000a0380198251168184511680821785525050505050509050019150509081526020016040518091039020805490501415610d2057600080fd5b8460006002876040518082805190602001908083835b60208310610d595780518252602082019150602081019050602083039250610d36565b6001836020036101000a038019825116818451168082178552505050505050905001915050908152602001604051809103902060016002896040518082805190602001908083835b60208310610dc45780518252602082019150602081019050602083039250610da1565b6001836020036101000a0380198251168184511680821785525050505050509050019150509081526020016040518091039020805490500381548110610e0657fe5b906000526020600020015481548110610e1b57fe5b906000526020600020906003020160000160006002886040518082805190602001908083835b60208310610e645780518252602082019150602081019050602083039250610e41565b6001836020036101000a0380198251168184511680821785525050505050509050019150509081526020016040518091039020600160028a6040518082805190602001908083835b60208310610ecf5780518252602082019150602081019050602083039250610eac565b6001836020036101000a0380198251168184511680821785525050505050509050019150509081526020016040518091039020805490500381548110610f1157fe5b906000526020600020015481548110610f2657fe5b90600052602060002090600302016001015460006002896040518082805190602001908083835b60208310610f705780518252602082019150602081019050602083039250610f4d565b6001836020036101000a0380198251168184511680821785525050505050509050019150509081526020016040518091039020600160028b6040518082805190602001908083835b60208310610fdb5780518252602082019150602081019050602083039250610fb8565b6001836020036101000a038019825116818451168082178552505050505050905001915050908152602001604051809103902080549050038154811061101d57fe5b90600052602060002001548154811061103257fe5b906000526020600020906003020160020154828054600181600116156101000203166002900480601f0160208091040260200160405190810160405280929190818152602001828054600181600116156101000203166002900480156110d95780601f106110ae576101008083540402835291602001916110d9565b820191906000526020600020905b8154815290600101906020018083116110bc57829003601f168201915b5050505050925093509350935093509193509193565b60008015156110fd86610b18565b1515141561110e5760009050611480565b60008090505b6002866040518082805190602001908083835b6020831061114a5780518252602082019150602081019050602083039250611127565b6001836020036101000a03801982511681845116808217855250505050505090500191505090815260200160405180910390208054905081101561147a57846040516020018082805190602001908083835b602083106111bf578051825260208201915060208101905060208303925061119c565b6001836020036101000a0380198251168184511680821785525050505050509050019150506040516020818303038152906040528051906020012060006002886040518082805190602001908083835b60208310611232578051825260208201915060208101905060208303925061120f565b6001836020036101000a0380198251168184511680821785525050505050509050019150509081526020016040518091039020838154811061127057fe5b90600052602060002001548154811061128557fe5b906000526020600020906003020160000160405160200180828054600181600116156101000203166002900480156112f45780601f106112d25761010080835404028352918201916112f4565b820191906000526020600020905b8154815290600101906020018083116112e0575b5050915050604051602081830303815290604052805190602001201480156113b757508360006002886040518082805190602001908083835b60208310611350578051825260208201915060208101905060208303925061132d565b6001836020036101000a0380198251168184511680821785525050505050509050019150509081526020016040518091039020838154811061138e57fe5b9060005260206000200154815481106113a357fe5b906000526020600020906003020160020154145b801561145e57508260006002886040518082805190602001908083835b602083106113f757805182526020820191506020810190506020830392506113d4565b6001836020036101000a0380198251168184511680821785525050505050509050019150509081526020016040518091039020838154811061143557fe5b90600052602060002001548154811061144a57fe5b906000526020600020906003020160010154145b1561146d576001915050611480565b8080600101915050611114565b50600090505b949350505050565b6000818154811061149557fe5b9060005260206000209060030201600091509050806000018054600181600116156101000203166002900480601f0160208091040260200160405190810160405280929190818152602001828054600181600116156101000203166002900480156115415780601f1061151657610100808354040283529160200191611541565b820191906000526020600020905b81548152906001019060200180831161152457829003601f168201915b5050505050908060010154908060020154905083565b828054600181600116156101000203166002900490600052602060002090601f016020900481019282601f1061159857805160ff19168380011785556115c6565b828001600101855582156115c6579182015b828111156115c55782518255916020019190600101906115aa565b5b5090506115d39190611657565b5090565b828054600181600116156101000203166002900490600052602060002090601f016020900481019282601f1061161857805160ff1916838001178555611646565b82800160010185558215611646579182015b8281111561164557825182559160200191906001019061162a565b5b5090506116539190611657565b5090565b61167991905b8082111561167557600081600090555060010161165d565b5090565b9056fea265627a7a72315820447ca3f8872ecba7dfcbd2853251f5d0801eee4cf20b384e08e466d70552347664736f6c63430005100032",
  "source": "pragma solidity >=0.5.0 <0.6.0;\r\n\r\ncontract ProductRepo {\r\n    struct Product {\r\n        string name;\r\n        uint VAT;  // 24% e 24\r\n        uint priceWithVAT; // all prices are * 100, no decimals\r\n    }\r\n\r\n    Product[] public products;\r\n    string[] internal ids;\r\n\r\n    mapping (string => uint[]) idToProducts;\r\n    mapping (string => address) public productToOwner;\r\n\r\n    function idExists(string memory id) public view returns (bool) {\r\n        for (uint index = 0; index < ids.length; index++) {\r\n            if (keccak256(abi.encodePacked(ids[index])) == keccak256(abi.encodePacked(id))) {\r\n                return true;\r\n            }\r\n        }\r\n        return false;\r\n    }\r\n\r\n    function productAdded(string memory id, string memory name, uint totalPrice, uint VAT) public view returns (bool) {\r\n        if (idExists(id) == false)\r\n            return false;\r\n      //  require(idToProducts[id].length != 0);\r\n        for (uint index = 0; index < idToProducts[id].length; index++) {\r\n            if (keccak256(abi.encodePacked(products[idToProducts[id][index]].name)) == keccak256(abi.encodePacked(name)) &&\r\n                products[idToProducts[id][index]].priceWithVAT == totalPrice &&\r\n                products[idToProducts[id][index]].VAT == VAT) {\r\n                return true;\r\n            }\r\n        }\r\n\r\n        return false;\r\n    }\r\n\r\n    // add modifier for only the owner of the product can update it\r\n    function addProduct(string memory id, string memory name, uint totalPrice, uint VAT) public {\r\n        require(productAdded(id, name, totalPrice, VAT) == false);\r\n        if (idExists(id)) {\r\n            require(productToOwner[id] == msg.sender);\r\n        }\r\n        else {\r\n            productToOwner[id] = msg.sender;\r\n        }\r\n        uint index = products.push(Product(name, VAT, totalPrice)) - 1;\r\n        idToProducts[id].push(index);\r\n        ids.push(id);\r\n        productToOwner[id] = msg.sender;\r\n    }\r\n\r\n    // add modifier for only owner of the product and the ones that have permissions\r\n    function getProduct(string memory id) public view returns(string memory, string memory, uint, uint) {\r\n        require(idToProducts[id].length != 0);\r\n        return (id,\r\n        products[idToProducts[id][idToProducts[id].length - 1]].name,\r\n        products[idToProducts[id][idToProducts[id].length - 1]].VAT,\r\n        products[idToProducts[id][idToProducts[id].length - 1]].priceWithVAT);\r\n    }\r\n}\r\n",
  "sourcePath": "H:\\Faculta\\Licenta\\webshop\\Licenta\\blockchain\\contracts\\ProductRepo.sol",
  "compiler": {
    "name": "solc",
    "version": "0.5.16+commit.9c3226ce.Emscripten.clang"
  },
  "schemaVersion": "3.4.7",
  "updatedAt": "2022-05-22T09:51:17.275Z",
  "devdoc": {
    "methods": {}
  },
  "userdoc": {
    "methods": {}
  }
}