{
  "contractName": "ProductRepo",
  "abi": [
    {
      "constant": true,
      "inputs": [
        {
          "internalType": "string",
          "name": "",
          "type": "string"
        }
      ],
      "name": "productToOwner",
      "outputs": [
        {
          "internalType": "address",
          "name": "",
          "type": "address"
        }
      ],
      "payable": false,
      "stateMutability": "view",
      "type": "function"
    },
    {
      "constant": true,
      "inputs": [
        {
          "internalType": "string",
          "name": "",
          "type": "string"
        },
        {
          "internalType": "uint256",
          "name": "",
          "type": "uint256"
        }
      ],
      "name": "productToPermissions",
      "outputs": [
        {
          "internalType": "address",
          "name": "",
          "type": "address"
        }
      ],
      "payable": false,
      "stateMutability": "view",
      "type": "function"
    },
    {
      "constant": true,
      "inputs": [
        {
          "internalType": "uint256",
          "name": "",
          "type": "uint256"
        }
      ],
      "name": "products",
      "outputs": [
        {
          "internalType": "string",
          "name": "name",
          "type": "string"
        },
        {
          "internalType": "uint256",
          "name": "VAT",
          "type": "uint256"
        },
        {
          "internalType": "uint256",
          "name": "priceWithVAT",
          "type": "uint256"
        }
      ],
      "payable": false,
      "stateMutability": "view",
      "type": "function"
    },
    {
      "constant": true,
      "inputs": [
        {
          "internalType": "string",
          "name": "id",
          "type": "string"
        }
      ],
      "name": "idExists",
      "outputs": [
        {
          "internalType": "bool",
          "name": "",
          "type": "bool"
        }
      ],
      "payable": false,
      "stateMutability": "view",
      "type": "function"
    },
    {
      "constant": true,
      "inputs": [
        {
          "internalType": "string",
          "name": "id",
          "type": "string"
        },
        {
          "internalType": "string",
          "name": "name",
          "type": "string"
        },
        {
          "internalType": "uint256",
          "name": "totalPrice",
          "type": "uint256"
        },
        {
          "internalType": "uint256",
          "name": "VAT",
          "type": "uint256"
        }
      ],
      "name": "productAdded",
      "outputs": [
        {
          "internalType": "bool",
          "name": "",
          "type": "bool"
        }
      ],
      "payable": false,
      "stateMutability": "view",
      "type": "function"
    },
    {
      "constant": false,
      "inputs": [
        {
          "internalType": "string",
          "name": "id",
          "type": "string"
        },
        {
          "internalType": "string",
          "name": "name",
          "type": "string"
        },
        {
          "internalType": "uint256",
          "name": "totalPrice",
          "type": "uint256"
        },
        {
          "internalType": "uint256",
          "name": "VAT",
          "type": "uint256"
        }
      ],
      "name": "addProduct",
      "outputs": [],
      "payable": false,
      "stateMutability": "nonpayable",
      "type": "function"
    },
    {
      "constant": true,
      "inputs": [
        {
          "internalType": "string",
          "name": "id",
          "type": "string"
        }
      ],
      "name": "getProduct",
      "outputs": [
        {
          "internalType": "string",
          "name": "",
          "type": "string"
        },
        {
          "internalType": "string",
          "name": "",
          "type": "string"
        },
        {
          "internalType": "uint256",
          "name": "",
          "type": "uint256"
        },
        {
          "internalType": "uint256",
          "name": "",
          "type": "uint256"
        }
      ],
      "payable": false,
      "stateMutability": "view",
      "type": "function"
    },
    {
      "constant": true,
      "inputs": [
        {
          "internalType": "string",
          "name": "id",
          "type": "string"
        }
      ],
      "name": "inPermissions",
      "outputs": [
        {
          "internalType": "bool",
          "name": "",
          "type": "bool"
        }
      ],
      "payable": false,
      "stateMutability": "view",
      "type": "function"
    },
    {
      "constant": false,
      "inputs": [
        {
          "internalType": "string",
          "name": "id",
          "type": "string"
        },
        {
          "internalType": "address",
          "name": "newPermission",
          "type": "address"
        }
      ],
      "name": "grantPermissions",
      "outputs": [],
      "payable": false,
      "stateMutability": "nonpayable",
      "type": "function"
    }
  ],
  "bytecode": "0x608060405234801561001057600080fd5b50611d23806100206000396000f3fe608060405234801561001057600080fd5b50600436106100935760003560e01c8063426ed70e11610066578063426ed70e1461047f5780635eb338831461057a57806368111cce1461067f57806373b0404c1461082d5780637acc0b20146109ab57610093565b806301cecd14146100985780630286828e146101fe57806326638e86146102d957806332d2f045146103ac575b600080fd5b6101fc600480360360808110156100ae57600080fd5b81019080803590602001906401000000008111156100cb57600080fd5b8201836020820111156100dd57600080fd5b803590602001918460018302840111640100000000831117156100ff57600080fd5b91908080601f016020809104026020016040519081016040528093929190818152602001838380828437600081840152601f19601f8201169050808301925050505050505091929192908035906020019064010000000081111561016257600080fd5b82018360208201111561017457600080fd5b8035906020019184600183028401116401000000008311171561019657600080fd5b91908080601f016020809104026020016040519081016040528093929190818152602001838380828437600081840152601f19601f8201169050808301925050505050505091929192908035906020019092919080359060200190929190505050610a60565b005b6102d76004803603604081101561021457600080fd5b810190808035906020019064010000000081111561023157600080fd5b82018360208201111561024357600080fd5b8035906020019184600183028401116401000000008311171561026557600080fd5b91908080601f016020809104026020016040519081016040528093929190818152602001838380828437600081840152601f19601f820116905080830192505050505050509192919290803573ffffffffffffffffffffffffffffffffffffffff169060200190929190505050610d54565b005b610392600480360360208110156102ef57600080fd5b810190808035906020019064010000000081111561030c57600080fd5b82018360208201111561031e57600080fd5b8035906020019184600183028401116401000000008311171561034057600080fd5b91908080601f016020809104026020016040519081016040528093929190818152602001838380828437600081840152601f19601f820116905080830192505050505050509192919290505050610ee6565b604051808215151515815260200191505060405180910390f35b610465600480360360208110156103c257600080fd5b81019080803590602001906401000000008111156103df57600080fd5b8201836020820111156103f157600080fd5b8035906020019184600183028401116401000000008311171561041357600080fd5b91908080601f016020809104026020016040519081016040528093929190818152602001838380828437600081840152601f19601f820116905080830192505050505050509192919290505050611025565b604051808215151515815260200191505060405180910390f35b6105386004803603602081101561049557600080fd5b81019080803590602001906401000000008111156104b257600080fd5b8201836020820111156104c457600080fd5b803590602001918460018302840111640100000000831117156104e657600080fd5b91908080601f016020809104026020016040519081016040528093929190818152602001838380828437600081840152601f19601f820116905080830192505050505050509192919290505050611195565b604051808273ffffffffffffffffffffffffffffffffffffffff1673ffffffffffffffffffffffffffffffffffffffff16815260200191505060405180910390f35b61063d6004803603604081101561059057600080fd5b81019080803590602001906401000000008111156105ad57600080fd5b8201836020820111156105bf57600080fd5b803590602001918460018302840111640100000000831117156105e157600080fd5b91908080601f016020809104026020016040519081016040528093929190818152602001838380828437600081840152601f19601f820116905080830192505050505050509192919290803590602001909291905050506111de565b604051808273ffffffffffffffffffffffffffffffffffffffff1673ffffffffffffffffffffffffffffffffffffffff16815260200191505060405180910390f35b6107386004803603602081101561069557600080fd5b81019080803590602001906401000000008111156106b257600080fd5b8201836020820111156106c457600080fd5b803590602001918460018302840111640100000000831117156106e657600080fd5b91908080601f016020809104026020016040519081016040528093929190818152602001838380828437600081840152601f19601f82011690508083019250505050505050919291929050505061123f565b604051808060200180602001858152602001848152602001838103835287818151815260200191508051906020019080838360005b8381101561078857808201518184015260208101905061076d565b50505050905090810190601f1680156107b55780820380516001836020036101000a031916815260200191505b50838103825286818151815260200191508051906020019080838360005b838110156107ee5780820151818401526020810190506107d3565b50505050905090810190601f16801561081b5780820380516001836020036101000a031916815260200191505b50965050505050505060405180910390f35b6109916004803603608081101561084357600080fd5b810190808035906020019064010000000081111561086057600080fd5b82018360208201111561087257600080fd5b8035906020019184600183028401116401000000008311171561089457600080fd5b91908080601f016020809104026020016040519081016040528093929190818152602001838380828437600081840152601f19601f820116905080830192505050505050509192919290803590602001906401000000008111156108f757600080fd5b82018360208201111561090957600080fd5b8035906020019184600183028401116401000000008311171561092b57600080fd5b91908080601f016020809104026020016040519081016040528093929190818152602001838380828437600081840152601f19601f8201169050808301925050505050505091929192908035906020019092919080359060200190929190505050611761565b604051808215151515815260200191505060405180910390f35b6109d7600480360360208110156109c157600080fd5b8101908080359060200190929190505050611afa565b6040518080602001848152602001838152602001828103825285818151815260200191508051906020019080838360005b83811015610a23578082015181840152602081019050610a08565b50505050905090810190601f168015610a505780820380516001836020036101000a031916815260200191505b5094505050505060405180910390f35b60001515610a7085858585611761565b151514610a7c57600080fd5b610a8584610ee6565b15610b50573373ffffffffffffffffffffffffffffffffffffffff166003856040518082805190602001908083835b60208310610ad75780518252602082019150602081019050602083039250610ab4565b6001836020036101000a038019825116818451168082178552505050505050905001915050908152602001604051809103902060009054906101000a900473ffffffffffffffffffffffffffffffffffffffff1673ffffffffffffffffffffffffffffffffffffffff1614610b4b57600080fd5b610bf9565b336003856040518082805190602001908083835b60208310610b875780518252602082019150602081019050602083039250610b64565b6001836020036101000a038019825116818451168082178552505050505050905001915050908152602001604051809103902060006101000a81548173ffffffffffffffffffffffffffffffffffffffff021916908373ffffffffffffffffffffffffffffffffffffffff1602179055505b600060016000604051806060016040528087815260200185815260200186815250908060018154018082558091505090600182039060005260206000209060030201600090919290919091506000820151816000019080519060200190610c61929190611bc9565b50602082015181600101556040820151816002015550500390506002856040518082805190602001908083835b60208310610cb15780518252602082019150602081019050602083039250610c8e565b6001836020036101000a03801982511681845116808217855250505050505090500191505090815260200160405180910390208190806001815401808255809150509060018203906000526020600020016000909192909190915055506001859080600181540180825580915050906001820390600052602060002001600090919290919091509080519060200190610d4b929190611c49565b50505050505050565b3373ffffffffffffffffffffffffffffffffffffffff166003836040518082805190602001908083835b60208310610da15780518252602082019150602081019050602083039250610d7e565b6001836020036101000a038019825116818451168082178552505050505050905001915050908152602001604051809103902060009054906101000a900473ffffffffffffffffffffffffffffffffffffffff1673ffffffffffffffffffffffffffffffffffffffff1614610e1557600080fd5b6004826040518082805190602001908083835b60208310610e4b5780518252602082019150602081019050602083039250610e28565b6001836020036101000a03801982511681845116808217855250505050505090500191505090815260200160405180910390208190806001815401808255809150509060018203906000526020600020016000909192909190916101000a81548173ffffffffffffffffffffffffffffffffffffffff021916908373ffffffffffffffffffffffffffffffffffffffff160217905550505050565b600080600090505b60018054905081101561101a57826040516020018082805190602001908083835b60208310610f325780518252602082019150602081019050602083039250610f0f565b6001836020036101000a0380198251168184511680821785525050505050509050019150506040516020818303038152906040528051906020012060018281548110610f7a57fe5b906000526020600020016040516020018082805460018160011615610100020316600290048015610fe25780601f10610fc0576101008083540402835291820191610fe2565b820191906000526020600020905b815481529060010190602001808311610fce575b505091505060405160208183030381529060405280519060200120141561100d576001915050611020565b8080600101915050610eee565b50600090505b919050565b600080600090505b6004836040518082805190602001908083835b602083106110635780518252602082019150602081019050602083039250611040565b6001836020036101000a03801982511681845116808217855250505050505090500191505090815260200160405180910390208054905081101561118a573373ffffffffffffffffffffffffffffffffffffffff166004846040518082805190602001908083835b602083106110ee57805182526020820191506020810190506020830392506110cb565b6001836020036101000a0380198251168184511680821785525050505050509050019150509081526020016040518091039020828154811061112c57fe5b9060005260206000200160009054906101000a900473ffffffffffffffffffffffffffffffffffffffff1673ffffffffffffffffffffffffffffffffffffffff16141561117d576001915050611190565b808060010191505061102d565b50600090505b919050565b6003818051602081018201805184825260208301602085012081835280955050505050506000915054906101000a900473ffffffffffffffffffffffffffffffffffffffff1681565b600482805160208101820180518482526020830160208501208183528095505050505050818154811061120d57fe5b906000526020600020016000915091509054906101000a900473ffffffffffffffffffffffffffffffffffffffff1681565b606080600080843373ffffffffffffffffffffffffffffffffffffffff166003826040518082805190602001908083835b602083106112935780518252602082019150602081019050602083039250611270565b6001836020036101000a038019825116818451168082178552505050505050905001915050908152602001604051809103902060009054906101000a900473ffffffffffffffffffffffffffffffffffffffff1673ffffffffffffffffffffffffffffffffffffffff16148061130e575061130d81611025565b5b61131757600080fd5b60006002876040518082805190602001908083835b6020831061134f578051825260208201915060208101905060208303925061132c565b6001836020036101000a038019825116818451168082178552505050505050905001915050908152602001604051809103902080549050141561139157600080fd5b8560006002886040518082805190602001908083835b602083106113ca57805182526020820191506020810190506020830392506113a7565b6001836020036101000a0380198251168184511680821785525050505050509050019150509081526020016040518091039020600160028a6040518082805190602001908083835b602083106114355780518252602082019150602081019050602083039250611412565b6001836020036101000a038019825116818451168082178552505050505050905001915050908152602001604051809103902080549050038154811061147757fe5b90600052602060002001548154811061148c57fe5b906000526020600020906003020160000160006002896040518082805190602001908083835b602083106114d557805182526020820191506020810190506020830392506114b2565b6001836020036101000a0380198251168184511680821785525050505050509050019150509081526020016040518091039020600160028b6040518082805190602001908083835b60208310611540578051825260208201915060208101905060208303925061151d565b6001836020036101000a038019825116818451168082178552505050505050905001915050908152602001604051809103902080549050038154811061158257fe5b90600052602060002001548154811061159757fe5b906000526020600020906003020160010154600060028a6040518082805190602001908083835b602083106115e157805182526020820191506020810190506020830392506115be565b6001836020036101000a0380198251168184511680821785525050505050509050019150509081526020016040518091039020600160028c6040518082805190602001908083835b6020831061164c5780518252602082019150602081019050602083039250611629565b6001836020036101000a038019825116818451168082178552505050505050905001915050908152602001604051809103902080549050038154811061168e57fe5b9060005260206000200154815481106116a357fe5b906000526020600020906003020160020154828054600181600116156101000203166002900480601f01602080910402602001604051908101604052809291908181526020018280546001816001161561010002031660029004801561174a5780601f1061171f5761010080835404028352916020019161174a565b820191906000526020600020905b81548152906001019060200180831161172d57829003601f168201915b505050505092509450945094509450509193509193565b600080151561176f86610ee6565b151514156117805760009050611af2565b60008090505b6002866040518082805190602001908083835b602083106117bc5780518252602082019150602081019050602083039250611799565b6001836020036101000a038019825116818451168082178552505050505050905001915050908152602001604051809103902080549050811015611aec57846040516020018082805190602001908083835b60208310611831578051825260208201915060208101905060208303925061180e565b6001836020036101000a0380198251168184511680821785525050505050509050019150506040516020818303038152906040528051906020012060006002886040518082805190602001908083835b602083106118a45780518252602082019150602081019050602083039250611881565b6001836020036101000a038019825116818451168082178552505050505050905001915050908152602001604051809103902083815481106118e257fe5b9060005260206000200154815481106118f757fe5b906000526020600020906003020160000160405160200180828054600181600116156101000203166002900480156119665780601f10611944576101008083540402835291820191611966565b820191906000526020600020905b815481529060010190602001808311611952575b505091505060405160208183030381529060405280519060200120148015611a2957508360006002886040518082805190602001908083835b602083106119c2578051825260208201915060208101905060208303925061199f565b6001836020036101000a03801982511681845116808217855250505050505090500191505090815260200160405180910390208381548110611a0057fe5b906000526020600020015481548110611a1557fe5b906000526020600020906003020160020154145b8015611ad057508260006002886040518082805190602001908083835b60208310611a695780518252602082019150602081019050602083039250611a46565b6001836020036101000a03801982511681845116808217855250505050505090500191505090815260200160405180910390208381548110611aa757fe5b906000526020600020015481548110611abc57fe5b906000526020600020906003020160010154145b15611adf576001915050611af2565b8080600101915050611786565b50600090505b949350505050565b60008181548110611b0757fe5b9060005260206000209060030201600091509050806000018054600181600116156101000203166002900480601f016020809104026020016040519081016040528092919081815260200182805460018160011615610100020316600290048015611bb35780601f10611b8857610100808354040283529160200191611bb3565b820191906000526020600020905b815481529060010190602001808311611b9657829003601f168201915b5050505050908060010154908060020154905083565b828054600181600116156101000203166002900490600052602060002090601f016020900481019282601f10611c0a57805160ff1916838001178555611c38565b82800160010185558215611c38579182015b82811115611c37578251825591602001919060010190611c1c565b5b509050611c459190611cc9565b5090565b828054600181600116156101000203166002900490600052602060002090601f016020900481019282601f10611c8a57805160ff1916838001178555611cb8565b82800160010185558215611cb8579182015b82811115611cb7578251825591602001919060010190611c9c565b5b509050611cc59190611cc9565b5090565b611ceb91905b80821115611ce7576000816000905550600101611ccf565b5090565b9056fea265627a7a72315820507e8709727917ad550efd920d8ab290aa36e6b418c52d512c4e81f8d2a87b2064736f6c63430005100032",
  "source": "pragma solidity >=0.5.0 <0.6.0;\r\n\r\n\r\ncontract ProductRepo {\r\n    struct Product {\r\n        string name;\r\n        uint VAT;  // 24% e 24\r\n        uint priceWithVAT; // all prices are * 100, no decimals\r\n    }\r\n\r\n    Product[] public products;\r\n    string[] internal ids;\r\n\r\n    mapping (string => uint[]) idToProducts;\r\n    mapping (string => address) public productToOwner;\r\n    mapping (string => address[]) public productToPermissions;\r\n\r\n    function idExists(string memory id) public view returns (bool) {\r\n        for (uint index = 0; index < ids.length; index++) {\r\n            if (keccak256(abi.encodePacked(ids[index])) == keccak256(abi.encodePacked(id))) {\r\n                return true;\r\n            }\r\n        }\r\n        return false;\r\n    }\r\n\r\n    function productAdded(string memory id, string memory name, uint totalPrice, uint VAT) public view returns (bool) {\r\n        if (idExists(id) == false)\r\n            return false;\r\n        for (uint index = 0; index < idToProducts[id].length; index++) {\r\n            if (keccak256(abi.encodePacked(products[idToProducts[id][index]].name)) == keccak256(abi.encodePacked(name)) &&\r\n            products[idToProducts[id][index]].priceWithVAT == totalPrice &&\r\n                products[idToProducts[id][index]].VAT == VAT) {\r\n                return true;\r\n            }\r\n        }\r\n\r\n        return false;\r\n    }\r\n\r\n    function addProduct(string memory id, string memory name, uint totalPrice, uint VAT) public {\r\n        require(productAdded(id, name, totalPrice, VAT) == false);\r\n        if (idExists(id)) {\r\n            require(productToOwner[id] == msg.sender);\r\n        }\r\n        else {\r\n            productToOwner[id] = msg.sender;\r\n        }\r\n        uint index = products.push(Product(name, VAT, totalPrice)) - 1;\r\n        idToProducts[id].push(index);\r\n        ids.push(id);\r\n    }\r\n\r\n    function getProduct(string memory id) public hasPermissions(id) view returns(string memory, string memory, uint, uint) {\r\n        require(idToProducts[id].length != 0);\r\n        return (id,\r\n        products[idToProducts[id][idToProducts[id].length - 1]].name,\r\n        products[idToProducts[id][idToProducts[id].length - 1]].VAT,\r\n        products[idToProducts[id][idToProducts[id].length - 1]].priceWithVAT);\r\n    }\r\n\r\n    function inPermissions(string memory id) public view returns (bool) {\r\n        for (uint index = 0; index < productToPermissions[id].length; index++) {\r\n            if (productToPermissions[id][index] == msg.sender) {\r\n                return true;\r\n            }\r\n        }\r\n        return false;\r\n    }\r\n\r\n    modifier hasPermissions(string memory id) {\r\n        require(productToOwner[id] == msg.sender || inPermissions(id));\r\n        _;\r\n    }\r\n\r\n    function grantPermissions(string memory id, address newPermission) public {\r\n        require(productToOwner[id] == msg.sender);\r\n        productToPermissions[id].push(newPermission);\r\n    }\r\n}\r\n",
  "sourcePath": "H:\\Faculta\\Licenta\\webshop\\Licenta\\blockchain\\contracts\\ProductRepo.sol",
  "compiler": {
    "name": "solc",
    "version": "0.5.16+commit.9c3226ce.Emscripten.clang"
  },
  "schemaVersion": "3.4.7",
  "updatedAt": "2022-06-07T15:55:22.010Z",
  "devdoc": {
    "methods": {}
  },
  "userdoc": {
    "methods": {}
  }
}