{
  "contractName": "ProductRepo",
  "abi": [
    {
      "constant": true,
      "inputs": [
        {
          "internalType": "string",
          "name": "",
          "type": "string"
        }
      ],
      "name": "productToOwner",
      "outputs": [
        {
          "internalType": "address",
          "name": "",
          "type": "address"
        }
      ],
      "payable": false,
      "stateMutability": "view",
      "type": "function"
    },
    {
      "constant": true,
      "inputs": [
        {
          "internalType": "uint256",
          "name": "",
          "type": "uint256"
        }
      ],
      "name": "products",
      "outputs": [
        {
          "internalType": "string",
          "name": "name",
          "type": "string"
        },
        {
          "internalType": "uint256",
          "name": "VAT",
          "type": "uint256"
        },
        {
          "internalType": "uint256",
          "name": "priceWithVAT",
          "type": "uint256"
        }
      ],
      "payable": false,
      "stateMutability": "view",
      "type": "function"
    },
    {
      "constant": true,
      "inputs": [
        {
          "internalType": "string",
          "name": "id",
          "type": "string"
        }
      ],
      "name": "idExists",
      "outputs": [
        {
          "internalType": "bool",
          "name": "",
          "type": "bool"
        }
      ],
      "payable": false,
      "stateMutability": "view",
      "type": "function"
    },
    {
      "constant": true,
      "inputs": [
        {
          "internalType": "string",
          "name": "id",
          "type": "string"
        },
        {
          "internalType": "string",
          "name": "name",
          "type": "string"
        },
        {
          "internalType": "uint256",
          "name": "totalPrice",
          "type": "uint256"
        },
        {
          "internalType": "uint256",
          "name": "VAT",
          "type": "uint256"
        }
      ],
      "name": "productAdded",
      "outputs": [
        {
          "internalType": "bool",
          "name": "",
          "type": "bool"
        }
      ],
      "payable": false,
      "stateMutability": "view",
      "type": "function"
    },
    {
      "constant": false,
      "inputs": [
        {
          "internalType": "string",
          "name": "id",
          "type": "string"
        },
        {
          "internalType": "string",
          "name": "name",
          "type": "string"
        },
        {
          "internalType": "uint256",
          "name": "totalPrice",
          "type": "uint256"
        },
        {
          "internalType": "uint256",
          "name": "VAT",
          "type": "uint256"
        }
      ],
      "name": "addProduct",
      "outputs": [],
      "payable": false,
      "stateMutability": "nonpayable",
      "type": "function"
    },
    {
      "constant": true,
      "inputs": [
        {
          "internalType": "string",
          "name": "id",
          "type": "string"
        }
      ],
      "name": "getProduct",
      "outputs": [
        {
          "internalType": "string",
          "name": "",
          "type": "string"
        },
        {
          "internalType": "string",
          "name": "",
          "type": "string"
        },
        {
          "internalType": "uint256",
          "name": "",
          "type": "uint256"
        },
        {
          "internalType": "uint256",
          "name": "",
          "type": "uint256"
        }
      ],
      "payable": false,
      "stateMutability": "view",
      "type": "function"
    }
  ],
  "bytecode": "0x608060405234801561001057600080fd5b506115fe806100206000396000f3fe608060405234801561001057600080fd5b50600436106100625760003560e01c806301cecd141461006757806326638e86146101cd578063426ed70e146102a057806368111cce1461039b57806373b0404c146105495780637acc0b20146106c7575b600080fd5b6101cb6004803603608081101561007d57600080fd5b810190808035906020019064010000000081111561009a57600080fd5b8201836020820111156100ac57600080fd5b803590602001918460018302840111640100000000831117156100ce57600080fd5b91908080601f016020809104026020016040519081016040528093929190818152602001838380828437600081840152601f19601f8201169050808301925050505050505091929192908035906020019064010000000081111561013157600080fd5b82018360208201111561014357600080fd5b8035906020019184600183028401116401000000008311171561016557600080fd5b91908080601f016020809104026020016040519081016040528093929190818152602001838380828437600081840152601f19601f820116905080830192505050505050509192919290803590602001909291908035906020019092919050505061077c565b005b610286600480360360208110156101e357600080fd5b810190808035906020019064010000000081111561020057600080fd5b82018360208201111561021257600080fd5b8035906020019184600183028401116401000000008311171561023457600080fd5b91908080601f016020809104026020016040519081016040528093929190818152602001838380828437600081840152601f19601f820116905080830192505050505050509192919290505050610a70565b604051808215151515815260200191505060405180910390f35b610359600480360360208110156102b657600080fd5b81019080803590602001906401000000008111156102d357600080fd5b8201836020820111156102e557600080fd5b8035906020019184600183028401116401000000008311171561030757600080fd5b91908080601f016020809104026020016040519081016040528093929190818152602001838380828437600081840152601f19601f820116905080830192505050505050509192919290505050610baf565b604051808273ffffffffffffffffffffffffffffffffffffffff1673ffffffffffffffffffffffffffffffffffffffff16815260200191505060405180910390f35b610454600480360360208110156103b157600080fd5b81019080803590602001906401000000008111156103ce57600080fd5b8201836020820111156103e057600080fd5b8035906020019184600183028401116401000000008311171561040257600080fd5b91908080601f016020809104026020016040519081016040528093929190818152602001838380828437600081840152601f19601f820116905080830192505050505050509192919290505050610bf8565b604051808060200180602001858152602001848152602001838103835287818151815260200191508051906020019080838360005b838110156104a4578082015181840152602081019050610489565b50505050905090810190601f1680156104d15780820380516001836020036101000a031916815260200191505b50838103825286818151815260200191508051906020019080838360005b8381101561050a5780820151818401526020810190506104ef565b50505050905090810190601f1680156105375780820380516001836020036101000a031916815260200191505b50965050505050505060405180910390f35b6106ad6004803603608081101561055f57600080fd5b810190808035906020019064010000000081111561057c57600080fd5b82018360208201111561058e57600080fd5b803590602001918460018302840111640100000000831117156105b057600080fd5b91908080601f016020809104026020016040519081016040528093929190818152602001838380828437600081840152601f19601f8201169050808301925050505050505091929192908035906020019064010000000081111561061357600080fd5b82018360208201111561062557600080fd5b8035906020019184600183028401116401000000008311171561064757600080fd5b91908080601f016020809104026020016040519081016040528093929190818152602001838380828437600081840152601f19601f8201169050808301925050505050505091929192908035906020019092919080359060200190929190505050611047565b604051808215151515815260200191505060405180910390f35b6106f3600480360360208110156106dd57600080fd5b81019080803590602001909291905050506113d5565b6040518080602001848152602001838152602001828103825285818151815260200191508051906020019080838360005b8381101561073f578082015181840152602081019050610724565b50505050905090810190601f16801561076c5780820380516001836020036101000a031916815260200191505b5094505050505060405180910390f35b6000151561078c85858585611047565b15151461079857600080fd5b6107a184610a70565b1561086c573373ffffffffffffffffffffffffffffffffffffffff166003856040518082805190602001908083835b602083106107f357805182526020820191506020810190506020830392506107d0565b6001836020036101000a038019825116818451168082178552505050505050905001915050908152602001604051809103902060009054906101000a900473ffffffffffffffffffffffffffffffffffffffff1673ffffffffffffffffffffffffffffffffffffffff161461086757600080fd5b610915565b336003856040518082805190602001908083835b602083106108a35780518252602082019150602081019050602083039250610880565b6001836020036101000a038019825116818451168082178552505050505050905001915050908152602001604051809103902060006101000a81548173ffffffffffffffffffffffffffffffffffffffff021916908373ffffffffffffffffffffffffffffffffffffffff1602179055505b60006001600060405180606001604052808781526020018581526020018681525090806001815401808255809150509060018203906000526020600020906003020160009091929091909150600082015181600001908051906020019061097d9291906114a4565b50602082015181600101556040820151816002015550500390506002856040518082805190602001908083835b602083106109cd57805182526020820191506020810190506020830392506109aa565b6001836020036101000a03801982511681845116808217855250505050505090500191505090815260200160405180910390208190806001815401808255809150509060018203906000526020600020016000909192909190915055506001859080600181540180825580915050906001820390600052602060002001600090919290919091509080519060200190610a67929190611524565b50505050505050565b600080600090505b600180549050811015610ba457826040516020018082805190602001908083835b60208310610abc5780518252602082019150602081019050602083039250610a99565b6001836020036101000a0380198251168184511680821785525050505050509050019150506040516020818303038152906040528051906020012060018281548110610b0457fe5b906000526020600020016040516020018082805460018160011615610100020316600290048015610b6c5780601f10610b4a576101008083540402835291820191610b6c565b820191906000526020600020905b815481529060010190602001808311610b58575b5050915050604051602081830303815290604052805190602001201415610b97576001915050610baa565b8080600101915050610a78565b50600090505b919050565b6003818051602081018201805184825260208301602085012081835280955050505050506000915054906101000a900473ffffffffffffffffffffffffffffffffffffffff1681565b60608060008060006002866040518082805190602001908083835b60208310610c365780518252602082019150602081019050602083039250610c13565b6001836020036101000a0380198251168184511680821785525050505050509050019150509081526020016040518091039020805490501415610c7857600080fd5b8460006002876040518082805190602001908083835b60208310610cb15780518252602082019150602081019050602083039250610c8e565b6001836020036101000a038019825116818451168082178552505050505050905001915050908152602001604051809103902060016002896040518082805190602001908083835b60208310610d1c5780518252602082019150602081019050602083039250610cf9565b6001836020036101000a0380198251168184511680821785525050505050509050019150509081526020016040518091039020805490500381548110610d5e57fe5b906000526020600020015481548110610d7357fe5b906000526020600020906003020160000160006002886040518082805190602001908083835b60208310610dbc5780518252602082019150602081019050602083039250610d99565b6001836020036101000a0380198251168184511680821785525050505050509050019150509081526020016040518091039020600160028a6040518082805190602001908083835b60208310610e275780518252602082019150602081019050602083039250610e04565b6001836020036101000a0380198251168184511680821785525050505050509050019150509081526020016040518091039020805490500381548110610e6957fe5b906000526020600020015481548110610e7e57fe5b90600052602060002090600302016001015460006002896040518082805190602001908083835b60208310610ec85780518252602082019150602081019050602083039250610ea5565b6001836020036101000a0380198251168184511680821785525050505050509050019150509081526020016040518091039020600160028b6040518082805190602001908083835b60208310610f335780518252602082019150602081019050602083039250610f10565b6001836020036101000a0380198251168184511680821785525050505050509050019150509081526020016040518091039020805490500381548110610f7557fe5b906000526020600020015481548110610f8a57fe5b906000526020600020906003020160020154828054600181600116156101000203166002900480601f0160208091040260200160405190810160405280929190818152602001828054600181600116156101000203166002900480156110315780601f1061100657610100808354040283529160200191611031565b820191906000526020600020905b81548152906001019060200180831161101457829003601f168201915b5050505050925093509350935093509193509193565b600061105285610a70565b61105b57600080fd5b60008090505b6002866040518082805190602001908083835b602083106110975780518252602082019150602081019050602083039250611074565b6001836020036101000a0380198251168184511680821785525050505050509050019150509081526020016040518091039020805490508110156113c757846040516020018082805190602001908083835b6020831061110c57805182526020820191506020810190506020830392506110e9565b6001836020036101000a0380198251168184511680821785525050505050509050019150506040516020818303038152906040528051906020012060006002886040518082805190602001908083835b6020831061117f578051825260208201915060208101905060208303925061115c565b6001836020036101000a038019825116818451168082178552505050505050905001915050908152602001604051809103902083815481106111bd57fe5b9060005260206000200154815481106111d257fe5b906000526020600020906003020160000160405160200180828054600181600116156101000203166002900480156112415780601f1061121f576101008083540402835291820191611241565b820191906000526020600020905b81548152906001019060200180831161122d575b50509150506040516020818303038152906040528051906020012014801561130457508360006002886040518082805190602001908083835b6020831061129d578051825260208201915060208101905060208303925061127a565b6001836020036101000a038019825116818451168082178552505050505050905001915050908152602001604051809103902083815481106112db57fe5b9060005260206000200154815481106112f057fe5b906000526020600020906003020160020154145b80156113ab57508260006002886040518082805190602001908083835b602083106113445780518252602082019150602081019050602083039250611321565b6001836020036101000a0380198251168184511680821785525050505050509050019150509081526020016040518091039020838154811061138257fe5b90600052602060002001548154811061139757fe5b906000526020600020906003020160010154145b156113ba5760019150506113cd565b8080600101915050611061565b50600090505b949350505050565b600081815481106113e257fe5b9060005260206000209060030201600091509050806000018054600181600116156101000203166002900480601f01602080910402602001604051908101604052809291908181526020018280546001816001161561010002031660029004801561148e5780601f106114635761010080835404028352916020019161148e565b820191906000526020600020905b81548152906001019060200180831161147157829003601f168201915b5050505050908060010154908060020154905083565b828054600181600116156101000203166002900490600052602060002090601f016020900481019282601f106114e557805160ff1916838001178555611513565b82800160010185558215611513579182015b828111156115125782518255916020019190600101906114f7565b5b50905061152091906115a4565b5090565b828054600181600116156101000203166002900490600052602060002090601f016020900481019282601f1061156557805160ff1916838001178555611593565b82800160010185558215611593579182015b82811115611592578251825591602001919060010190611577565b5b5090506115a091906115a4565b5090565b6115c691905b808211156115c25760008160009055506001016115aa565b5090565b9056fea265627a7a723158209417a8a1a948fecbfe87174d684e4160eed64ea8a8b03ce4377a3b56f6613b1b64736f6c63430005100032",
  "source": "pragma solidity >=0.5.0 <0.6.0;\r\n\r\ncontract ProductRepo {\r\n    struct Product {\r\n        string name;\r\n        uint VAT;  // 24% e 24\r\n        uint priceWithVAT; // all prices are * 100, no decimals\r\n    }\r\n\r\n    Product[] public products;\r\n    string[] internal ids;\r\n\r\n    mapping (string => uint[]) idToProducts;\r\n    mapping (string => address) public productToOwner;\r\n\r\n    function idExists(string memory id) public view returns (bool) {\r\n        for (uint index = 0; index < ids.length; index++) {\r\n            if (keccak256(abi.encodePacked(ids[index])) == keccak256(abi.encodePacked(id))) {\r\n                return true;\r\n            }\r\n        }\r\n        return false;\r\n    }\r\n\r\n    function productAdded(string memory id, string memory name, uint totalPrice, uint VAT) public view returns (bool) {\r\n        require(idExists(id));\r\n        for (uint index = 0; index < idToProducts[id].length; index++) {\r\n            if (keccak256(abi.encodePacked(products[idToProducts[id][index]].name)) == keccak256(abi.encodePacked(name)) &&\r\n                products[idToProducts[id][index]].priceWithVAT == totalPrice &&\r\n                products[idToProducts[id][index]].VAT == VAT) {\r\n                return true;\r\n            }\r\n        }\r\n\r\n        return false;\r\n    }\r\n\r\n    function addProduct(string memory id, string memory name, uint totalPrice, uint VAT) public {\r\n        require(productAdded(id, name, totalPrice, VAT) == false);\r\n        if (idExists(id)) {\r\n            require(productToOwner[id] == msg.sender);\r\n        }\r\n        else {\r\n            productToOwner[id] = msg.sender;\r\n        }\r\n        uint index = products.push(Product(name, VAT, totalPrice)) - 1;\r\n        idToProducts[id].push(index);\r\n        ids.push(id);\r\n    }\r\n\r\n    function getProduct(string memory id) public view returns(string memory, string memory, uint, uint) {\r\n        require(idToProducts[id].length != 0);\r\n        return (id,\r\n        products[idToProducts[id][idToProducts[id].length - 1]].name,\r\n        products[idToProducts[id][idToProducts[id].length - 1]].VAT,\r\n        products[idToProducts[id][idToProducts[id].length - 1]].priceWithVAT);\r\n    }\r\n}\r\n",
  "sourcePath": "H:\\Faculta\\Licenta\\webshop\\Licenta\\blockchain\\contracts\\ProductRepo.sol",
  "compiler": {
    "name": "solc",
    "version": "0.5.16+commit.9c3226ce.Emscripten.clang"
  },
  "schemaVersion": "3.4.7",
  "updatedAt": "2022-05-20T10:05:57.589Z",
  "devdoc": {
    "methods": {}
  },
  "userdoc": {
    "methods": {}
  }
}