{
  "contractName": "BillRepo",
  "abi": [
    {
      "constant": true,
      "inputs": [
        {
          "internalType": "uint256",
          "name": "",
          "type": "uint256"
        },
        {
          "internalType": "uint256",
          "name": "",
          "type": "uint256"
        }
      ],
      "name": "billIdToEntryId",
      "outputs": [
        {
          "internalType": "uint256",
          "name": "",
          "type": "uint256"
        }
      ],
      "payable": false,
      "stateMutability": "view",
      "type": "function"
    },
    {
      "constant": true,
      "inputs": [
        {
          "internalType": "uint256",
          "name": "",
          "type": "uint256"
        }
      ],
      "name": "billToOwner",
      "outputs": [
        {
          "internalType": "address",
          "name": "",
          "type": "address"
        }
      ],
      "payable": false,
      "stateMutability": "view",
      "type": "function"
    },
    {
      "constant": true,
      "inputs": [
        {
          "internalType": "uint256",
          "name": "",
          "type": "uint256"
        }
      ],
      "name": "bills",
      "outputs": [
        {
          "internalType": "uint256",
          "name": "date",
          "type": "uint256"
        },
        {
          "internalType": "uint256",
          "name": "total",
          "type": "uint256"
        }
      ],
      "payable": false,
      "stateMutability": "view",
      "type": "function"
    },
    {
      "constant": true,
      "inputs": [
        {
          "internalType": "uint256",
          "name": "",
          "type": "uint256"
        }
      ],
      "name": "entries",
      "outputs": [
        {
          "internalType": "string",
          "name": "productId",
          "type": "string"
        },
        {
          "internalType": "uint256",
          "name": "quantity",
          "type": "uint256"
        }
      ],
      "payable": false,
      "stateMutability": "view",
      "type": "function"
    },
    {
      "constant": true,
      "inputs": [
        {
          "internalType": "string",
          "name": "",
          "type": "string"
        }
      ],
      "name": "orderToBillId",
      "outputs": [
        {
          "internalType": "uint256",
          "name": "",
          "type": "uint256"
        }
      ],
      "payable": false,
      "stateMutability": "view",
      "type": "function"
    },
    {
      "constant": false,
      "inputs": [
        {
          "internalType": "string",
          "name": "orderId",
          "type": "string"
        },
        {
          "internalType": "uint256",
          "name": "date",
          "type": "uint256"
        },
        {
          "internalType": "uint256",
          "name": "total",
          "type": "uint256"
        }
      ],
      "name": "createBill",
      "outputs": [],
      "payable": false,
      "stateMutability": "nonpayable",
      "type": "function"
    },
    {
      "constant": false,
      "inputs": [
        {
          "internalType": "string",
          "name": "orderId",
          "type": "string"
        },
        {
          "internalType": "string",
          "name": "productId",
          "type": "string"
        },
        {
          "internalType": "uint256",
          "name": "quantity",
          "type": "uint256"
        }
      ],
      "name": "addEntry",
      "outputs": [],
      "payable": false,
      "stateMutability": "nonpayable",
      "type": "function"
    }
  ],
  "bytecode": "0x608060405234801561001057600080fd5b506109d8806100206000396000f3fe608060405234801561001057600080fd5b506004361061007d5760003560e01c80637ed5e55b1161005b5780637ed5e55b146101855780638e8d080a14610254578063b30906d414610323578063be0968e8146103d15761007d565b80631d77d4891461008257806328bdcde8146100f05780632dc3b1c714610139575b600080fd5b6100ae6004803603602081101561009857600080fd5b810190808035906020019092919050505061052d565b604051808273ffffffffffffffffffffffffffffffffffffffff1673ffffffffffffffffffffffffffffffffffffffff16815260200191505060405180910390f35b61011c6004803603602081101561010657600080fd5b8101908080359060200190929190505050610560565b604051808381526020018281526020019250505060405180910390f35b61016f6004803603604081101561014f57600080fd5b810190808035906020019092919080359060200190929190505050610591565b6040518082815260200191505060405180910390f35b6102526004803603606081101561019b57600080fd5b81019080803590602001906401000000008111156101b857600080fd5b8201836020820111156101ca57600080fd5b803590602001918460018302840111640100000000831117156101ec57600080fd5b91908080601f016020809104026020016040519081016040528093929190818152602001838380828437600081840152601f19601f82011690508083019250505050505050919291929080359060200190929190803590602001909291905050506105bf565b005b61030d6004803603602081101561026a57600080fd5b810190808035906020019064010000000081111561028757600080fd5b82018360208201111561029957600080fd5b803590602001918460018302840111640100000000831117156102bb57600080fd5b91908080601f016020809104026020016040519081016040528093929190818152602001838380828437600081840152601f19601f8201169050808301925050505050505091929192905050506106e4565b6040518082815260200191505060405180910390f35b61034f6004803603602081101561033957600080fd5b8101908080359060200190929190505050610712565b6040518080602001838152602001828103825284818151815260200191508051906020019080838360005b8381101561039557808201518184015260208101905061037a565b50505050905090810190601f1680156103c25780820380516001836020036101000a031916815260200191505b50935050505060405180910390f35b61052b600480360360608110156103e757600080fd5b810190808035906020019064010000000081111561040457600080fd5b82018360208201111561041657600080fd5b8035906020019184600183028401116401000000008311171561043857600080fd5b91908080601f016020809104026020016040519081016040528093929190818152602001838380828437600081840152601f19601f8201169050808301925050505050505091929192908035906020019064010000000081111561049b57600080fd5b8201836020820111156104ad57600080fd5b803590602001918460018302840111640100000000831117156104cf57600080fd5b91908080601f016020809104026020016040519081016040528093929190818152602001838380828437600081840152601f19601f820116905080830192505050505050509192919290803590602001909291905050506107db565b005b60026020528060005260406000206000915054906101000a900473ffffffffffffffffffffffffffffffffffffffff1681565b6000818154811061056d57fe5b90600052602060002090600202016000915090508060000154908060010154905082565b600460205281600052604060002081815481106105aa57fe5b90600052602060002001600091509150505481565b6000600160006040518060400160405280868152602001858152509080600181540180825580915050906001820390600052602060002090600202016000909192909190915060008201518160000155602082015181600101555050039050336002600083815260200190815260200160002060006101000a81548173ffffffffffffffffffffffffffffffffffffffff021916908373ffffffffffffffffffffffffffffffffffffffff160217905550806003856040518082805190602001908083835b602083106106a75780518252602082019150602081019050602083039250610684565b6001836020036101000a03801982511681845116808217855250505050505090500191505090815260200160405180910390208190555050505050565b6003818051602081018201805184825260208301602085012081835280955050505050506000915090505481565b6001818154811061071f57fe5b9060005260206000209060020201600091509050806000018054600181600116156101000203166002900480601f0160208091040260200160405190810160405280929190818152602001828054600181600116156101000203166002900480156107cb5780601f106107a0576101008083540402835291602001916107cb565b820191906000526020600020905b8154815290600101906020018083116107ae57829003601f168201915b5050505050908060010154905082565b600060018060405180604001604052808681526020018581525090806001815401808255809150509060018203906000526020600020906002020160009091929091909150600082015181600001908051906020019061083c9291906108fe565b5060208201518160010155505003905060006003856040518082805190602001908083835b602083106108845780518252602082019150602081019050602083039250610861565b6001836020036101000a0380198251168184511680821785525050505050509050019150509081526020016040518091039020549050600460008281526020019081526020016000208290806001815401808255809150509060018203906000526020600020016000909192909190915055505050505050565b828054600181600116156101000203166002900490600052602060002090601f016020900481019282601f1061093f57805160ff191683800117855561096d565b8280016001018555821561096d579182015b8281111561096c578251825591602001919060010190610951565b5b50905061097a919061097e565b5090565b6109a091905b8082111561099c576000816000905550600101610984565b5090565b9056fea265627a7a72315820c7ecdf992e1de255b34a688b36b53d22396911987a7012199e2b0328a71ca49264736f6c63430005100032",
  "source": "pragma solidity >=0.5.0 <0.6.0;\r\n\r\ncontract BillRepo {\r\n\r\n\r\n    struct BillEntry {\r\n        string productId;\r\n        uint quantity;\r\n    }\r\n\r\n    struct Bill {\r\n        uint date;\r\n        uint total; // again, multiplied by 100\r\n    }\r\n\r\n    Bill[] public bills;\r\n    BillEntry[] public entries;\r\n\r\n    mapping (uint => address) public billToOwner;\r\n    mapping (string => uint) public orderToBillId;\r\n    mapping (uint => uint[]) public billIdToEntryId;\r\n\r\n    function createBill(string memory orderId, uint date, uint total) public {\r\n        uint id = bills.push(Bill(date, total)) - 1;\r\n        billToOwner[id] = msg.sender;\r\n        orderToBillId[orderId] = id;\r\n    }\r\n\r\n    function addEntry(string memory orderId,  string memory productId, uint quantity) public {\r\n        uint entryIndex = entries.push(BillEntry(productId, quantity)) - 1;\r\n        uint billIndex = orderToBillId[orderId];\r\n        billIdToEntryId[billIndex].push(entryIndex);\r\n    }\r\n\r\n   /* function getBillByOrderId(string memory orderId) public view returns (uint, uint, string[] memory, uint[] memory){\r\n        Bill memory bill = bills[orderToBillId[orderId]];\r\n        string[] memory ids = new string[](bill.entries.length);\r\n        uint[] memory quantities = new uint[](bill.entries.length);\r\n        for (uint i = 0; i < bill.entries.length; i++) {\r\n            ids[i] = bill.entries[i].productId;\r\n            quantities[i] = bill.entries[i].quantity;\r\n        }\r\n        return (bill.date, bill.total, ids, quantities);\r\n    }*/\r\n\r\n\r\n}\r\n",
  "sourcePath": "H:\\Faculta\\Licenta\\webshop\\Licenta\\blockchain\\contracts\\BillRepo.sol",
  "compiler": {
    "name": "solc",
    "version": "0.5.16+commit.9c3226ce.Emscripten.clang"
  },
  "schemaVersion": "3.4.7",
  "updatedAt": "2022-05-06T19:25:38.306Z",
  "devdoc": {
    "methods": {}
  },
  "userdoc": {
    "methods": {}
  }
}