{
  "contractName": "BillRepo",
  "abi": [
    {
      "constant": false,
      "inputs": [
        {
          "internalType": "string",
          "name": "id",
          "type": "string"
        },
        {
          "internalType": "string",
          "name": "name",
          "type": "string"
        },
        {
          "internalType": "uint256",
          "name": "totalPrice",
          "type": "uint256"
        },
        {
          "internalType": "uint256",
          "name": "VAT",
          "type": "uint256"
        }
      ],
      "name": "addProduct",
      "outputs": [],
      "payable": false,
      "stateMutability": "nonpayable",
      "type": "function"
    },
    {
      "constant": true,
      "inputs": [
        {
          "internalType": "uint256",
          "name": "",
          "type": "uint256"
        },
        {
          "internalType": "uint256",
          "name": "",
          "type": "uint256"
        }
      ],
      "name": "billIdToEntryId",
      "outputs": [
        {
          "internalType": "uint256",
          "name": "",
          "type": "uint256"
        }
      ],
      "payable": false,
      "stateMutability": "view",
      "type": "function"
    },
    {
      "constant": true,
      "inputs": [
        {
          "internalType": "uint256",
          "name": "",
          "type": "uint256"
        }
      ],
      "name": "billToOwner",
      "outputs": [
        {
          "internalType": "address",
          "name": "",
          "type": "address"
        }
      ],
      "payable": false,
      "stateMutability": "view",
      "type": "function"
    },
    {
      "constant": true,
      "inputs": [
        {
          "internalType": "uint256",
          "name": "",
          "type": "uint256"
        }
      ],
      "name": "bills",
      "outputs": [
        {
          "internalType": "uint256",
          "name": "date",
          "type": "uint256"
        },
        {
          "internalType": "uint256",
          "name": "total",
          "type": "uint256"
        }
      ],
      "payable": false,
      "stateMutability": "view",
      "type": "function"
    },
    {
      "constant": true,
      "inputs": [
        {
          "internalType": "uint256",
          "name": "",
          "type": "uint256"
        }
      ],
      "name": "entries",
      "outputs": [
        {
          "internalType": "uint256",
          "name": "productIndex",
          "type": "uint256"
        },
        {
          "internalType": "uint256",
          "name": "quantity",
          "type": "uint256"
        }
      ],
      "payable": false,
      "stateMutability": "view",
      "type": "function"
    },
    {
      "constant": true,
      "inputs": [
        {
          "internalType": "string",
          "name": "id",
          "type": "string"
        }
      ],
      "name": "getProduct",
      "outputs": [
        {
          "internalType": "string",
          "name": "",
          "type": "string"
        },
        {
          "internalType": "string",
          "name": "",
          "type": "string"
        },
        {
          "internalType": "uint256",
          "name": "",
          "type": "uint256"
        },
        {
          "internalType": "uint256",
          "name": "",
          "type": "uint256"
        }
      ],
      "payable": false,
      "stateMutability": "view",
      "type": "function"
    },
    {
      "constant": false,
      "inputs": [
        {
          "internalType": "string",
          "name": "id",
          "type": "string"
        },
        {
          "internalType": "address",
          "name": "newPermission",
          "type": "address"
        }
      ],
      "name": "grantPermissions",
      "outputs": [],
      "payable": false,
      "stateMutability": "nonpayable",
      "type": "function"
    },
    {
      "constant": true,
      "inputs": [
        {
          "internalType": "string",
          "name": "id",
          "type": "string"
        }
      ],
      "name": "idExists",
      "outputs": [
        {
          "internalType": "bool",
          "name": "",
          "type": "bool"
        }
      ],
      "payable": false,
      "stateMutability": "view",
      "type": "function"
    },
    {
      "constant": true,
      "inputs": [
        {
          "internalType": "string",
          "name": "id",
          "type": "string"
        }
      ],
      "name": "inPermissions",
      "outputs": [
        {
          "internalType": "bool",
          "name": "",
          "type": "bool"
        }
      ],
      "payable": false,
      "stateMutability": "view",
      "type": "function"
    },
    {
      "constant": true,
      "inputs": [
        {
          "internalType": "uint256",
          "name": "",
          "type": "uint256"
        }
      ],
      "name": "orderIds",
      "outputs": [
        {
          "internalType": "string",
          "name": "",
          "type": "string"
        }
      ],
      "payable": false,
      "stateMutability": "view",
      "type": "function"
    },
    {
      "constant": true,
      "inputs": [
        {
          "internalType": "string",
          "name": "",
          "type": "string"
        }
      ],
      "name": "orderToBillId",
      "outputs": [
        {
          "internalType": "uint256",
          "name": "",
          "type": "uint256"
        }
      ],
      "payable": false,
      "stateMutability": "view",
      "type": "function"
    },
    {
      "constant": true,
      "inputs": [
        {
          "internalType": "string",
          "name": "id",
          "type": "string"
        },
        {
          "internalType": "string",
          "name": "name",
          "type": "string"
        },
        {
          "internalType": "uint256",
          "name": "totalPrice",
          "type": "uint256"
        },
        {
          "internalType": "uint256",
          "name": "VAT",
          "type": "uint256"
        }
      ],
      "name": "productAdded",
      "outputs": [
        {
          "internalType": "bool",
          "name": "",
          "type": "bool"
        }
      ],
      "payable": false,
      "stateMutability": "view",
      "type": "function"
    },
    {
      "constant": true,
      "inputs": [
        {
          "internalType": "string",
          "name": "",
          "type": "string"
        }
      ],
      "name": "productToOwner",
      "outputs": [
        {
          "internalType": "address",
          "name": "",
          "type": "address"
        }
      ],
      "payable": false,
      "stateMutability": "view",
      "type": "function"
    },
    {
      "constant": true,
      "inputs": [
        {
          "internalType": "string",
          "name": "",
          "type": "string"
        },
        {
          "internalType": "uint256",
          "name": "",
          "type": "uint256"
        }
      ],
      "name": "productToPermissions",
      "outputs": [
        {
          "internalType": "address",
          "name": "",
          "type": "address"
        }
      ],
      "payable": false,
      "stateMutability": "view",
      "type": "function"
    },
    {
      "constant": true,
      "inputs": [
        {
          "internalType": "uint256",
          "name": "",
          "type": "uint256"
        }
      ],
      "name": "products",
      "outputs": [
        {
          "internalType": "string",
          "name": "name",
          "type": "string"
        },
        {
          "internalType": "uint256",
          "name": "VAT",
          "type": "uint256"
        },
        {
          "internalType": "uint256",
          "name": "priceWithVAT",
          "type": "uint256"
        }
      ],
      "payable": false,
      "stateMutability": "view",
      "type": "function"
    },
    {
      "constant": true,
      "inputs": [
        {
          "internalType": "string",
          "name": "id",
          "type": "string"
        }
      ],
      "name": "idExistsOrders",
      "outputs": [
        {
          "internalType": "bool",
          "name": "",
          "type": "bool"
        }
      ],
      "payable": false,
      "stateMutability": "view",
      "type": "function"
    },
    {
      "constant": true,
      "inputs": [
        {
          "internalType": "string",
          "name": "orderId",
          "type": "string"
        },
        {
          "internalType": "string",
          "name": "productId",
          "type": "string"
        },
        {
          "internalType": "uint256",
          "name": "quantity",
          "type": "uint256"
        }
      ],
      "name": "entryDeployedInCurrentBill",
      "outputs": [
        {
          "internalType": "bool",
          "name": "",
          "type": "bool"
        }
      ],
      "payable": false,
      "stateMutability": "view",
      "type": "function"
    },
    {
      "constant": true,
      "inputs": [
        {
          "internalType": "uint256",
          "name": "prodIndex",
          "type": "uint256"
        },
        {
          "internalType": "uint256",
          "name": "quantity",
          "type": "uint256"
        }
      ],
      "name": "entryExists",
      "outputs": [
        {
          "internalType": "int256",
          "name": "",
          "type": "int256"
        }
      ],
      "payable": false,
      "stateMutability": "view",
      "type": "function"
    },
    {
      "constant": false,
      "inputs": [
        {
          "internalType": "string",
          "name": "orderId",
          "type": "string"
        },
        {
          "internalType": "uint256",
          "name": "date",
          "type": "uint256"
        },
        {
          "internalType": "uint256",
          "name": "total",
          "type": "uint256"
        }
      ],
      "name": "createBill",
      "outputs": [],
      "payable": false,
      "stateMutability": "nonpayable",
      "type": "function"
    },
    {
      "constant": false,
      "inputs": [
        {
          "internalType": "string",
          "name": "orderId",
          "type": "string"
        },
        {
          "internalType": "string",
          "name": "productId",
          "type": "string"
        },
        {
          "internalType": "uint256",
          "name": "quantity",
          "type": "uint256"
        }
      ],
      "name": "addEntry",
      "outputs": [],
      "payable": false,
      "stateMutability": "nonpayable",
      "type": "function"
    },
    {
      "constant": true,
      "inputs": [
        {
          "internalType": "string",
          "name": "orderId",
          "type": "string"
        }
      ],
      "name": "getBillByOrderId",
      "outputs": [
        {
          "internalType": "uint256",
          "name": "",
          "type": "uint256"
        },
        {
          "internalType": "uint256",
          "name": "",
          "type": "uint256"
        }
      ],
      "payable": false,
      "stateMutability": "view",
      "type": "function"
    },
    {
      "constant": true,
      "inputs": [
        {
          "internalType": "string",
          "name": "orderId",
          "type": "string"
        },
        {
          "internalType": "uint256",
          "name": "entryNumber",
          "type": "uint256"
        }
      ],
      "name": "getProductForEntry",
      "outputs": [
        {
          "internalType": "string",
          "name": "",
          "type": "string"
        },
        {
          "internalType": "string",
          "name": "",
          "type": "string"
        },
        {
          "internalType": "uint256",
          "name": "",
          "type": "uint256"
        },
        {
          "internalType": "uint256",
          "name": "",
          "type": "uint256"
        }
      ],
      "payable": false,
      "stateMutability": "view",
      "type": "function"
    },
    {
      "constant": true,
      "inputs": [
        {
          "internalType": "string",
          "name": "orderId",
          "type": "string"
        },
        {
          "internalType": "uint256",
          "name": "entryNumber",
          "type": "uint256"
        }
      ],
      "name": "getProductNameForEntry",
      "outputs": [
        {
          "internalType": "string",
          "name": "",
          "type": "string"
        }
      ],
      "payable": false,
      "stateMutability": "view",
      "type": "function"
    },
    {
      "constant": true,
      "inputs": [
        {
          "internalType": "string",
          "name": "orderId",
          "type": "string"
        }
      ],
      "name": "getVATsByOrderId",
      "outputs": [
        {
          "internalType": "uint256[]",
          "name": "",
          "type": "uint256[]"
        }
      ],
      "payable": false,
      "stateMutability": "view",
      "type": "function"
    },
    {
      "constant": true,
      "inputs": [
        {
          "internalType": "string",
          "name": "orderId",
          "type": "string"
        }
      ],
      "name": "getPricesByOrderId",
      "outputs": [
        {
          "internalType": "uint256[]",
          "name": "",
          "type": "uint256[]"
        }
      ],
      "payable": false,
      "stateMutability": "view",
      "type": "function"
    },
    {
      "constant": true,
      "inputs": [
        {
          "internalType": "string",
          "name": "orderId",
          "type": "string"
        }
      ],
      "name": "getQuantitiesByOrderId",
      "outputs": [
        {
          "internalType": "uint256[]",
          "name": "",
          "type": "uint256[]"
        }
      ],
      "payable": false,
      "stateMutability": "view",
      "type": "function"
    }
  ],
  "bytecode": "0x608060405234801561001057600080fd5b50614b2d806100206000396000f3fe608060405234801561001057600080fd5b506004361061018e5760003560e01c8063426ed70e116100de5780637ed5e55b11610097578063b30906d411610071578063b30906d414611506578063be0968e81461154f578063beb41a5c146116ab578063e81c1c611461181f5761018e565b80637ed5e55b146112585780637eda9f1a146113275780638e8d080a146114375761018e565b8063426ed70e14610b675780635eb3388314610c625780635fdab0f914610d6757806368111cce14610e7757806373b0404c146110255780637acc0b20146111a35761018e565b806326638e861161014b57806332d2f0451161012557806332d2f0451461086257806334878919146109355780633a1013db14610a0b57806340b861c814610a575761018e565b806326638e86146106fa57806328bdcde8146107cd5780632dc3b1c7146108165761018e565b806301cecd14146101935780630286828e146102f9578063189ce0e6146103d45780631d77d489146104a75780631f0f77dd146105155780632372208414610653575b600080fd5b6102f7600480360360808110156101a957600080fd5b81019080803590602001906401000000008111156101c657600080fd5b8201836020820111156101d857600080fd5b803590602001918460018302840111640100000000831117156101fa57600080fd5b91908080601f016020809104026020016040519081016040528093929190818152602001838380828437600081840152601f19601f8201169050808301925050505050505091929192908035906020019064010000000081111561025d57600080fd5b82018360208201111561026f57600080fd5b8035906020019184600183028401116401000000008311171561029157600080fd5b91908080601f016020809104026020016040519081016040528093929190818152602001838380828437600081840152601f19601f82011690508083019250505050505050919291929080359060200190929190803590602001909291905050506119d7565b005b6103d26004803603604081101561030f57600080fd5b810190808035906020019064010000000081111561032c57600080fd5b82018360208201111561033e57600080fd5b8035906020019184600183028401116401000000008311171561036057600080fd5b91908080601f016020809104026020016040519081016040528093929190818152602001838380828437600081840152601f19601f820116905080830192505050505050509192919290803573ffffffffffffffffffffffffffffffffffffffff169060200190929190505050611cf3565b005b61048d600480360360208110156103ea57600080fd5b810190808035906020019064010000000081111561040757600080fd5b82018360208201111561041957600080fd5b8035906020019184600183028401116401000000008311171561043b57600080fd5b91908080601f016020809104026020016040519081016040528093929190818152602001838380828437600081840152601f19601f820116905080830192505050505050509192919290505050611e85565b604051808215151515815260200191505060405180910390f35b6104d3600480360360208110156104bd57600080fd5b8101908080359060200190929190505050611fc4565b604051808273ffffffffffffffffffffffffffffffffffffffff1673ffffffffffffffffffffffffffffffffffffffff16815260200191505060405180910390f35b6105d86004803603604081101561052b57600080fd5b810190808035906020019064010000000081111561054857600080fd5b82018360208201111561055a57600080fd5b8035906020019184600183028401116401000000008311171561057c57600080fd5b91908080601f016020809104026020016040519081016040528093929190818152602001838380828437600081840152601f19601f82011690508083019250505050505050919291929080359060200190929190505050611ff7565b6040518080602001828103825283818151815260200191508051906020019080838360005b838110156106185780820151818401526020810190506105fd565b50505050905090810190601f1680156106455780820380516001836020036101000a031916815260200191505b509250505060405180910390f35b61067f6004803603602081101561066957600080fd5b810190808035906020019092919050505061223d565b6040518080602001828103825283818151815260200191508051906020019080838360005b838110156106bf5780820151818401526020810190506106a4565b50505050905090810190601f1680156106ec5780820380516001836020036101000a031916815260200191505b509250505060405180910390f35b6107b36004803603602081101561071057600080fd5b810190808035906020019064010000000081111561072d57600080fd5b82018360208201111561073f57600080fd5b8035906020019184600183028401116401000000008311171561076157600080fd5b91908080601f016020809104026020016040519081016040528093929190818152602001838380828437600081840152601f19601f8201169050808301925050505050505091929192905050506122f6565b604051808215151515815260200191505060405180910390f35b6107f9600480360360208110156107e357600080fd5b8101908080359060200190929190505050612435565b604051808381526020018281526020019250505060405180910390f35b61084c6004803603604081101561082c57600080fd5b810190808035906020019092919080359060200190929190505050612466565b6040518082815260200191505060405180910390f35b61091b6004803603602081101561087857600080fd5b810190808035906020019064010000000081111561089557600080fd5b8201836020820111156108a757600080fd5b803590602001918460018302840111640100000000831117156108c957600080fd5b91908080601f016020809104026020016040519081016040528093929190818152602001838380828437600081840152601f19601f820116905080830192505050505050509192919290505050612494565b604051808215151515815260200191505060405180910390f35b6109ee6004803603602081101561094b57600080fd5b810190808035906020019064010000000081111561096857600080fd5b82018360208201111561097a57600080fd5b8035906020019184600183028401116401000000008311171561099c57600080fd5b91908080601f016020809104026020016040519081016040528093929190818152602001838380828437600081840152601f19601f820116905080830192505050505050509192919290505050612604565b604051808381526020018281526020019250505060405180910390f35b610a4160048036036040811015610a2157600080fd5b8101908080359060200190929190803590602001909291905050506127f6565b6040518082815260200191505060405180910390f35b610b1060048036036020811015610a6d57600080fd5b8101908080359060200190640100000000811115610a8a57600080fd5b820183602082011115610a9c57600080fd5b80359060200191846001830284011164010000000083111715610abe57600080fd5b91908080601f016020809104026020016040519081016040528093929190818152602001838380828437600081840152601f19601f82011690508083019250505050505050919291929050505061289b565b6040518080602001828103825283818151815260200191508051906020019060200280838360005b83811015610b53578082015181840152602081019050610b38565b505050509050019250505060405180910390f35b610c2060048036036020811015610b7d57600080fd5b8101908080359060200190640100000000811115610b9a57600080fd5b820183602082011115610bac57600080fd5b80359060200191846001830284011164010000000083111715610bce57600080fd5b91908080601f016020809104026020016040519081016040528093929190818152602001838380828437600081840152601f19601f820116905080830192505050505050509192919290505050612bb0565b604051808273ffffffffffffffffffffffffffffffffffffffff1673ffffffffffffffffffffffffffffffffffffffff16815260200191505060405180910390f35b610d2560048036036040811015610c7857600080fd5b8101908080359060200190640100000000811115610c9557600080fd5b820183602082011115610ca757600080fd5b80359060200191846001830284011164010000000083111715610cc957600080fd5b91908080601f016020809104026020016040519081016040528093929190818152602001838380828437600081840152601f19601f82011690508083019250505050505050919291929080359060200190929190505050612bf9565b604051808273ffffffffffffffffffffffffffffffffffffffff1673ffffffffffffffffffffffffffffffffffffffff16815260200191505060405180910390f35b610e2060048036036020811015610d7d57600080fd5b8101908080359060200190640100000000811115610d9a57600080fd5b820183602082011115610dac57600080fd5b80359060200191846001830284011164010000000083111715610dce57600080fd5b91908080601f016020809104026020016040519081016040528093929190818152602001838380828437600081840152601f19601f820116905080830192505050505050509192919290505050612c5a565b6040518080602001828103825283818151815260200191508051906020019060200280838360005b83811015610e63578082015181840152602081019050610e48565b505050509050019250505060405180910390f35b610f3060048036036020811015610e8d57600080fd5b8101908080359060200190640100000000811115610eaa57600080fd5b820183602082011115610ebc57600080fd5b80359060200191846001830284011164010000000083111715610ede57600080fd5b91908080601f016020809104026020016040519081016040528093929190818152602001838380828437600081840152601f19601f820116905080830192505050505050509192919290505050612f51565b604051808060200180602001858152602001848152602001838103835287818151815260200191508051906020019080838360005b83811015610f80578082015181840152602081019050610f65565b50505050905090810190601f168015610fad5780820380516001836020036101000a031916815260200191505b50838103825286818151815260200191508051906020019080838360005b83811015610fe6578082015181840152602081019050610fcb565b50505050905090810190601f1680156110135780820380516001836020036101000a031916815260200191505b50965050505050505060405180910390f35b6111896004803603608081101561103b57600080fd5b810190808035906020019064010000000081111561105857600080fd5b82018360208201111561106a57600080fd5b8035906020019184600183028401116401000000008311171561108c57600080fd5b91908080601f016020809104026020016040519081016040528093929190818152602001838380828437600081840152601f19601f820116905080830192505050505050509192919290803590602001906401000000008111156110ef57600080fd5b82018360208201111561110157600080fd5b8035906020019184600183028401116401000000008311171561112357600080fd5b91908080601f016020809104026020016040519081016040528093929190818152602001838380828437600081840152601f19601f8201169050808301925050505050505091929192908035906020019092919080359060200190929190505050613473565b604051808215151515815260200191505060405180910390f35b6111cf600480360360208110156111b957600080fd5b810190808035906020019092919050505061380c565b6040518080602001848152602001838152602001828103825285818151815260200191508051906020019080838360005b8381101561121b578082015181840152602081019050611200565b50505050905090810190601f1680156112485780820380516001836020036101000a031916815260200191505b5094505050505060405180910390f35b6113256004803603606081101561126e57600080fd5b810190808035906020019064010000000081111561128b57600080fd5b82018360208201111561129d57600080fd5b803590602001918460018302840111640100000000831117156112bf57600080fd5b91908080601f016020809104026020016040519081016040528093929190818152602001838380828437600081840152601f19601f82011690508083019250505050505050919291929080359060200190929190803590602001909291905050506138db565b005b6113e06004803603602081101561133d57600080fd5b810190808035906020019064010000000081111561135a57600080fd5b82018360208201111561136c57600080fd5b8035906020019184600183028401116401000000008311171561138e57600080fd5b91908080601f016020809104026020016040519081016040528093929190818152602001838380828437600081840152601f19601f820116905080830192505050505050509192919290505050613a58565b6040518080602001828103825283818151815260200191508051906020019060200280838360005b83811015611423578082015181840152602081019050611408565b505050509050019250505060405180910390f35b6114f06004803603602081101561144d57600080fd5b810190808035906020019064010000000081111561146a57600080fd5b82018360208201111561147c57600080fd5b8035906020019184600183028401116401000000008311171561149e57600080fd5b91908080601f016020809104026020016040519081016040528093929190818152602001838380828437600081840152601f19601f820116905080830192505050505050509192919290505050613d6d565b6040518082815260200191505060405180910390f35b6115326004803603602081101561151c57600080fd5b8101908080359060200190929190505050613d9b565b604051808381526020018281526020019250505060405180910390f35b6116a96004803603606081101561156557600080fd5b810190808035906020019064010000000081111561158257600080fd5b82018360208201111561159457600080fd5b803590602001918460018302840111640100000000831117156115b657600080fd5b91908080601f016020809104026020016040519081016040528093929190818152602001838380828437600081840152601f19601f8201169050808301925050505050505091929192908035906020019064010000000081111561161957600080fd5b82018360208201111561162b57600080fd5b8035906020019184600183028401116401000000008311171561164d57600080fd5b91908080601f016020809104026020016040519081016040528093929190818152602001838380828437600081840152601f19601f82011690508083019250505050505050919291929080359060200190929190505050613dcc565b005b611805600480360360608110156116c157600080fd5b81019080803590602001906401000000008111156116de57600080fd5b8201836020820111156116f057600080fd5b8035906020019184600183028401116401000000008311171561171257600080fd5b91908080601f016020809104026020016040519081016040528093929190818152602001838380828437600081840152601f19601f8201169050808301925050505050505091929192908035906020019064010000000081111561177557600080fd5b82018360208201111561178757600080fd5b803590602001918460018302840111640100000000831117156117a957600080fd5b91908080601f016020809104026020016040519081016040528093929190818152602001838380828437600081840152601f19601f820116905080830192505050505050509192919290803590602001909291905050506142a2565b604051808215151515815260200191505060405180910390f35b6118e26004803603604081101561183557600080fd5b810190808035906020019064010000000081111561185257600080fd5b82018360208201111561186457600080fd5b8035906020019184600183028401116401000000008311171561188657600080fd5b91908080601f016020809104026020016040519081016040528093929190818152602001838380828437600081840152601f19601f8201169050808301925050505050505091929192908035906020019092919050505061468a565b604051808060200180602001858152602001848152602001838103835287818151815260200191508051906020019080838360005b83811015611932578082015181840152602081019050611917565b50505050905090810190601f16801561195f5780820380516001836020036101000a031916815260200191505b50838103825286818151815260200191508051906020019080838360005b8381101561199857808201518184015260208101905061197d565b50505050905090810190601f1680156119c55780820380516001836020036101000a031916815260200191505b50965050505050505060405180910390f35b600015156119e785858585613473565b1515146119f357600080fd5b6119fc846122f6565b15611ac7573373ffffffffffffffffffffffffffffffffffffffff166004856040518082805190602001908083835b60208310611a4e5780518252602082019150602081019050602083039250611a2b565b6001836020036101000a038019825116818451168082178552505050505050905001915050908152602001604051809103902060009054906101000a900473ffffffffffffffffffffffffffffffffffffffff1673ffffffffffffffffffffffffffffffffffffffff1614611ac257600080fd5b611b70565b336004856040518082805190602001908083835b60208310611afe5780518252602082019150602081019050602083039250611adb565b6001836020036101000a038019825116818451168082178552505050505050905001915050908152602001604051809103902060006101000a81548173ffffffffffffffffffffffffffffffffffffffff021916908373ffffffffffffffffffffffffffffffffffffffff1602179055505b600060016000604051806060016040528087815260200185815260200186815250908060018154018082558091505090600182039060005260206000209060030201600090919290919091506000820151816000019080519060200190611bd89291906149d3565b50602082015181600101556040820151816002015550500390506002856040518082805190602001908083835b60208310611c285780518252602082019150602081019050602083039250611c05565b6001836020036101000a038019825116818451168082178552505050505050905001915050908152602001604051809103902081908060018154018082558091505090600182039060005260206000200160009091929091909150555084600360008381526020019081526020016000209080519060200190611cac929190614a53565b506001859080600181540180825580915050906001820390600052602060002001600090919290919091509080519060200190611cea929190614a53565b50505050505050565b3373ffffffffffffffffffffffffffffffffffffffff166004836040518082805190602001908083835b60208310611d405780518252602082019150602081019050602083039250611d1d565b6001836020036101000a038019825116818451168082178552505050505050905001915050908152602001604051809103902060009054906101000a900473ffffffffffffffffffffffffffffffffffffffff1673ffffffffffffffffffffffffffffffffffffffff1614611db457600080fd5b6005826040518082805190602001908083835b60208310611dea5780518252602082019150602081019050602083039250611dc7565b6001836020036101000a03801982511681845116808217855250505050505090500191505090815260200160405180910390208190806001815401808255809150509060018203906000526020600020016000909192909190916101000a81548173ffffffffffffffffffffffffffffffffffffffff021916908373ffffffffffffffffffffffffffffffffffffffff160217905550505050565b600080600090505b600780549050811015611fb957826040516020018082805190602001908083835b60208310611ed15780518252602082019150602081019050602083039250611eae565b6001836020036101000a0380198251168184511680821785525050505050509050019150506040516020818303038152906040528051906020012060078281548110611f1957fe5b906000526020600020016040516020018082805460018160011615610100020316600290048015611f815780601f10611f5f576101008083540402835291820191611f81565b820191906000526020600020905b815481529060010190602001808311611f6d575b5050915050604051602081830303815290604052805190602001201415611fac576001915050611fbf565b8080600101915050611e8d565b50600090505b919050565b60096020528060005260406000206000915054906101000a900473ffffffffffffffffffffffffffffffffffffffff1681565b6060823373ffffffffffffffffffffffffffffffffffffffff1660096000600a846040518082805190602001908083835b6020831061204b5780518252602082019150602081019050602083039250612028565b6001836020036101000a038019825116818451168082178552505050505050905001915050908152602001604051809103902054815260200190815260200160002060009054906101000a900473ffffffffffffffffffffffffffffffffffffffff1673ffffffffffffffffffffffffffffffffffffffff16146120ce57600080fd5b60006008600b6000600a886040518082805190602001908083835b6020831061210c57805182526020820191506020810190506020830392506120e9565b6001836020036101000a0380198251168184511680821785525050505050509050019150509081526020016040518091039020548152602001908152602001600020858154811061215957fe5b90600052602060002001548154811061216e57fe5b9060005260206000209060020201600001548154811061218a57fe5b90600052602060002090600302016000018054600181600116156101000203166002900480601f01602080910402602001604051908101604052809291908181526020018280546001816001161561010002031660029004801561222f5780601f106122045761010080835404028352916020019161222f565b820191906000526020600020905b81548152906001019060200180831161221257829003601f168201915b505050505091505092915050565b6007818154811061224a57fe5b906000526020600020016000915090508054600181600116156101000203166002900480601f0160208091040260200160405190810160405280929190818152602001828054600181600116156101000203166002900480156122ee5780601f106122c3576101008083540402835291602001916122ee565b820191906000526020600020905b8154815290600101906020018083116122d157829003601f168201915b505050505081565b600080600090505b60018054905081101561242a57826040516020018082805190602001908083835b60208310612342578051825260208201915060208101905060208303925061231f565b6001836020036101000a038019825116818451168082178552505050505050905001915050604051602081830303815290604052805190602001206001828154811061238a57fe5b9060005260206000200160405160200180828054600181600116156101000203166002900480156123f25780601f106123d05761010080835404028352918201916123f2565b820191906000526020600020905b8154815290600101906020018083116123de575b505091505060405160208183030381529060405280519060200120141561241d576001915050612430565b80806001019150506122fe565b50600090505b919050565b6006818154811061244257fe5b90600052602060002090600202016000915090508060000154908060010154905082565b600b602052816000526040600020818154811061247f57fe5b90600052602060002001600091509150505481565b600080600090505b6005836040518082805190602001908083835b602083106124d257805182526020820191506020810190506020830392506124af565b6001836020036101000a0380198251168184511680821785525050505050509050019150509081526020016040518091039020805490508110156125f9573373ffffffffffffffffffffffffffffffffffffffff166005846040518082805190602001908083835b6020831061255d578051825260208201915060208101905060208303925061253a565b6001836020036101000a0380198251168184511680821785525050505050509050019150509081526020016040518091039020828154811061259b57fe5b9060005260206000200160009054906101000a900473ffffffffffffffffffffffffffffffffffffffff1673ffffffffffffffffffffffffffffffffffffffff1614156125ec5760019150506125ff565b808060010191505061249c565b50600090505b919050565b600080823373ffffffffffffffffffffffffffffffffffffffff1660096000600a846040518082805190602001908083835b602083106126595780518252602082019150602081019050602083039250612636565b6001836020036101000a038019825116818451168082178552505050505050905001915050908152602001604051809103902054815260200190815260200160002060009054906101000a900473ffffffffffffffffffffffffffffffffffffffff1673ffffffffffffffffffffffffffffffffffffffff16146126dc57600080fd5b6006600a856040518082805190602001908083835b6020831061271457805182526020820191506020810190506020830392506126f1565b6001836020036101000a0380198251168184511680821785525050505050509050019150509081526020016040518091039020548154811061275257fe5b9060005260206000209060020201600001546006600a866040518082805190602001908083835b6020831061279c5780518252602082019150602081019050602083039250612779565b6001836020036101000a038019825116818451168082178552505050505050905001915050908152602001604051809103902054815481106127da57fe5b9060005260206000209060020201600101549250925050915091565b600080600090505b60088054905081101561287057836008828154811061281957fe5b9060005260206000209060020201600001541480156128555750826008828154811061284157fe5b906000526020600020906002020160010154145b156128635780915050612895565b80806001019150506127fe565b507fffffffffffffffffffffffffffffffffffffffffffffffffffffffffffffffff90505b92915050565b6060813373ffffffffffffffffffffffffffffffffffffffff1660096000600a846040518082805190602001908083835b602083106128ef57805182526020820191506020810190506020830392506128cc565b6001836020036101000a038019825116818451168082178552505050505050905001915050908152602001604051809103902054815260200190815260200160002060009054906101000a900473ffffffffffffffffffffffffffffffffffffffff1673ffffffffffffffffffffffffffffffffffffffff161461297257600080fd5b6060600b6000600a866040518082805190602001908083835b602083106129ae578051825260208201915060208101905060208303925061298b565b6001836020036101000a038019825116818451168082178552505050505050905001915050908152602001604051809103902054815260200190815260200160002080549050604051908082528060200260200182016040528015612a225781602001602082028038833980820191505090505b50905060008090505b600b6000600a876040518082805190602001908083835b60208310612a655780518252602082019150602081019050602083039250612a42565b6001836020036101000a038019825116818451168082178552505050505050905001915050908152602001604051809103902054815260200190815260200160002080549050811015612ba55760006008600b6000600a896040518082805190602001908083835b60208310612af05780518252602082019150602081019050602083039250612acd565b6001836020036101000a03801982511681845116808217855250505050505090500191505090815260200160405180910390205481526020019081526020016000208381548110612b3d57fe5b906000526020600020015481548110612b5257fe5b90600052602060002090600202016000015481548110612b6e57fe5b906000526020600020906003020160010154828281518110612b8c57fe5b6020026020010181815250508080600101915050612a2b565b508092505050919050565b6004818051602081018201805184825260208301602085012081835280955050505050506000915054906101000a900473ffffffffffffffffffffffffffffffffffffffff1681565b6005828051602081018201805184825260208301602085012081835280955050505050508181548110612c2857fe5b906000526020600020016000915091509054906101000a900473ffffffffffffffffffffffffffffffffffffffff1681565b6060813373ffffffffffffffffffffffffffffffffffffffff1660096000600a846040518082805190602001908083835b60208310612cae5780518252602082019150602081019050602083039250612c8b565b6001836020036101000a038019825116818451168082178552505050505050905001915050908152602001604051809103902054815260200190815260200160002060009054906101000a900473ffffffffffffffffffffffffffffffffffffffff1673ffffffffffffffffffffffffffffffffffffffff1614612d3157600080fd5b6060600b6000600a866040518082805190602001908083835b60208310612d6d5780518252602082019150602081019050602083039250612d4a565b6001836020036101000a038019825116818451168082178552505050505050905001915050908152602001604051809103902054815260200190815260200160002080549050604051908082528060200260200182016040528015612de15781602001602082028038833980820191505090505b50905060008090505b600b6000600a876040518082805190602001908083835b60208310612e245780518252602082019150602081019050602083039250612e01565b6001836020036101000a038019825116818451168082178552505050505050905001915050908152602001604051809103902054815260200190815260200160002080549050811015612f46576008600b6000600a886040518082805190602001908083835b60208310612ead5780518252602082019150602081019050602083039250612e8a565b6001836020036101000a03801982511681845116808217855250505050505090500191505090815260200160405180910390205481526020019081526020016000208281548110612efa57fe5b906000526020600020015481548110612f0f57fe5b906000526020600020906002020160010154828281518110612f2d57fe5b6020026020010181815250508080600101915050612dea565b508092505050919050565b606080600080843373ffffffffffffffffffffffffffffffffffffffff166004826040518082805190602001908083835b60208310612fa55780518252602082019150602081019050602083039250612f82565b6001836020036101000a038019825116818451168082178552505050505050905001915050908152602001604051809103902060009054906101000a900473ffffffffffffffffffffffffffffffffffffffff1673ffffffffffffffffffffffffffffffffffffffff161480613020575061301f81612494565b5b61302957600080fd5b60006002876040518082805190602001908083835b60208310613061578051825260208201915060208101905060208303925061303e565b6001836020036101000a03801982511681845116808217855250505050505090500191505090815260200160405180910390208054905014156130a357600080fd5b8560006002886040518082805190602001908083835b602083106130dc57805182526020820191506020810190506020830392506130b9565b6001836020036101000a0380198251168184511680821785525050505050509050019150509081526020016040518091039020600160028a6040518082805190602001908083835b602083106131475780518252602082019150602081019050602083039250613124565b6001836020036101000a038019825116818451168082178552505050505050905001915050908152602001604051809103902080549050038154811061318957fe5b90600052602060002001548154811061319e57fe5b906000526020600020906003020160000160006002896040518082805190602001908083835b602083106131e757805182526020820191506020810190506020830392506131c4565b6001836020036101000a0380198251168184511680821785525050505050509050019150509081526020016040518091039020600160028b6040518082805190602001908083835b60208310613252578051825260208201915060208101905060208303925061322f565b6001836020036101000a038019825116818451168082178552505050505050905001915050908152602001604051809103902080549050038154811061329457fe5b9060005260206000200154815481106132a957fe5b906000526020600020906003020160010154600060028a6040518082805190602001908083835b602083106132f357805182526020820191506020810190506020830392506132d0565b6001836020036101000a0380198251168184511680821785525050505050509050019150509081526020016040518091039020600160028c6040518082805190602001908083835b6020831061335e578051825260208201915060208101905060208303925061333b565b6001836020036101000a03801982511681845116808217855250505050505090500191505090815260200160405180910390208054905003815481106133a057fe5b9060005260206000200154815481106133b557fe5b906000526020600020906003020160020154828054600181600116156101000203166002900480601f01602080910402602001604051908101604052809291908181526020018280546001816001161561010002031660029004801561345c5780601f106134315761010080835404028352916020019161345c565b820191906000526020600020905b81548152906001019060200180831161343f57829003601f168201915b505050505092509450945094509450509193509193565b6000801515613481866122f6565b151514156134925760009050613804565b60008090505b6002866040518082805190602001908083835b602083106134ce57805182526020820191506020810190506020830392506134ab565b6001836020036101000a0380198251168184511680821785525050505050509050019150509081526020016040518091039020805490508110156137fe57846040516020018082805190602001908083835b602083106135435780518252602082019150602081019050602083039250613520565b6001836020036101000a0380198251168184511680821785525050505050509050019150506040516020818303038152906040528051906020012060006002886040518082805190602001908083835b602083106135b65780518252602082019150602081019050602083039250613593565b6001836020036101000a038019825116818451168082178552505050505050905001915050908152602001604051809103902083815481106135f457fe5b90600052602060002001548154811061360957fe5b906000526020600020906003020160000160405160200180828054600181600116156101000203166002900480156136785780601f10613656576101008083540402835291820191613678565b820191906000526020600020905b815481529060010190602001808311613664575b50509150506040516020818303038152906040528051906020012014801561373b57508360006002886040518082805190602001908083835b602083106136d457805182526020820191506020810190506020830392506136b1565b6001836020036101000a0380198251168184511680821785525050505050509050019150509081526020016040518091039020838154811061371257fe5b90600052602060002001548154811061372757fe5b906000526020600020906003020160020154145b80156137e257508260006002886040518082805190602001908083835b6020831061377b5780518252602082019150602081019050602083039250613758565b6001836020036101000a038019825116818451168082178552505050505050905001915050908152602001604051809103902083815481106137b957fe5b9060005260206000200154815481106137ce57fe5b906000526020600020906003020160010154145b156137f1576001915050613804565b8080600101915050613498565b50600090505b949350505050565b6000818154811061381957fe5b9060005260206000209060030201600091509050806000018054600181600116156101000203166002900480601f0160208091040260200160405190810160405280929190818152602001828054600181600116156101000203166002900480156138c55780601f1061389a576101008083540402835291602001916138c5565b820191906000526020600020905b8154815290600101906020018083116138a857829003601f168201915b5050505050908060010154908060020154905083565b600015156138e884611e85565b1515146138f457600080fd5b6000600160066040518060400160405280868152602001858152509080600181540180825580915050906001820390600052602060002090600202016000909192909190915060008201518160000155602082015181600101555050039050336009600083815260200190815260200160002060006101000a81548173ffffffffffffffffffffffffffffffffffffffff021916908373ffffffffffffffffffffffffffffffffffffffff16021790555080600a856040518082805190602001908083835b602083106139dc57805182526020820191506020810190506020830392506139b9565b6001836020036101000a0380198251168184511680821785525050505050509050019150509081526020016040518091039020819055506007849080600181540180825580915050906001820390600052602060002001600090919290919091509080519060200190613a50929190614a53565b505050505050565b6060813373ffffffffffffffffffffffffffffffffffffffff1660096000600a846040518082805190602001908083835b60208310613aac5780518252602082019150602081019050602083039250613a89565b6001836020036101000a038019825116818451168082178552505050505050905001915050908152602001604051809103902054815260200190815260200160002060009054906101000a900473ffffffffffffffffffffffffffffffffffffffff1673ffffffffffffffffffffffffffffffffffffffff1614613b2f57600080fd5b6060600b6000600a866040518082805190602001908083835b60208310613b6b5780518252602082019150602081019050602083039250613b48565b6001836020036101000a038019825116818451168082178552505050505050905001915050908152602001604051809103902054815260200190815260200160002080549050604051908082528060200260200182016040528015613bdf5781602001602082028038833980820191505090505b50905060008090505b600b6000600a876040518082805190602001908083835b60208310613c225780518252602082019150602081019050602083039250613bff565b6001836020036101000a038019825116818451168082178552505050505050905001915050908152602001604051809103902054815260200190815260200160002080549050811015613d625760006008600b6000600a896040518082805190602001908083835b60208310613cad5780518252602082019150602081019050602083039250613c8a565b6001836020036101000a03801982511681845116808217855250505050505090500191505090815260200160405180910390205481526020019081526020016000208381548110613cfa57fe5b906000526020600020015481548110613d0f57fe5b90600052602060002090600202016000015481548110613d2b57fe5b906000526020600020906003020160020154828281518110613d4957fe5b6020026020010181815250508080600101915050613be8565b508092505050919050565b600a818051602081018201805184825260208301602085012081835280955050505050506000915090505481565b60088181548110613da857fe5b90600052602060002090600202016000915090508060000154908060010154905082565b823373ffffffffffffffffffffffffffffffffffffffff1660096000600a846040518082805190602001908083835b60208310613e1e5780518252602082019150602081019050602083039250613dfb565b6001836020036101000a038019825116818451168082178552505050505050905001915050908152602001604051809103902054815260200190815260200160002060009054906101000a900473ffffffffffffffffffffffffffffffffffffffff1673ffffffffffffffffffffffffffffffffffffffff1614613ea157600080fd5b613eaa836122f6565b613eb357600080fd5b60001515613ec28585856142a2565b151514613ece57600080fd5b6000613fc76002856040518082805190602001908083835b60208310613f095780518252602082019150602081019050602083039250613ee6565b6001836020036101000a038019825116818451168082178552505050505050905001915050908152602001604051809103902060016002876040518082805190602001908083835b60208310613f745780518252602082019150602081019050602083039250613f51565b6001836020036101000a0380198251168184511680821785525050505050509050019150509081526020016040518091039020805490500381548110613fb657fe5b9060005260206000200154846127f6565b90507fffffffffffffffffffffffffffffffffffffffffffffffffffffffffffffffff81146140a1576000600a866040518082805190602001908083835b602083106140285780518252602082019150602081019050602083039250614005565b6001836020036101000a0380198251168184511680821785525050505050509050019150509081526020016040518091039020549050600b60008281526020019081526020016000208290806001815401808255809150509060018203906000526020600020016000909192909190915055505061429b565b60006001600860405180604001604052806002896040518082805190602001908083835b602083106140e857805182526020820191506020810190506020830392506140c5565b6001836020036101000a0380198251168184511680821785525050505050509050019150509081526020016040518091039020600160028b6040518082805190602001908083835b602083106141535780518252602082019150602081019050602083039250614130565b6001836020036101000a038019825116818451168082178552505050505050905001915050908152602001604051809103902080549050038154811061419557fe5b906000526020600020015481526020018781525090806001815401808255809150509060018203906000526020600020906002020160009091929091909150600082015181600001556020820151816001015550500390506000600a876040518082805190602001908083835b602083106142255780518252602082019150602081019050602083039250614202565b6001836020036101000a0380198251168184511680821785525050505050509050019150509081526020016040518091039020549050600b600082815260200190815260200160002082908060018154018082558091505090600182039060005260206000200160009091929091909150555050505b5050505050565b6000833373ffffffffffffffffffffffffffffffffffffffff1660096000600a846040518082805190602001908083835b602083106142f657805182526020820191506020810190506020830392506142d3565b6001836020036101000a038019825116818451168082178552505050505050905001915050908152602001604051809103902054815260200190815260200160002060009054906101000a900473ffffffffffffffffffffffffffffffffffffffff1673ffffffffffffffffffffffffffffffffffffffff161461437957600080fd5b833373ffffffffffffffffffffffffffffffffffffffff166004826040518082805190602001908083835b602083106143c757805182526020820191506020810190506020830392506143a4565b6001836020036101000a038019825116818451168082178552505050505050905001915050908152602001604051809103902060009054906101000a900473ffffffffffffffffffffffffffffffffffffffff1673ffffffffffffffffffffffffffffffffffffffff161480614442575061444181612494565b5b61444b57600080fd5b6000600a876040518082805190602001908083835b602083106144835780518252602082019150602081019050602083039250614460565b6001836020036101000a038019825116818451168082178552505050505050905001915050908152602001604051809103902054905060008090505b600b60008381526020019081526020016000208054905081101561467a576000600b600084815260200190815260200160002082815481106144fd57fe5b9060005260206000200154905060008090505b6002896040518082805190602001908083835b602083106145465780518252602082019150602081019050602083039250614523565b6001836020036101000a03801982511681845116808217855250505050505090500191505090815260200160405180910390208054905081101561466b576008828154811061459157fe5b90600052602060002090600202016000015460028a6040518082805190602001908083835b602083106145d957805182526020820191506020810190506020830392506145b6565b6001836020036101000a0380198251168184511680821785525050505050509050019150509081526020016040518091039020828154811061461757fe5b906000526020600020015414801561464c5750876008838154811061463857fe5b906000526020600020906002020160010154145b1561465e576001965050505050614681565b8080600101915050614510565b505080806001019150506144bf565b5060009350505b50509392505050565b606080600080853373ffffffffffffffffffffffffffffffffffffffff1660096000600a846040518082805190602001908083835b602083106146e257805182526020820191506020810190506020830392506146bf565b6001836020036101000a038019825116818451168082178552505050505050905001915050908152602001604051809103902054815260200190815260200160002060009054906101000a900473ffffffffffffffffffffffffffffffffffffffff1673ffffffffffffffffffffffffffffffffffffffff161461476557600080fd5b60006008600b6000600a8b6040518082805190602001908083835b602083106147a35780518252602082019150602081019050602083039250614780565b6001836020036101000a038019825116818451168082178552505050505050905001915050908152602001604051809103902054815260200190815260200160002088815481106147f057fe5b90600052602060002001548154811061480557fe5b9060005260206000209060020201600001549050600360008281526020019081526020016000206000828154811061483957fe5b90600052602060002090600302016000016000838154811061485757fe5b9060005260206000209060030201600101546000848154811061487657fe5b906000526020600020906003020160020154838054600181600116156101000203166002900480601f01602080910402602001604051908101604052809291908181526020018280546001816001161561010002031660029004801561491d5780601f106148f25761010080835404028352916020019161491d565b820191906000526020600020905b81548152906001019060200180831161490057829003601f168201915b50505050509350828054600181600116156101000203166002900480601f0160208091040260200160405190810160405280929190818152602001828054600181600116156101000203166002900480156149b95780601f1061498e576101008083540402835291602001916149b9565b820191906000526020600020905b81548152906001019060200180831161499c57829003601f168201915b505050505092509550955095509550505092959194509250565b828054600181600116156101000203166002900490600052602060002090601f016020900481019282601f10614a1457805160ff1916838001178555614a42565b82800160010185558215614a42579182015b82811115614a41578251825591602001919060010190614a26565b5b509050614a4f9190614ad3565b5090565b828054600181600116156101000203166002900490600052602060002090601f016020900481019282601f10614a9457805160ff1916838001178555614ac2565b82800160010185558215614ac2579182015b82811115614ac1578251825591602001919060010190614aa6565b5b509050614acf9190614ad3565b5090565b614af591905b80821115614af1576000816000905550600101614ad9565b5090565b9056fea265627a7a7231582081227fdcffe5665e90a64a2d538c425b7d3c4c22d2a89408a07b94b9b54be09064736f6c63430005100032",
  "source": "pragma solidity >=0.5.0 <0.6.0;\r\nimport \"./ProductRepo.sol\";\r\n\r\ncontract BillRepo is ProductRepo{\r\n\r\n\r\n    struct BillEntry {\r\n        uint productIndex;\r\n        uint quantity;\r\n    }\r\n\r\n    struct Bill {\r\n        uint date; // in miliseconds from 1 January 1970\r\n        uint total; // again, multiplied by 100\r\n    }\r\n\r\n    Bill[] public bills;\r\n    string[] public orderIds;\r\n    BillEntry[] public entries;\r\n\r\n    mapping (uint => address) public billToOwner;\r\n    mapping (string => uint) public orderToBillId;\r\n    mapping (uint => uint[]) public billIdToEntryId;\r\n\r\n    modifier isOwner(string memory orderId) {\r\n        require(billToOwner[orderToBillId[orderId]] == msg.sender);\r\n        _;\r\n    }\r\n    function idExistsOrders(string memory id) public view returns (bool) {\r\n        for (uint index = 0; index < orderIds.length; index++) {\r\n            if (keccak256(abi.encodePacked(orderIds[index])) == keccak256(abi.encodePacked(id))) {\r\n                return true;\r\n            }\r\n        }\r\n        return false;\r\n    }\r\n\r\n    function entryDeployedInCurrentBill(string memory orderId, string memory productId, uint quantity) public  isOwner(orderId)  hasPermissions(productId) view returns(bool) {\r\n        uint billIndex = orderToBillId[orderId];\r\n        for (uint billEntryIndex = 0; billEntryIndex < billIdToEntryId[billIndex].length; billEntryIndex++) {\r\n            uint entryIndex = billIdToEntryId[billIndex][billEntryIndex];\r\n            for (uint product = 0; product < idToProducts[productId].length; product++) {\r\n                if (idToProducts[productId][product] == entries[entryIndex].productIndex &&\r\n                    entries[entryIndex].quantity == quantity) {\r\n                    return true;\r\n                }\r\n            }\r\n        }\r\n        return false;\r\n    }\r\n\r\n    function entryExists(uint prodIndex, uint quantity) public view returns (int) {\r\n        for (int index = 0; uint(index) < entries.length; index++) {\r\n            if (entries[uint(index)].productIndex == prodIndex && entries[uint(index)].quantity == quantity) {\r\n                return index;\r\n            }\r\n        }\r\n        return -1;\r\n    }\r\n\r\n\r\n    // require order id not exist\r\n    function createBill(string memory orderId, uint date, uint total) public {\r\n        require(idExistsOrders(orderId) == false);\r\n        uint id = bills.push(Bill(date, total)) - 1;\r\n        billToOwner[id] = msg.sender;\r\n        orderToBillId[orderId] = id;\r\n        orderIds.push(orderId);\r\n    }\r\n\r\n    // check if entry exists, if so, reuse it\r\n    function addEntry(string memory orderId,  string memory productId, uint quantity) public isOwner(orderId) {\r\n        require(idExists(productId));\r\n        require(entryDeployedInCurrentBill(orderId, productId, quantity) == false);\r\n        int index = entryExists(idToProducts[productId][idToProducts[productId].length - 1], quantity);\r\n        if (index != -1) {\r\n            uint billIndex = orderToBillId[orderId];\r\n            billIdToEntryId[billIndex].push(uint(index));\r\n        }\r\n        else {\r\n            uint entryIndex = entries.push(BillEntry(idToProducts[productId][idToProducts[productId].length - 1], quantity)) - 1;\r\n            uint billIndex = orderToBillId[orderId];\r\n            billIdToEntryId[billIndex].push(entryIndex);\r\n        }\r\n    }\r\n\r\n    function getBillByOrderId(string memory orderId) public isOwner(orderId) view returns (uint, uint) {\r\n        return (bills[orderToBillId[orderId]].date, bills[orderToBillId[orderId]].total);\r\n    }\r\n\r\n\r\n    function getProductForEntry(string memory orderId, uint entryNumber) public isOwner(orderId) view returns(string memory, string memory, uint, uint) {\r\n        uint index = entries[billIdToEntryId[orderToBillId[orderId]][entryNumber]].productIndex;\r\n        return (\r\n        productToId[index],\r\n        products[index].name,\r\n        products[index].VAT,\r\n        products[index].priceWithVAT);\r\n    }\r\n\r\n    function getProductNameForEntry(string memory orderId, uint entryNumber) public isOwner(orderId) view returns (string memory) {\r\n        return products[entries[billIdToEntryId[orderToBillId[orderId]][entryNumber]].productIndex].name;\r\n    }\r\n\r\n    function getVATsByOrderId(string memory orderId) public isOwner(orderId) view returns (uint[] memory) {\r\n        uint[] memory VATs = new uint[](billIdToEntryId[orderToBillId[orderId]].length);\r\n        for (uint i = 0; i < billIdToEntryId[orderToBillId[orderId]].length; i++) {\r\n            VATs[i] = products[entries[billIdToEntryId[orderToBillId[orderId]][i]].productIndex].VAT;\r\n        }\r\n        return VATs;\r\n    }\r\n\r\n    function getPricesByOrderId(string memory orderId) public isOwner(orderId) view returns (uint[] memory) {\r\n        uint[] memory prices = new uint[](billIdToEntryId[orderToBillId[orderId]].length);\r\n        for (uint i = 0; i < billIdToEntryId[orderToBillId[orderId]].length; i++) {\r\n            prices[i] = products[entries[billIdToEntryId[orderToBillId[orderId]][i]].productIndex].priceWithVAT;\r\n        }\r\n        return prices;\r\n    }\r\n\r\n    function getQuantitiesByOrderId(string memory orderId) public isOwner(orderId) view returns (uint[] memory) {\r\n        uint[] memory quantities = new uint[](billIdToEntryId[orderToBillId[orderId]].length);\r\n        for (uint i = 0; i < billIdToEntryId[orderToBillId[orderId]].length; i++) {\r\n            quantities[i] = entries[billIdToEntryId[orderToBillId[orderId]][i]].quantity;\r\n        }\r\n        return quantities;\r\n    }\r\n\r\n}\r\n",
  "sourcePath": "H:\\Faculta\\Licenta\\webshop\\Licenta\\blockchain\\contracts\\BillRepo.sol",
  "compiler": {
    "name": "solc",
    "version": "0.5.16+commit.9c3226ce.Emscripten.clang"
  },
  "schemaVersion": "3.4.7",
  "updatedAt": "2022-06-06T14:46:46.312Z",
  "devdoc": {
    "methods": {}
  },
  "userdoc": {
    "methods": {}
  }
}