{
  "contractName": "BillRepo",
  "abi": [
    {
      "constant": false,
      "inputs": [
        {
          "internalType": "string",
          "name": "id",
          "type": "string"
        },
        {
          "internalType": "string",
          "name": "name",
          "type": "string"
        },
        {
          "internalType": "uint256",
          "name": "totalPrice",
          "type": "uint256"
        },
        {
          "internalType": "uint256",
          "name": "VAT",
          "type": "uint256"
        }
      ],
      "name": "addProduct",
      "outputs": [],
      "payable": false,
      "stateMutability": "nonpayable",
      "type": "function"
    },
    {
      "constant": true,
      "inputs": [
        {
          "internalType": "uint256",
          "name": "",
          "type": "uint256"
        },
        {
          "internalType": "uint256",
          "name": "",
          "type": "uint256"
        }
      ],
      "name": "billIdToEntryId",
      "outputs": [
        {
          "internalType": "uint256",
          "name": "",
          "type": "uint256"
        }
      ],
      "payable": false,
      "stateMutability": "view",
      "type": "function"
    },
    {
      "constant": true,
      "inputs": [
        {
          "internalType": "uint256",
          "name": "",
          "type": "uint256"
        }
      ],
      "name": "billToOwner",
      "outputs": [
        {
          "internalType": "address",
          "name": "",
          "type": "address"
        }
      ],
      "payable": false,
      "stateMutability": "view",
      "type": "function"
    },
    {
      "constant": true,
      "inputs": [
        {
          "internalType": "uint256",
          "name": "",
          "type": "uint256"
        }
      ],
      "name": "bills",
      "outputs": [
        {
          "internalType": "uint256",
          "name": "date",
          "type": "uint256"
        },
        {
          "internalType": "uint256",
          "name": "total",
          "type": "uint256"
        }
      ],
      "payable": false,
      "stateMutability": "view",
      "type": "function"
    },
    {
      "constant": true,
      "inputs": [
        {
          "internalType": "uint256",
          "name": "",
          "type": "uint256"
        }
      ],
      "name": "entries",
      "outputs": [
        {
          "internalType": "uint256",
          "name": "productIndex",
          "type": "uint256"
        },
        {
          "internalType": "uint256",
          "name": "quantity",
          "type": "uint256"
        }
      ],
      "payable": false,
      "stateMutability": "view",
      "type": "function"
    },
    {
      "constant": true,
      "inputs": [
        {
          "internalType": "string",
          "name": "id",
          "type": "string"
        }
      ],
      "name": "getProduct",
      "outputs": [
        {
          "internalType": "string",
          "name": "",
          "type": "string"
        },
        {
          "internalType": "string",
          "name": "",
          "type": "string"
        },
        {
          "internalType": "uint256",
          "name": "",
          "type": "uint256"
        },
        {
          "internalType": "uint256",
          "name": "",
          "type": "uint256"
        }
      ],
      "payable": false,
      "stateMutability": "view",
      "type": "function"
    },
    {
      "constant": false,
      "inputs": [
        {
          "internalType": "string",
          "name": "id",
          "type": "string"
        },
        {
          "internalType": "address",
          "name": "newPermission",
          "type": "address"
        }
      ],
      "name": "grantPermissions",
      "outputs": [],
      "payable": false,
      "stateMutability": "nonpayable",
      "type": "function"
    },
    {
      "constant": true,
      "inputs": [
        {
          "internalType": "string",
          "name": "id",
          "type": "string"
        }
      ],
      "name": "idExists",
      "outputs": [
        {
          "internalType": "bool",
          "name": "",
          "type": "bool"
        }
      ],
      "payable": false,
      "stateMutability": "view",
      "type": "function"
    },
    {
      "constant": true,
      "inputs": [
        {
          "internalType": "string",
          "name": "id",
          "type": "string"
        }
      ],
      "name": "inPermissions",
      "outputs": [
        {
          "internalType": "bool",
          "name": "",
          "type": "bool"
        }
      ],
      "payable": false,
      "stateMutability": "view",
      "type": "function"
    },
    {
      "constant": true,
      "inputs": [
        {
          "internalType": "uint256",
          "name": "",
          "type": "uint256"
        }
      ],
      "name": "orderIds",
      "outputs": [
        {
          "internalType": "string",
          "name": "",
          "type": "string"
        }
      ],
      "payable": false,
      "stateMutability": "view",
      "type": "function"
    },
    {
      "constant": true,
      "inputs": [
        {
          "internalType": "string",
          "name": "",
          "type": "string"
        }
      ],
      "name": "orderToBillId",
      "outputs": [
        {
          "internalType": "uint256",
          "name": "",
          "type": "uint256"
        }
      ],
      "payable": false,
      "stateMutability": "view",
      "type": "function"
    },
    {
      "constant": true,
      "inputs": [
        {
          "internalType": "string",
          "name": "id",
          "type": "string"
        },
        {
          "internalType": "string",
          "name": "name",
          "type": "string"
        },
        {
          "internalType": "uint256",
          "name": "totalPrice",
          "type": "uint256"
        },
        {
          "internalType": "uint256",
          "name": "VAT",
          "type": "uint256"
        }
      ],
      "name": "productAdded",
      "outputs": [
        {
          "internalType": "bool",
          "name": "",
          "type": "bool"
        }
      ],
      "payable": false,
      "stateMutability": "view",
      "type": "function"
    },
    {
      "constant": true,
      "inputs": [
        {
          "internalType": "string",
          "name": "",
          "type": "string"
        }
      ],
      "name": "productToOwner",
      "outputs": [
        {
          "internalType": "address",
          "name": "",
          "type": "address"
        }
      ],
      "payable": false,
      "stateMutability": "view",
      "type": "function"
    },
    {
      "constant": true,
      "inputs": [
        {
          "internalType": "string",
          "name": "",
          "type": "string"
        },
        {
          "internalType": "uint256",
          "name": "",
          "type": "uint256"
        }
      ],
      "name": "productToPermissions",
      "outputs": [
        {
          "internalType": "address",
          "name": "",
          "type": "address"
        }
      ],
      "payable": false,
      "stateMutability": "view",
      "type": "function"
    },
    {
      "constant": true,
      "inputs": [
        {
          "internalType": "uint256",
          "name": "",
          "type": "uint256"
        }
      ],
      "name": "products",
      "outputs": [
        {
          "internalType": "string",
          "name": "name",
          "type": "string"
        },
        {
          "internalType": "uint256",
          "name": "VAT",
          "type": "uint256"
        },
        {
          "internalType": "uint256",
          "name": "priceWithVAT",
          "type": "uint256"
        }
      ],
      "payable": false,
      "stateMutability": "view",
      "type": "function"
    },
    {
      "constant": true,
      "inputs": [
        {
          "internalType": "string",
          "name": "id",
          "type": "string"
        }
      ],
      "name": "idExistsOrders",
      "outputs": [
        {
          "internalType": "bool",
          "name": "",
          "type": "bool"
        }
      ],
      "payable": false,
      "stateMutability": "view",
      "type": "function"
    },
    {
      "constant": true,
      "inputs": [
        {
          "internalType": "string",
          "name": "orderId",
          "type": "string"
        },
        {
          "internalType": "string",
          "name": "productId",
          "type": "string"
        },
        {
          "internalType": "uint256",
          "name": "quantity",
          "type": "uint256"
        }
      ],
      "name": "entryDeployedInCurrentBill",
      "outputs": [
        {
          "internalType": "bool",
          "name": "",
          "type": "bool"
        }
      ],
      "payable": false,
      "stateMutability": "view",
      "type": "function"
    },
    {
      "constant": true,
      "inputs": [
        {
          "internalType": "uint256",
          "name": "prodIndex",
          "type": "uint256"
        },
        {
          "internalType": "uint256",
          "name": "quantity",
          "type": "uint256"
        }
      ],
      "name": "entryExists",
      "outputs": [
        {
          "internalType": "int256",
          "name": "",
          "type": "int256"
        }
      ],
      "payable": false,
      "stateMutability": "view",
      "type": "function"
    },
    {
      "constant": false,
      "inputs": [
        {
          "internalType": "string",
          "name": "orderId",
          "type": "string"
        },
        {
          "internalType": "uint256",
          "name": "date",
          "type": "uint256"
        },
        {
          "internalType": "uint256",
          "name": "total",
          "type": "uint256"
        }
      ],
      "name": "createBill",
      "outputs": [],
      "payable": false,
      "stateMutability": "nonpayable",
      "type": "function"
    },
    {
      "constant": false,
      "inputs": [
        {
          "internalType": "string",
          "name": "orderId",
          "type": "string"
        },
        {
          "internalType": "string",
          "name": "productId",
          "type": "string"
        },
        {
          "internalType": "uint256",
          "name": "quantity",
          "type": "uint256"
        }
      ],
      "name": "addEntry",
      "outputs": [],
      "payable": false,
      "stateMutability": "nonpayable",
      "type": "function"
    },
    {
      "constant": true,
      "inputs": [
        {
          "internalType": "string",
          "name": "orderId",
          "type": "string"
        }
      ],
      "name": "getBillByOrderId",
      "outputs": [
        {
          "internalType": "uint256",
          "name": "",
          "type": "uint256"
        },
        {
          "internalType": "uint256",
          "name": "",
          "type": "uint256"
        }
      ],
      "payable": false,
      "stateMutability": "view",
      "type": "function"
    },
    {
      "constant": true,
      "inputs": [
        {
          "internalType": "string",
          "name": "orderId",
          "type": "string"
        },
        {
          "internalType": "string",
          "name": "productId",
          "type": "string"
        }
      ],
      "name": "getProductForEntry",
      "outputs": [
        {
          "internalType": "string",
          "name": "",
          "type": "string"
        },
        {
          "internalType": "string",
          "name": "",
          "type": "string"
        },
        {
          "internalType": "uint256",
          "name": "",
          "type": "uint256"
        },
        {
          "internalType": "uint256",
          "name": "",
          "type": "uint256"
        }
      ],
      "payable": false,
      "stateMutability": "view",
      "type": "function"
    }
  ],
  "bytecode": "0x608060405234801561001057600080fd5b50613c91806100206000396000f3fe608060405234801561001057600080fd5b50600436106101425760003560e01c8063426ed70e116100b85780637ed5e55b1161007c5780637ed5e55b14610eae5780638e8d080a14610f7d578063b30906d41461104c578063be0968e814611095578063beb41a5c146111f1578063d87e18851461136557610142565b8063426ed70e146108cd5780635eb33883146109c857806368111cce14610acd57806373b0404c14610c7b5780637acc0b2014610df957610142565b806326638e861161010a57806326638e861461057057806328bdcde8146106435780632dc3b1c71461068c57806332d2f045146106d857806334878919146107ab5780633a1013db1461088157610142565b806301cecd14146101475780630286828e146102ad578063189ce0e6146103885780631d77d4891461045b57806323722084146104c9575b600080fd5b6102ab6004803603608081101561015d57600080fd5b810190808035906020019064010000000081111561017a57600080fd5b82018360208201111561018c57600080fd5b803590602001918460018302840111640100000000831117156101ae57600080fd5b91908080601f016020809104026020016040519081016040528093929190818152602001838380828437600081840152601f19601f8201169050808301925050505050505091929192908035906020019064010000000081111561021157600080fd5b82018360208201111561022357600080fd5b8035906020019184600183028401116401000000008311171561024557600080fd5b91908080601f016020809104026020016040519081016040528093929190818152602001838380828437600081840152601f19601f82011690508083019250505050505050919291929080359060200190929190803590602001909291905050506115aa565b005b610386600480360360408110156102c357600080fd5b81019080803590602001906401000000008111156102e057600080fd5b8201836020820111156102f257600080fd5b8035906020019184600183028401116401000000008311171561031457600080fd5b91908080601f016020809104026020016040519081016040528093929190818152602001838380828437600081840152601f19601f820116905080830192505050505050509192919290803573ffffffffffffffffffffffffffffffffffffffff16906020019092919050505061189e565b005b6104416004803603602081101561039e57600080fd5b81019080803590602001906401000000008111156103bb57600080fd5b8201836020820111156103cd57600080fd5b803590602001918460018302840111640100000000831117156103ef57600080fd5b91908080601f016020809104026020016040519081016040528093929190818152602001838380828437600081840152601f19601f820116905080830192505050505050509192919290505050611a30565b604051808215151515815260200191505060405180910390f35b6104876004803603602081101561047157600080fd5b8101908080359060200190929190505050611b6f565b604051808273ffffffffffffffffffffffffffffffffffffffff1673ffffffffffffffffffffffffffffffffffffffff16815260200191505060405180910390f35b6104f5600480360360208110156104df57600080fd5b8101908080359060200190929190505050611ba2565b6040518080602001828103825283818151815260200191508051906020019080838360005b8381101561053557808201518184015260208101905061051a565b50505050905090810190601f1680156105625780820380516001836020036101000a031916815260200191505b509250505060405180910390f35b6106296004803603602081101561058657600080fd5b81019080803590602001906401000000008111156105a357600080fd5b8201836020820111156105b557600080fd5b803590602001918460018302840111640100000000831117156105d757600080fd5b91908080601f016020809104026020016040519081016040528093929190818152602001838380828437600081840152601f19601f820116905080830192505050505050509192919290505050611c5b565b604051808215151515815260200191505060405180910390f35b61066f6004803603602081101561065957600080fd5b8101908080359060200190929190505050611d9a565b604051808381526020018281526020019250505060405180910390f35b6106c2600480360360408110156106a257600080fd5b810190808035906020019092919080359060200190929190505050611dcb565b6040518082815260200191505060405180910390f35b610791600480360360208110156106ee57600080fd5b810190808035906020019064010000000081111561070b57600080fd5b82018360208201111561071d57600080fd5b8035906020019184600183028401116401000000008311171561073f57600080fd5b91908080601f016020809104026020016040519081016040528093929190818152602001838380828437600081840152601f19601f820116905080830192505050505050509192919290505050611df9565b604051808215151515815260200191505060405180910390f35b610864600480360360208110156107c157600080fd5b81019080803590602001906401000000008111156107de57600080fd5b8201836020820111156107f057600080fd5b8035906020019184600183028401116401000000008311171561081257600080fd5b91908080601f016020809104026020016040519081016040528093929190818152602001838380828437600081840152601f19601f820116905080830192505050505050509192919290505050611f69565b604051808381526020018281526020019250505060405180910390f35b6108b76004803603604081101561089757600080fd5b81019080803590602001909291908035906020019092919050505061215b565b6040518082815260200191505060405180910390f35b610986600480360360208110156108e357600080fd5b810190808035906020019064010000000081111561090057600080fd5b82018360208201111561091257600080fd5b8035906020019184600183028401116401000000008311171561093457600080fd5b91908080601f016020809104026020016040519081016040528093929190818152602001838380828437600081840152601f19601f820116905080830192505050505050509192919290505050612200565b604051808273ffffffffffffffffffffffffffffffffffffffff1673ffffffffffffffffffffffffffffffffffffffff16815260200191505060405180910390f35b610a8b600480360360408110156109de57600080fd5b81019080803590602001906401000000008111156109fb57600080fd5b820183602082011115610a0d57600080fd5b80359060200191846001830284011164010000000083111715610a2f57600080fd5b91908080601f016020809104026020016040519081016040528093929190818152602001838380828437600081840152601f19601f82011690508083019250505050505050919291929080359060200190929190505050612249565b604051808273ffffffffffffffffffffffffffffffffffffffff1673ffffffffffffffffffffffffffffffffffffffff16815260200191505060405180910390f35b610b8660048036036020811015610ae357600080fd5b8101908080359060200190640100000000811115610b0057600080fd5b820183602082011115610b1257600080fd5b80359060200191846001830284011164010000000083111715610b3457600080fd5b91908080601f016020809104026020016040519081016040528093929190818152602001838380828437600081840152601f19601f8201169050808301925050505050505091929192905050506122aa565b604051808060200180602001858152602001848152602001838103835287818151815260200191508051906020019080838360005b83811015610bd6578082015181840152602081019050610bbb565b50505050905090810190601f168015610c035780820380516001836020036101000a031916815260200191505b50838103825286818151815260200191508051906020019080838360005b83811015610c3c578082015181840152602081019050610c21565b50505050905090810190601f168015610c695780820380516001836020036101000a031916815260200191505b50965050505050505060405180910390f35b610ddf60048036036080811015610c9157600080fd5b8101908080359060200190640100000000811115610cae57600080fd5b820183602082011115610cc057600080fd5b80359060200191846001830284011164010000000083111715610ce257600080fd5b91908080601f016020809104026020016040519081016040528093929190818152602001838380828437600081840152601f19601f82011690508083019250505050505050919291929080359060200190640100000000811115610d4557600080fd5b820183602082011115610d5757600080fd5b80359060200191846001830284011164010000000083111715610d7957600080fd5b91908080601f016020809104026020016040519081016040528093929190818152602001838380828437600081840152601f19601f82011690508083019250505050505050919291929080359060200190929190803590602001909291905050506127cc565b604051808215151515815260200191505060405180910390f35b610e2560048036036020811015610e0f57600080fd5b8101908080359060200190929190505050612b65565b6040518080602001848152602001838152602001828103825285818151815260200191508051906020019080838360005b83811015610e71578082015181840152602081019050610e56565b50505050905090810190601f168015610e9e5780820380516001836020036101000a031916815260200191505b5094505050505060405180910390f35b610f7b60048036036060811015610ec457600080fd5b8101908080359060200190640100000000811115610ee157600080fd5b820183602082011115610ef357600080fd5b80359060200191846001830284011164010000000083111715610f1557600080fd5b91908080601f016020809104026020016040519081016040528093929190818152602001838380828437600081840152601f19601f8201169050808301925050505050505091929192908035906020019092919080359060200190929190505050612c34565b005b61103660048036036020811015610f9357600080fd5b8101908080359060200190640100000000811115610fb057600080fd5b820183602082011115610fc257600080fd5b80359060200191846001830284011164010000000083111715610fe457600080fd5b91908080601f016020809104026020016040519081016040528093929190818152602001838380828437600081840152601f19601f820116905080830192505050505050509192919290505050612db1565b6040518082815260200191505060405180910390f35b6110786004803603602081101561106257600080fd5b8101908080359060200190929190505050612ddf565b604051808381526020018281526020019250505060405180910390f35b6111ef600480360360608110156110ab57600080fd5b81019080803590602001906401000000008111156110c857600080fd5b8201836020820111156110da57600080fd5b803590602001918460018302840111640100000000831117156110fc57600080fd5b91908080601f016020809104026020016040519081016040528093929190818152602001838380828437600081840152601f19601f8201169050808301925050505050505091929192908035906020019064010000000081111561115f57600080fd5b82018360208201111561117157600080fd5b8035906020019184600183028401116401000000008311171561119357600080fd5b91908080601f016020809104026020016040519081016040528093929190818152602001838380828437600081840152601f19601f82011690508083019250505050505050919291929080359060200190929190505050612e10565b005b61134b6004803603606081101561120757600080fd5b810190808035906020019064010000000081111561122457600080fd5b82018360208201111561123657600080fd5b8035906020019184600183028401116401000000008311171561125857600080fd5b91908080601f016020809104026020016040519081016040528093929190818152602001838380828437600081840152601f19601f820116905080830192505050505050509192919290803590602001906401000000008111156112bb57600080fd5b8201836020820111156112cd57600080fd5b803590602001918460018302840111640100000000831117156112ef57600080fd5b91908080601f016020809104026020016040519081016040528093929190818152602001838380828437600081840152601f19601f820116905080830192505050505050509192919290803590602001909291905050506132e6565b604051808215151515815260200191505060405180910390f35b6114b56004803603604081101561137b57600080fd5b810190808035906020019064010000000081111561139857600080fd5b8201836020820111156113aa57600080fd5b803590602001918460018302840111640100000000831117156113cc57600080fd5b91908080601f016020809104026020016040519081016040528093929190818152602001838380828437600081840152601f19601f8201169050808301925050505050505091929192908035906020019064010000000081111561142f57600080fd5b82018360208201111561144157600080fd5b8035906020019184600183028401116401000000008311171561146357600080fd5b91908080601f016020809104026020016040519081016040528093929190818152602001838380828437600081840152601f19601f8201169050808301925050505050505091929192905050506136ce565b604051808060200180602001858152602001848152602001838103835287818151815260200191508051906020019080838360005b838110156115055780820151818401526020810190506114ea565b50505050905090810190601f1680156115325780820380516001836020036101000a031916815260200191505b50838103825286818151815260200191508051906020019080838360005b8381101561156b578082015181840152602081019050611550565b50505050905090810190601f1680156115985780820380516001836020036101000a031916815260200191505b50965050505050505060405180910390f35b600015156115ba858585856127cc565b1515146115c657600080fd5b6115cf84611c5b565b1561169a573373ffffffffffffffffffffffffffffffffffffffff166003856040518082805190602001908083835b6020831061162157805182526020820191506020810190506020830392506115fe565b6001836020036101000a038019825116818451168082178552505050505050905001915050908152602001604051809103902060009054906101000a900473ffffffffffffffffffffffffffffffffffffffff1673ffffffffffffffffffffffffffffffffffffffff161461169557600080fd5b611743565b336003856040518082805190602001908083835b602083106116d157805182526020820191506020810190506020830392506116ae565b6001836020036101000a038019825116818451168082178552505050505050905001915050908152602001604051809103902060006101000a81548173ffffffffffffffffffffffffffffffffffffffff021916908373ffffffffffffffffffffffffffffffffffffffff1602179055505b6000600160006040518060600160405280878152602001858152602001868152509080600181540180825580915050906001820390600052602060002090600302016000909192909190915060008201518160000190805190602001906117ab929190613b37565b50602082015181600101556040820151816002015550500390506002856040518082805190602001908083835b602083106117fb57805182526020820191506020810190506020830392506117d8565b6001836020036101000a03801982511681845116808217855250505050505090500191505090815260200160405180910390208190806001815401808255809150509060018203906000526020600020016000909192909190915055506001859080600181540180825580915050906001820390600052602060002001600090919290919091509080519060200190611895929190613bb7565b50505050505050565b3373ffffffffffffffffffffffffffffffffffffffff166003836040518082805190602001908083835b602083106118eb57805182526020820191506020810190506020830392506118c8565b6001836020036101000a038019825116818451168082178552505050505050905001915050908152602001604051809103902060009054906101000a900473ffffffffffffffffffffffffffffffffffffffff1673ffffffffffffffffffffffffffffffffffffffff161461195f57600080fd5b6004826040518082805190602001908083835b602083106119955780518252602082019150602081019050602083039250611972565b6001836020036101000a03801982511681845116808217855250505050505090500191505090815260200160405180910390208190806001815401808255809150509060018203906000526020600020016000909192909190916101000a81548173ffffffffffffffffffffffffffffffffffffffff021916908373ffffffffffffffffffffffffffffffffffffffff160217905550505050565b600080600090505b600680549050811015611b6457826040516020018082805190602001908083835b60208310611a7c5780518252602082019150602081019050602083039250611a59565b6001836020036101000a0380198251168184511680821785525050505050509050019150506040516020818303038152906040528051906020012060068281548110611ac457fe5b906000526020600020016040516020018082805460018160011615610100020316600290048015611b2c5780601f10611b0a576101008083540402835291820191611b2c565b820191906000526020600020905b815481529060010190602001808311611b18575b5050915050604051602081830303815290604052805190602001201415611b57576001915050611b6a565b8080600101915050611a38565b50600090505b919050565b60086020528060005260406000206000915054906101000a900473ffffffffffffffffffffffffffffffffffffffff1681565b60068181548110611baf57fe5b906000526020600020016000915090508054600181600116156101000203166002900480601f016020809104026020016040519081016040528092919081815260200182805460018160011615610100020316600290048015611c535780601f10611c2857610100808354040283529160200191611c53565b820191906000526020600020905b815481529060010190602001808311611c3657829003601f168201915b505050505081565b600080600090505b600180549050811015611d8f57826040516020018082805190602001908083835b60208310611ca75780518252602082019150602081019050602083039250611c84565b6001836020036101000a0380198251168184511680821785525050505050509050019150506040516020818303038152906040528051906020012060018281548110611cef57fe5b906000526020600020016040516020018082805460018160011615610100020316600290048015611d575780601f10611d35576101008083540402835291820191611d57565b820191906000526020600020905b815481529060010190602001808311611d43575b5050915050604051602081830303815290604052805190602001201415611d82576001915050611d95565b8080600101915050611c63565b50600090505b919050565b60058181548110611da757fe5b90600052602060002090600202016000915090508060000154908060010154905082565b600a6020528160005260406000208181548110611de457fe5b90600052602060002001600091509150505481565b600080600090505b6004836040518082805190602001908083835b60208310611e375780518252602082019150602081019050602083039250611e14565b6001836020036101000a038019825116818451168082178552505050505050905001915050908152602001604051809103902080549050811015611f5e573373ffffffffffffffffffffffffffffffffffffffff166004846040518082805190602001908083835b60208310611ec25780518252602082019150602081019050602083039250611e9f565b6001836020036101000a03801982511681845116808217855250505050505090500191505090815260200160405180910390208281548110611f0057fe5b9060005260206000200160009054906101000a900473ffffffffffffffffffffffffffffffffffffffff1673ffffffffffffffffffffffffffffffffffffffff161415611f51576001915050611f64565b8080600101915050611e01565b50600090505b919050565b600080823373ffffffffffffffffffffffffffffffffffffffff16600860006009846040518082805190602001908083835b60208310611fbe5780518252602082019150602081019050602083039250611f9b565b6001836020036101000a038019825116818451168082178552505050505050905001915050908152602001604051809103902054815260200190815260200160002060009054906101000a900473ffffffffffffffffffffffffffffffffffffffff1673ffffffffffffffffffffffffffffffffffffffff161461204157600080fd5b60056009856040518082805190602001908083835b602083106120795780518252602082019150602081019050602083039250612056565b6001836020036101000a038019825116818451168082178552505050505050905001915050908152602001604051809103902054815481106120b757fe5b90600052602060002090600202016000015460056009866040518082805190602001908083835b6020831061210157805182526020820191506020810190506020830392506120de565b6001836020036101000a0380198251168184511680821785525050505050509050019150509081526020016040518091039020548154811061213f57fe5b9060005260206000209060020201600101549250925050915091565b600080600090505b6007805490508110156121d557836007828154811061217e57fe5b9060005260206000209060020201600001541480156121ba575082600782815481106121a657fe5b906000526020600020906002020160010154145b156121c857809150506121fa565b8080600101915050612163565b507fffffffffffffffffffffffffffffffffffffffffffffffffffffffffffffffff90505b92915050565b6003818051602081018201805184825260208301602085012081835280955050505050506000915054906101000a900473ffffffffffffffffffffffffffffffffffffffff1681565b600482805160208101820180518482526020830160208501208183528095505050505050818154811061227857fe5b906000526020600020016000915091509054906101000a900473ffffffffffffffffffffffffffffffffffffffff1681565b606080600080843373ffffffffffffffffffffffffffffffffffffffff166003826040518082805190602001908083835b602083106122fe57805182526020820191506020810190506020830392506122db565b6001836020036101000a038019825116818451168082178552505050505050905001915050908152602001604051809103902060009054906101000a900473ffffffffffffffffffffffffffffffffffffffff1673ffffffffffffffffffffffffffffffffffffffff161480612379575061237881611df9565b5b61238257600080fd5b60006002876040518082805190602001908083835b602083106123ba5780518252602082019150602081019050602083039250612397565b6001836020036101000a03801982511681845116808217855250505050505090500191505090815260200160405180910390208054905014156123fc57600080fd5b8560006002886040518082805190602001908083835b602083106124355780518252602082019150602081019050602083039250612412565b6001836020036101000a0380198251168184511680821785525050505050509050019150509081526020016040518091039020600160028a6040518082805190602001908083835b602083106124a0578051825260208201915060208101905060208303925061247d565b6001836020036101000a03801982511681845116808217855250505050505090500191505090815260200160405180910390208054905003815481106124e257fe5b9060005260206000200154815481106124f757fe5b906000526020600020906003020160000160006002896040518082805190602001908083835b60208310612540578051825260208201915060208101905060208303925061251d565b6001836020036101000a0380198251168184511680821785525050505050509050019150509081526020016040518091039020600160028b6040518082805190602001908083835b602083106125ab5780518252602082019150602081019050602083039250612588565b6001836020036101000a03801982511681845116808217855250505050505090500191505090815260200160405180910390208054905003815481106125ed57fe5b90600052602060002001548154811061260257fe5b906000526020600020906003020160010154600060028a6040518082805190602001908083835b6020831061264c5780518252602082019150602081019050602083039250612629565b6001836020036101000a0380198251168184511680821785525050505050509050019150509081526020016040518091039020600160028c6040518082805190602001908083835b602083106126b75780518252602082019150602081019050602083039250612694565b6001836020036101000a03801982511681845116808217855250505050505090500191505090815260200160405180910390208054905003815481106126f957fe5b90600052602060002001548154811061270e57fe5b906000526020600020906003020160020154828054600181600116156101000203166002900480601f0160208091040260200160405190810160405280929190818152602001828054600181600116156101000203166002900480156127b55780601f1061278a576101008083540402835291602001916127b5565b820191906000526020600020905b81548152906001019060200180831161279857829003601f168201915b505050505092509450945094509450509193509193565b60008015156127da86611c5b565b151514156127eb5760009050612b5d565b60008090505b6002866040518082805190602001908083835b602083106128275780518252602082019150602081019050602083039250612804565b6001836020036101000a038019825116818451168082178552505050505050905001915050908152602001604051809103902080549050811015612b5757846040516020018082805190602001908083835b6020831061289c5780518252602082019150602081019050602083039250612879565b6001836020036101000a0380198251168184511680821785525050505050509050019150506040516020818303038152906040528051906020012060006002886040518082805190602001908083835b6020831061290f57805182526020820191506020810190506020830392506128ec565b6001836020036101000a0380198251168184511680821785525050505050509050019150509081526020016040518091039020838154811061294d57fe5b90600052602060002001548154811061296257fe5b906000526020600020906003020160000160405160200180828054600181600116156101000203166002900480156129d15780601f106129af5761010080835404028352918201916129d1565b820191906000526020600020905b8154815290600101906020018083116129bd575b505091505060405160208183030381529060405280519060200120148015612a9457508360006002886040518082805190602001908083835b60208310612a2d5780518252602082019150602081019050602083039250612a0a565b6001836020036101000a03801982511681845116808217855250505050505090500191505090815260200160405180910390208381548110612a6b57fe5b906000526020600020015481548110612a8057fe5b906000526020600020906003020160020154145b8015612b3b57508260006002886040518082805190602001908083835b60208310612ad45780518252602082019150602081019050602083039250612ab1565b6001836020036101000a03801982511681845116808217855250505050505090500191505090815260200160405180910390208381548110612b1257fe5b906000526020600020015481548110612b2757fe5b906000526020600020906003020160010154145b15612b4a576001915050612b5d565b80806001019150506127f1565b50600090505b949350505050565b60008181548110612b7257fe5b9060005260206000209060030201600091509050806000018054600181600116156101000203166002900480601f016020809104026020016040519081016040528092919081815260200182805460018160011615610100020316600290048015612c1e5780601f10612bf357610100808354040283529160200191612c1e565b820191906000526020600020905b815481529060010190602001808311612c0157829003601f168201915b5050505050908060010154908060020154905083565b60001515612c4184611a30565b151514612c4d57600080fd5b6000600160056040518060400160405280868152602001858152509080600181540180825580915050906001820390600052602060002090600202016000909192909190915060008201518160000155602082015181600101555050039050336008600083815260200190815260200160002060006101000a81548173ffffffffffffffffffffffffffffffffffffffff021916908373ffffffffffffffffffffffffffffffffffffffff160217905550806009856040518082805190602001908083835b60208310612d355780518252602082019150602081019050602083039250612d12565b6001836020036101000a0380198251168184511680821785525050505050509050019150509081526020016040518091039020819055506006849080600181540180825580915050906001820390600052602060002001600090919290919091509080519060200190612da9929190613bb7565b505050505050565b6009818051602081018201805184825260208301602085012081835280955050505050506000915090505481565b60078181548110612dec57fe5b90600052602060002090600202016000915090508060000154908060010154905082565b823373ffffffffffffffffffffffffffffffffffffffff16600860006009846040518082805190602001908083835b60208310612e625780518252602082019150602081019050602083039250612e3f565b6001836020036101000a038019825116818451168082178552505050505050905001915050908152602001604051809103902054815260200190815260200160002060009054906101000a900473ffffffffffffffffffffffffffffffffffffffff1673ffffffffffffffffffffffffffffffffffffffff1614612ee557600080fd5b612eee83611c5b565b612ef757600080fd5b60001515612f068585856132e6565b151514612f1257600080fd5b600061300b6002856040518082805190602001908083835b60208310612f4d5780518252602082019150602081019050602083039250612f2a565b6001836020036101000a038019825116818451168082178552505050505050905001915050908152602001604051809103902060016002876040518082805190602001908083835b60208310612fb85780518252602082019150602081019050602083039250612f95565b6001836020036101000a0380198251168184511680821785525050505050509050019150509081526020016040518091039020805490500381548110612ffa57fe5b90600052602060002001548461215b565b90507fffffffffffffffffffffffffffffffffffffffffffffffffffffffffffffffff81146130e55760006009866040518082805190602001908083835b6020831061306c5780518252602082019150602081019050602083039250613049565b6001836020036101000a0380198251168184511680821785525050505050509050019150509081526020016040518091039020549050600a6000828152602001908152602001600020829080600181540180825580915050906001820390600052602060002001600090919290919091505550506132df565b60006001600760405180604001604052806002896040518082805190602001908083835b6020831061312c5780518252602082019150602081019050602083039250613109565b6001836020036101000a0380198251168184511680821785525050505050509050019150509081526020016040518091039020600160028b6040518082805190602001908083835b602083106131975780518252602082019150602081019050602083039250613174565b6001836020036101000a03801982511681845116808217855250505050505090500191505090815260200160405180910390208054905003815481106131d957fe5b9060005260206000200154815260200187815250908060018154018082558091505090600182039060005260206000209060020201600090919290919091506000820151816000015560208201518160010155505003905060006009876040518082805190602001908083835b602083106132695780518252602082019150602081019050602083039250613246565b6001836020036101000a0380198251168184511680821785525050505050509050019150509081526020016040518091039020549050600a600082815260200190815260200160002082908060018154018082558091505090600182039060005260206000200160009091929091909150555050505b5050505050565b6000833373ffffffffffffffffffffffffffffffffffffffff16600860006009846040518082805190602001908083835b6020831061333a5780518252602082019150602081019050602083039250613317565b6001836020036101000a038019825116818451168082178552505050505050905001915050908152602001604051809103902054815260200190815260200160002060009054906101000a900473ffffffffffffffffffffffffffffffffffffffff1673ffffffffffffffffffffffffffffffffffffffff16146133bd57600080fd5b833373ffffffffffffffffffffffffffffffffffffffff166003826040518082805190602001908083835b6020831061340b57805182526020820191506020810190506020830392506133e8565b6001836020036101000a038019825116818451168082178552505050505050905001915050908152602001604051809103902060009054906101000a900473ffffffffffffffffffffffffffffffffffffffff1673ffffffffffffffffffffffffffffffffffffffff161480613486575061348581611df9565b5b61348f57600080fd5b60006009876040518082805190602001908083835b602083106134c757805182526020820191506020810190506020830392506134a4565b6001836020036101000a038019825116818451168082178552505050505050905001915050908152602001604051809103902054905060008090505b600a6000838152602001908152602001600020805490508110156136be576000600a6000848152602001908152602001600020828154811061354157fe5b9060005260206000200154905060008090505b6002896040518082805190602001908083835b6020831061358a5780518252602082019150602081019050602083039250613567565b6001836020036101000a0380198251168184511680821785525050505050509050019150509081526020016040518091039020805490508110156136af57600782815481106135d557fe5b90600052602060002090600202016000015460028a6040518082805190602001908083835b6020831061361d57805182526020820191506020810190506020830392506135fa565b6001836020036101000a0380198251168184511680821785525050505050509050019150509081526020016040518091039020828154811061365b57fe5b90600052602060002001541480156136905750876007838154811061367c57fe5b906000526020600020906002020160010154145b156136a25760019650505050506136c5565b8080600101915050613554565b50508080600101915050613503565b5060009350505b50509392505050565b606080600080853373ffffffffffffffffffffffffffffffffffffffff16600860006009846040518082805190602001908083835b602083106137265780518252602082019150602081019050602083039250613703565b6001836020036101000a038019825116818451168082178552505050505050905001915050908152602001604051809103902054815260200190815260200160002060009054906101000a900473ffffffffffffffffffffffffffffffffffffffff1673ffffffffffffffffffffffffffffffffffffffff16146137a957600080fd5b6137b286611c5b565b6137bb57600080fd5b60006009886040518082805190602001908083835b602083106137f357805182526020820191506020810190506020830392506137d0565b6001836020036101000a038019825116818451168082178552505050505050905001915050908152602001604051809103902054905060008090505b600a600083815260200190815260200160002080549050811015613abe5760006007600a6000858152602001908152602001600020838154811061386f57fe5b90600052602060002001548154811061388457fe5b906000526020600020906002020160000154905060008090505b60028a6040518082805190602001908083835b602083106138d457805182526020820191506020810190506020830392506138b1565b6001836020036101000a038019825116818451168082178552505050505050905001915050908152602001604051809103902080549050811015613aaf578160028b6040518082805190602001908083835b602083106139495780518252602082019150602081019050602083039250613926565b6001836020036101000a0380198251168184511680821785525050505050509050019150509081526020016040518091039020828154811061398757fe5b90600052602060002001541415613aa25789600083815481106139a657fe5b9060005260206000209060030201600001600084815481106139c457fe5b906000526020600020906003020160010154600085815481106139e357fe5b906000526020600020906003020160020154828054600181600116156101000203166002900480601f016020809104026020016040519081016040528092919081815260200182805460018160011615610100020316600290048015613a8a5780601f10613a5f57610100808354040283529160200191613a8a565b820191906000526020600020905b815481529060010190602001808311613a6d57829003601f168201915b50505050509250985098509850985050505050613b2d565b808060010191505061389e565b5050808060010191505061382f565b506040517f08c379a00000000000000000000000000000000000000000000000000000000081526004018080602001828103825260098152602001807f4e6f7420666f756e64000000000000000000000000000000000000000000000081525060200191505060405180910390fd5b5092959194509250565b828054600181600116156101000203166002900490600052602060002090601f016020900481019282601f10613b7857805160ff1916838001178555613ba6565b82800160010185558215613ba6579182015b82811115613ba5578251825591602001919060010190613b8a565b5b509050613bb39190613c37565b5090565b828054600181600116156101000203166002900490600052602060002090601f016020900481019282601f10613bf857805160ff1916838001178555613c26565b82800160010185558215613c26579182015b82811115613c25578251825591602001919060010190613c0a565b5b509050613c339190613c37565b5090565b613c5991905b80821115613c55576000816000905550600101613c3d565b5090565b9056fea265627a7a723158203bea5ee6188f0708e5ee44bf80f33740b876568dde45a598a318a9ee559481d564736f6c63430005100032",
  "source": "pragma solidity >=0.5.0 <0.6.0;\r\nimport \"./ProductRepo.sol\";\r\n\r\ncontract BillRepo is ProductRepo{\r\n\r\n\r\n    struct BillEntry {\r\n        uint productIndex;\r\n        uint quantity;\r\n    }\r\n\r\n    struct Bill {\r\n        uint date; // in miliseconds from 1 January 1970\r\n        uint total; // again, multiplied by 100\r\n    }\r\n\r\n    Bill[] public bills;\r\n    string[] public orderIds;\r\n    BillEntry[] public entries;\r\n\r\n    mapping (uint => address) public billToOwner;\r\n    mapping (string => uint) public orderToBillId;\r\n    mapping (uint => uint[]) public billIdToEntryId;\r\n\r\n    modifier isOwner(string memory orderId) {\r\n        require(billToOwner[orderToBillId[orderId]] == msg.sender);\r\n        _;\r\n    }\r\n    function idExistsOrders(string memory id) public view returns (bool) {\r\n        for (uint index = 0; index < orderIds.length; index++) {\r\n            if (keccak256(abi.encodePacked(orderIds[index])) == keccak256(abi.encodePacked(id))) {\r\n                return true;\r\n            }\r\n        }\r\n        return false;\r\n    }\r\n\r\n    function entryDeployedInCurrentBill(string memory orderId, string memory productId, uint quantity) public  isOwner(orderId)  hasPermissions(productId) view returns(bool) {\r\n        uint billIndex = orderToBillId[orderId];\r\n        for (uint billEntryIndex = 0; billEntryIndex < billIdToEntryId[billIndex].length; billEntryIndex++) {\r\n            uint entryIndex = billIdToEntryId[billIndex][billEntryIndex];\r\n            for (uint product = 0; product < idToProducts[productId].length; product++) {\r\n                if (idToProducts[productId][product] == entries[entryIndex].productIndex &&\r\n                    entries[entryIndex].quantity == quantity) {\r\n                    return true;\r\n                }\r\n            }\r\n        }\r\n        return false;\r\n    }\r\n\r\n    function entryExists(uint prodIndex, uint quantity) public view returns (int) {\r\n        for (int index = 0; uint(index) < entries.length; index++) {\r\n            if (entries[uint(index)].productIndex == prodIndex && entries[uint(index)].quantity == quantity) {\r\n                return index;\r\n            }\r\n        }\r\n        return -1;\r\n    }\r\n\r\n\r\n    // require order id not exist\r\n    function createBill(string memory orderId, uint date, uint total) public {\r\n        require(idExistsOrders(orderId) == false);\r\n        uint id = bills.push(Bill(date, total)) - 1;\r\n        billToOwner[id] = msg.sender;\r\n        orderToBillId[orderId] = id;\r\n        orderIds.push(orderId);\r\n    }\r\n\r\n    // check if entry exists, if so, reuse it\r\n    function addEntry(string memory orderId,  string memory productId, uint quantity) public isOwner(orderId) {\r\n        require(idExists(productId));\r\n        require(entryDeployedInCurrentBill(orderId, productId, quantity) == false);\r\n        int index = entryExists(idToProducts[productId][idToProducts[productId].length - 1], quantity);\r\n        if (index != -1) {\r\n            uint billIndex = orderToBillId[orderId];\r\n            billIdToEntryId[billIndex].push(uint(index));\r\n        }\r\n        else {\r\n            uint entryIndex = entries.push(BillEntry(idToProducts[productId][idToProducts[productId].length - 1], quantity)) - 1;\r\n            uint billIndex = orderToBillId[orderId];\r\n            billIdToEntryId[billIndex].push(entryIndex);\r\n        }\r\n    }\r\n\r\n    function getBillByOrderId(string memory orderId) public isOwner(orderId) view returns (uint, uint) {\r\n        return (bills[orderToBillId[orderId]].date, bills[orderToBillId[orderId]].total);\r\n    }\r\n\r\n\r\n    function getProductForEntry(string memory orderId, string memory productId) public isOwner(orderId) view returns(string memory, string memory, uint, uint) {\r\n        require(idExists(productId));\r\n        uint billIndex = orderToBillId[orderId];\r\n        for (uint iterator = 0; iterator < billIdToEntryId[billIndex].length; iterator++) {\r\n            uint currentIndex = entries[billIdToEntryId[billIndex][iterator]].productIndex;\r\n            for(uint index = 0; index < idToProducts[productId].length; index++) {\r\n                if (idToProducts[productId][index] == currentIndex) {\r\n                    return (\r\n                    productId,\r\n                    products[currentIndex].name,\r\n                    products[currentIndex].VAT,\r\n                    products[currentIndex].priceWithVAT);\r\n                }\r\n            }\r\n        }\r\n        revert('Not found');\r\n\r\n    }\r\n\r\n}\r\n",
  "sourcePath": "H:\\Faculta\\Licenta\\webshop\\Licenta\\blockchain\\contracts\\BillRepo.sol",
  "compiler": {
    "name": "solc",
    "version": "0.5.16+commit.9c3226ce.Emscripten.clang"
  },
  "schemaVersion": "3.4.7",
  "updatedAt": "2022-06-08T14:14:04.370Z",
  "devdoc": {
    "methods": {}
  },
  "userdoc": {
    "methods": {}
  }
}