{
  "contractName": "BillRepo",
  "abi": [
    {
      "constant": false,
      "inputs": [
        {
          "internalType": "string",
          "name": "id",
          "type": "string"
        },
        {
          "internalType": "string",
          "name": "name",
          "type": "string"
        },
        {
          "internalType": "uint256",
          "name": "totalPrice",
          "type": "uint256"
        },
        {
          "internalType": "uint256",
          "name": "VAT",
          "type": "uint256"
        }
      ],
      "name": "addProduct",
      "outputs": [],
      "payable": false,
      "stateMutability": "nonpayable",
      "type": "function"
    },
    {
      "constant": true,
      "inputs": [
        {
          "internalType": "uint256",
          "name": "",
          "type": "uint256"
        },
        {
          "internalType": "uint256",
          "name": "",
          "type": "uint256"
        }
      ],
      "name": "billIdToEntryId",
      "outputs": [
        {
          "internalType": "uint256",
          "name": "",
          "type": "uint256"
        }
      ],
      "payable": false,
      "stateMutability": "view",
      "type": "function"
    },
    {
      "constant": true,
      "inputs": [
        {
          "internalType": "uint256",
          "name": "",
          "type": "uint256"
        }
      ],
      "name": "billToOwner",
      "outputs": [
        {
          "internalType": "address",
          "name": "",
          "type": "address"
        }
      ],
      "payable": false,
      "stateMutability": "view",
      "type": "function"
    },
    {
      "constant": true,
      "inputs": [
        {
          "internalType": "uint256",
          "name": "",
          "type": "uint256"
        }
      ],
      "name": "bills",
      "outputs": [
        {
          "internalType": "uint256",
          "name": "date",
          "type": "uint256"
        },
        {
          "internalType": "uint256",
          "name": "total",
          "type": "uint256"
        }
      ],
      "payable": false,
      "stateMutability": "view",
      "type": "function"
    },
    {
      "constant": true,
      "inputs": [
        {
          "internalType": "uint256",
          "name": "",
          "type": "uint256"
        }
      ],
      "name": "entries",
      "outputs": [
        {
          "internalType": "uint256",
          "name": "productIndex",
          "type": "uint256"
        },
        {
          "internalType": "uint256",
          "name": "quantity",
          "type": "uint256"
        }
      ],
      "payable": false,
      "stateMutability": "view",
      "type": "function"
    },
    {
      "constant": true,
      "inputs": [
        {
          "internalType": "string",
          "name": "id",
          "type": "string"
        }
      ],
      "name": "getProduct",
      "outputs": [
        {
          "internalType": "string",
          "name": "",
          "type": "string"
        },
        {
          "internalType": "string",
          "name": "",
          "type": "string"
        },
        {
          "internalType": "uint256",
          "name": "",
          "type": "uint256"
        },
        {
          "internalType": "uint256",
          "name": "",
          "type": "uint256"
        }
      ],
      "payable": false,
      "stateMutability": "view",
      "type": "function"
    },
    {
      "constant": true,
      "inputs": [
        {
          "internalType": "string",
          "name": "id",
          "type": "string"
        }
      ],
      "name": "idExists",
      "outputs": [
        {
          "internalType": "bool",
          "name": "",
          "type": "bool"
        }
      ],
      "payable": false,
      "stateMutability": "view",
      "type": "function"
    },
    {
      "constant": true,
      "inputs": [
        {
          "internalType": "uint256",
          "name": "",
          "type": "uint256"
        }
      ],
      "name": "orderIds",
      "outputs": [
        {
          "internalType": "string",
          "name": "",
          "type": "string"
        }
      ],
      "payable": false,
      "stateMutability": "view",
      "type": "function"
    },
    {
      "constant": true,
      "inputs": [
        {
          "internalType": "string",
          "name": "",
          "type": "string"
        }
      ],
      "name": "orderToBillId",
      "outputs": [
        {
          "internalType": "uint256",
          "name": "",
          "type": "uint256"
        }
      ],
      "payable": false,
      "stateMutability": "view",
      "type": "function"
    },
    {
      "constant": true,
      "inputs": [
        {
          "internalType": "string",
          "name": "id",
          "type": "string"
        },
        {
          "internalType": "string",
          "name": "name",
          "type": "string"
        },
        {
          "internalType": "uint256",
          "name": "totalPrice",
          "type": "uint256"
        },
        {
          "internalType": "uint256",
          "name": "VAT",
          "type": "uint256"
        }
      ],
      "name": "productAdded",
      "outputs": [
        {
          "internalType": "bool",
          "name": "",
          "type": "bool"
        }
      ],
      "payable": false,
      "stateMutability": "view",
      "type": "function"
    },
    {
      "constant": true,
      "inputs": [
        {
          "internalType": "string",
          "name": "",
          "type": "string"
        }
      ],
      "name": "productToOwner",
      "outputs": [
        {
          "internalType": "address",
          "name": "",
          "type": "address"
        }
      ],
      "payable": false,
      "stateMutability": "view",
      "type": "function"
    },
    {
      "constant": true,
      "inputs": [
        {
          "internalType": "uint256",
          "name": "",
          "type": "uint256"
        }
      ],
      "name": "products",
      "outputs": [
        {
          "internalType": "string",
          "name": "name",
          "type": "string"
        },
        {
          "internalType": "uint256",
          "name": "VAT",
          "type": "uint256"
        },
        {
          "internalType": "uint256",
          "name": "priceWithVAT",
          "type": "uint256"
        }
      ],
      "payable": false,
      "stateMutability": "view",
      "type": "function"
    },
    {
      "constant": true,
      "inputs": [
        {
          "internalType": "string",
          "name": "id",
          "type": "string"
        }
      ],
      "name": "idExistsOrders",
      "outputs": [
        {
          "internalType": "bool",
          "name": "",
          "type": "bool"
        }
      ],
      "payable": false,
      "stateMutability": "view",
      "type": "function"
    },
    {
      "constant": true,
      "inputs": [
        {
          "internalType": "uint256",
          "name": "prodIndex",
          "type": "uint256"
        },
        {
          "internalType": "uint256",
          "name": "quantity",
          "type": "uint256"
        }
      ],
      "name": "entryExists",
      "outputs": [
        {
          "internalType": "int256",
          "name": "",
          "type": "int256"
        }
      ],
      "payable": false,
      "stateMutability": "view",
      "type": "function"
    },
    {
      "constant": false,
      "inputs": [
        {
          "internalType": "string",
          "name": "orderId",
          "type": "string"
        },
        {
          "internalType": "uint256",
          "name": "date",
          "type": "uint256"
        },
        {
          "internalType": "uint256",
          "name": "total",
          "type": "uint256"
        }
      ],
      "name": "createBill",
      "outputs": [],
      "payable": false,
      "stateMutability": "nonpayable",
      "type": "function"
    },
    {
      "constant": false,
      "inputs": [
        {
          "internalType": "string",
          "name": "orderId",
          "type": "string"
        },
        {
          "internalType": "string",
          "name": "productId",
          "type": "string"
        },
        {
          "internalType": "uint256",
          "name": "quantity",
          "type": "uint256"
        }
      ],
      "name": "addEntry",
      "outputs": [],
      "payable": false,
      "stateMutability": "nonpayable",
      "type": "function"
    },
    {
      "constant": true,
      "inputs": [
        {
          "internalType": "string",
          "name": "orderId",
          "type": "string"
        }
      ],
      "name": "getBillByOrderId",
      "outputs": [
        {
          "internalType": "uint256",
          "name": "",
          "type": "uint256"
        },
        {
          "internalType": "uint256",
          "name": "",
          "type": "uint256"
        }
      ],
      "payable": false,
      "stateMutability": "view",
      "type": "function"
    },
    {
      "constant": true,
      "inputs": [
        {
          "internalType": "string",
          "name": "orderId",
          "type": "string"
        },
        {
          "internalType": "uint256",
          "name": "entryNumber",
          "type": "uint256"
        }
      ],
      "name": "getProductForEntry",
      "outputs": [
        {
          "internalType": "string",
          "name": "",
          "type": "string"
        },
        {
          "internalType": "uint256",
          "name": "",
          "type": "uint256"
        },
        {
          "internalType": "uint256",
          "name": "",
          "type": "uint256"
        }
      ],
      "payable": false,
      "stateMutability": "view",
      "type": "function"
    },
    {
      "constant": true,
      "inputs": [
        {
          "internalType": "string",
          "name": "orderId",
          "type": "string"
        },
        {
          "internalType": "uint256",
          "name": "entryNumber",
          "type": "uint256"
        }
      ],
      "name": "getProductNameForEntry",
      "outputs": [
        {
          "internalType": "string",
          "name": "",
          "type": "string"
        }
      ],
      "payable": false,
      "stateMutability": "view",
      "type": "function"
    },
    {
      "constant": true,
      "inputs": [
        {
          "internalType": "string",
          "name": "orderId",
          "type": "string"
        }
      ],
      "name": "getVATsByOrderId",
      "outputs": [
        {
          "internalType": "uint256[]",
          "name": "",
          "type": "uint256[]"
        }
      ],
      "payable": false,
      "stateMutability": "view",
      "type": "function"
    },
    {
      "constant": true,
      "inputs": [
        {
          "internalType": "string",
          "name": "orderId",
          "type": "string"
        }
      ],
      "name": "getPricesByOrderId",
      "outputs": [
        {
          "internalType": "uint256[]",
          "name": "",
          "type": "uint256[]"
        }
      ],
      "payable": false,
      "stateMutability": "view",
      "type": "function"
    },
    {
      "constant": true,
      "inputs": [
        {
          "internalType": "string",
          "name": "orderId",
          "type": "string"
        }
      ],
      "name": "getQuantitiesByOrderId",
      "outputs": [
        {
          "internalType": "uint256[]",
          "name": "",
          "type": "uint256[]"
        }
      ],
      "payable": false,
      "stateMutability": "view",
      "type": "function"
    }
  ],
  "bytecode": "0x608060405234801561001057600080fd5b506138c5806100206000396000f3fe608060405234801561001057600080fd5b50600436106101425760003560e01c8063426ed70e116100b85780637ed5e55b1161007c5780637ed5e55b14610f595780637eda9f1a146110285780638e8d080a14611138578063b30906d414611207578063be0968e814611250578063e81c1c61146113ac57610142565b8063426ed70e1461096d5780635fdab0f914610a6857806368111cce14610b7857806373b0404c14610d265780637acc0b2014610ea457610142565b806326638e861161010a57806326638e86146105d357806328bdcde8146106a65780632dc3b1c7146106ef578063348789191461073b5780633a1013db1461081157806340b861c81461085d57610142565b806301cecd1414610147578063189ce0e6146102ad5780631d77d489146103805780631f0f77dd146103ee578063237220841461052c575b600080fd5b6102ab6004803603608081101561015d57600080fd5b810190808035906020019064010000000081111561017a57600080fd5b82018360208201111561018c57600080fd5b803590602001918460018302840111640100000000831117156101ae57600080fd5b91908080601f016020809104026020016040519081016040528093929190818152602001838380828437600081840152601f19601f8201169050808301925050505050505091929192908035906020019064010000000081111561021157600080fd5b82018360208201111561022357600080fd5b8035906020019184600183028401116401000000008311171561024557600080fd5b91908080601f016020809104026020016040519081016040528093929190818152602001838380828437600081840152601f19601f82011690508083019250505050505050919291929080359060200190929190803590602001909291905050506114f8565b005b610366600480360360208110156102c357600080fd5b81019080803590602001906401000000008111156102e057600080fd5b8201836020820111156102f257600080fd5b8035906020019184600183028401116401000000008311171561031457600080fd5b91908080601f016020809104026020016040519081016040528093929190818152602001838380828437600081840152601f19601f820116905080830192505050505050509192919290505050611894565b604051808215151515815260200191505060405180910390f35b6103ac6004803603602081101561039657600080fd5b81019080803590602001909291905050506119d3565b604051808273ffffffffffffffffffffffffffffffffffffffff1673ffffffffffffffffffffffffffffffffffffffff16815260200191505060405180910390f35b6104b16004803603604081101561040457600080fd5b810190808035906020019064010000000081111561042157600080fd5b82018360208201111561043357600080fd5b8035906020019184600183028401116401000000008311171561045557600080fd5b91908080601f016020809104026020016040519081016040528093929190818152602001838380828437600081840152601f19601f82011690508083019250505050505050919291929080359060200190929190505050611a06565b6040518080602001828103825283818151815260200191508051906020019080838360005b838110156104f15780820151818401526020810190506104d6565b50505050905090810190601f16801561051e5780820380516001836020036101000a031916815260200191505b509250505060405180910390f35b6105586004803603602081101561054257600080fd5b8101908080359060200190929190505050611b76565b6040518080602001828103825283818151815260200191508051906020019080838360005b8381101561059857808201518184015260208101905061057d565b50505050905090810190601f1680156105c55780820380516001836020036101000a031916815260200191505b509250505060405180910390f35b61068c600480360360208110156105e957600080fd5b810190808035906020019064010000000081111561060657600080fd5b82018360208201111561061857600080fd5b8035906020019184600183028401116401000000008311171561063a57600080fd5b91908080601f016020809104026020016040519081016040528093929190818152602001838380828437600081840152601f19601f820116905080830192505050505050509192919290505050611c2f565b604051808215151515815260200191505060405180910390f35b6106d2600480360360208110156106bc57600080fd5b8101908080359060200190929190505050611d6e565b604051808381526020018281526020019250505060405180910390f35b6107256004803603604081101561070557600080fd5b810190808035906020019092919080359060200190929190505050611d9f565b6040518082815260200191505060405180910390f35b6107f46004803603602081101561075157600080fd5b810190808035906020019064010000000081111561076e57600080fd5b82018360208201111561078057600080fd5b803590602001918460018302840111640100000000831117156107a257600080fd5b91908080601f016020809104026020016040519081016040528093929190818152602001838380828437600081840152601f19601f820116905080830192505050505050509192919290505050611dcd565b604051808381526020018281526020019250505060405180910390f35b6108476004803603604081101561082757600080fd5b810190808035906020019092919080359060200190929190505050611ee9565b6040518082815260200191505060405180910390f35b6109166004803603602081101561087357600080fd5b810190808035906020019064010000000081111561089057600080fd5b8201836020820111156108a257600080fd5b803590602001918460018302840111640100000000831117156108c457600080fd5b91908080601f016020809104026020016040519081016040528093929190818152602001838380828437600081840152601f19601f820116905080830192505050505050509192919290505050611f8e565b6040518080602001828103825283818151815260200191508051906020019060200280838360005b8381101561095957808201518184015260208101905061093e565b505050509050019250505060405180910390f35b610a266004803603602081101561098357600080fd5b81019080803590602001906401000000008111156109a057600080fd5b8201836020820111156109b257600080fd5b803590602001918460018302840111640100000000831117156109d457600080fd5b91908080601f016020809104026020016040519081016040528093929190818152602001838380828437600081840152601f19601f8201169050808301925050505050505091929192905050506121cc565b604051808273ffffffffffffffffffffffffffffffffffffffff1673ffffffffffffffffffffffffffffffffffffffff16815260200191505060405180910390f35b610b2160048036036020811015610a7e57600080fd5b8101908080359060200190640100000000811115610a9b57600080fd5b820183602082011115610aad57600080fd5b80359060200191846001830284011164010000000083111715610acf57600080fd5b91908080601f016020809104026020016040519081016040528093929190818152602001838380828437600081840152601f19601f820116905080830192505050505050509192919290505050612215565b6040518080602001828103825283818151815260200191508051906020019060200280838360005b83811015610b64578082015181840152602081019050610b49565b505050509050019250505060405180910390f35b610c3160048036036020811015610b8e57600080fd5b8101908080359060200190640100000000811115610bab57600080fd5b820183602082011115610bbd57600080fd5b80359060200191846001830284011164010000000083111715610bdf57600080fd5b91908080601f016020809104026020016040519081016040528093929190818152602001838380828437600081840152601f19601f820116905080830192505050505050509192919290505050612435565b604051808060200180602001858152602001848152602001838103835287818151815260200191508051906020019080838360005b83811015610c81578082015181840152602081019050610c66565b50505050905090810190601f168015610cae5780820380516001836020036101000a031916815260200191505b50838103825286818151815260200191508051906020019080838360005b83811015610ce7578082015181840152602081019050610ccc565b50505050905090810190601f168015610d145780820380516001836020036101000a031916815260200191505b50965050505050505060405180910390f35b610e8a60048036036080811015610d3c57600080fd5b8101908080359060200190640100000000811115610d5957600080fd5b820183602082011115610d6b57600080fd5b80359060200191846001830284011164010000000083111715610d8d57600080fd5b91908080601f016020809104026020016040519081016040528093929190818152602001838380828437600081840152601f19601f82011690508083019250505050505050919291929080359060200190640100000000811115610df057600080fd5b820183602082011115610e0257600080fd5b80359060200191846001830284011164010000000083111715610e2457600080fd5b91908080601f016020809104026020016040519081016040528093929190818152602001838380828437600081840152601f19601f8201169050808301925050505050505091929192908035906020019092919080359060200190929190505050612945565b604051808215151515815260200191505060405180910390f35b610ed060048036036020811015610eba57600080fd5b8101908080359060200190929190505050612cde565b6040518080602001848152602001838152602001828103825285818151815260200191508051906020019080838360005b83811015610f1c578082015181840152602081019050610f01565b50505050905090810190601f168015610f495780820380516001836020036101000a031916815260200191505b5094505050505060405180910390f35b61102660048036036060811015610f6f57600080fd5b8101908080359060200190640100000000811115610f8c57600080fd5b820183602082011115610f9e57600080fd5b80359060200191846001830284011164010000000083111715610fc057600080fd5b91908080601f016020809104026020016040519081016040528093929190818152602001838380828437600081840152601f19601f8201169050808301925050505050505091929192908035906020019092919080359060200190929190505050612dad565b005b6110e16004803603602081101561103e57600080fd5b810190808035906020019064010000000081111561105b57600080fd5b82018360208201111561106d57600080fd5b8035906020019184600183028401116401000000008311171561108f57600080fd5b91908080601f016020809104026020016040519081016040528093929190818152602001838380828437600081840152601f19601f820116905080830192505050505050509192919290505050612f2a565b6040518080602001828103825283818151815260200191508051906020019060200280838360005b83811015611124578082015181840152602081019050611109565b505050509050019250505060405180910390f35b6111f16004803603602081101561114e57600080fd5b810190808035906020019064010000000081111561116b57600080fd5b82018360208201111561117d57600080fd5b8035906020019184600183028401116401000000008311171561119f57600080fd5b91908080601f016020809104026020016040519081016040528093929190818152602001838380828437600081840152601f19601f820116905080830192505050505050509192919290505050613168565b6040518082815260200191505060405180910390f35b6112336004803603602081101561121d57600080fd5b8101908080359060200190929190505050613196565b604051808381526020018281526020019250505060405180910390f35b6113aa6004803603606081101561126657600080fd5b810190808035906020019064010000000081111561128357600080fd5b82018360208201111561129557600080fd5b803590602001918460018302840111640100000000831117156112b757600080fd5b91908080601f016020809104026020016040519081016040528093929190818152602001838380828437600081840152601f19601f8201169050808301925050505050505091929192908035906020019064010000000081111561131a57600080fd5b82018360208201111561132c57600080fd5b8035906020019184600183028401116401000000008311171561134e57600080fd5b91908080601f016020809104026020016040519081016040528093929190818152602001838380828437600081840152601f19601f820116905080830192505050505050509192919290803590602001909291905050506131c7565b005b61146f600480360360408110156113c257600080fd5b81019080803590602001906401000000008111156113df57600080fd5b8201836020820111156113f157600080fd5b8035906020019184600183028401116401000000008311171561141357600080fd5b91908080601f016020809104026020016040519081016040528093929190818152602001838380828437600081840152601f19601f820116905080830192505050505050509192919290803590602001909291905050506135ac565b6040518080602001848152602001838152602001828103825285818151815260200191508051906020019080838360005b838110156114bb5780820151818401526020810190506114a0565b50505050905090810190601f1680156114e85780820380516001836020036101000a031916815260200191505b5094505050505060405180910390f35b6000151561150885858585612945565b15151461151457600080fd5b61151d84611c2f565b156115e8573373ffffffffffffffffffffffffffffffffffffffff166003856040518082805190602001908083835b6020831061156f578051825260208201915060208101905060208303925061154c565b6001836020036101000a038019825116818451168082178552505050505050905001915050908152602001604051809103902060009054906101000a900473ffffffffffffffffffffffffffffffffffffffff1673ffffffffffffffffffffffffffffffffffffffff16146115e357600080fd5b611691565b336003856040518082805190602001908083835b6020831061161f57805182526020820191506020810190506020830392506115fc565b6001836020036101000a038019825116818451168082178552505050505050905001915050908152602001604051809103902060006101000a81548173ffffffffffffffffffffffffffffffffffffffff021916908373ffffffffffffffffffffffffffffffffffffffff1602179055505b6000600160006040518060600160405280878152602001858152602001868152509080600181540180825580915050906001820390600052602060002090600302016000909192909190915060008201518160000190805190602001906116f992919061376b565b50602082015181600101556040820151816002015550500390506002856040518082805190602001908083835b602083106117495780518252602082019150602081019050602083039250611726565b6001836020036101000a038019825116818451168082178552505050505050905001915050908152602001604051809103902081908060018154018082558091505090600182039060005260206000200160009091929091909150555060018590806001815401808255809150509060018203906000526020600020016000909192909190915090805190602001906117e39291906137eb565b5050336003866040518082805190602001908083835b6020831061181c57805182526020820191506020810190506020830392506117f9565b6001836020036101000a038019825116818451168082178552505050505050905001915050908152602001604051809103902060006101000a81548173ffffffffffffffffffffffffffffffffffffffff021916908373ffffffffffffffffffffffffffffffffffffffff1602179055505050505050565b600080600090505b6005805490508110156119c857826040516020018082805190602001908083835b602083106118e057805182526020820191506020810190506020830392506118bd565b6001836020036101000a038019825116818451168082178552505050505050905001915050604051602081830303815290604052805190602001206005828154811061192857fe5b9060005260206000200160405160200180828054600181600116156101000203166002900480156119905780601f1061196e576101008083540402835291820191611990565b820191906000526020600020905b81548152906001019060200180831161197c575b50509150506040516020818303038152906040528051906020012014156119bb5760019150506119ce565b808060010191505061189c565b50600090505b919050565b60076020528060005260406000206000915054906101000a900473ffffffffffffffffffffffffffffffffffffffff1681565b606060006006600960006008876040518082805190602001908083835b60208310611a465780518252602082019150602081019050602083039250611a23565b6001836020036101000a03801982511681845116808217855250505050505090500191505090815260200160405180910390205481526020019081526020016000208481548110611a9357fe5b906000526020600020015481548110611aa857fe5b90600052602060002090600202016000015481548110611ac457fe5b90600052602060002090600302016000018054600181600116156101000203166002900480601f016020809104026020016040519081016040528092919081815260200182805460018160011615610100020316600290048015611b695780601f10611b3e57610100808354040283529160200191611b69565b820191906000526020600020905b815481529060010190602001808311611b4c57829003601f168201915b5050505050905092915050565b60058181548110611b8357fe5b906000526020600020016000915090508054600181600116156101000203166002900480601f016020809104026020016040519081016040528092919081815260200182805460018160011615610100020316600290048015611c275780601f10611bfc57610100808354040283529160200191611c27565b820191906000526020600020905b815481529060010190602001808311611c0a57829003601f168201915b505050505081565b600080600090505b600180549050811015611d6357826040516020018082805190602001908083835b60208310611c7b5780518252602082019150602081019050602083039250611c58565b6001836020036101000a0380198251168184511680821785525050505050509050019150506040516020818303038152906040528051906020012060018281548110611cc357fe5b906000526020600020016040516020018082805460018160011615610100020316600290048015611d2b5780601f10611d09576101008083540402835291820191611d2b565b820191906000526020600020905b815481529060010190602001808311611d17575b5050915050604051602081830303815290604052805190602001201415611d56576001915050611d69565b8080600101915050611c37565b50600090505b919050565b60048181548110611d7b57fe5b90600052602060002090600202016000915090508060000154908060010154905082565b60096020528160005260406000208181548110611db857fe5b90600052602060002001600091509150505481565b60008060046008846040518082805190602001908083835b60208310611e085780518252602082019150602081019050602083039250611de5565b6001836020036101000a03801982511681845116808217855250505050505090500191505090815260200160405180910390205481548110611e4657fe5b90600052602060002090600202016000015460046008856040518082805190602001908083835b60208310611e905780518252602082019150602081019050602083039250611e6d565b6001836020036101000a03801982511681845116808217855250505050505090500191505090815260200160405180910390205481548110611ece57fe5b90600052602060002090600202016001015491509150915091565b600080600090505b600680549050811015611f63578360068281548110611f0c57fe5b906000526020600020906002020160000154148015611f4857508260068281548110611f3457fe5b906000526020600020906002020160010154145b15611f565780915050611f88565b8080600101915050611ef1565b507fffffffffffffffffffffffffffffffffffffffffffffffffffffffffffffffff90505b92915050565b606080600960006008856040518082805190602001908083835b60208310611fcb5780518252602082019150602081019050602083039250611fa8565b6001836020036101000a03801982511681845116808217855250505050505090500191505090815260200160405180910390205481526020019081526020016000208054905060405190808252806020026020018201604052801561203f5781602001602082028038833980820191505090505b50905060008090505b600960006008866040518082805190602001908083835b60208310612082578051825260208201915060208101905060208303925061205f565b6001836020036101000a0380198251168184511680821785525050505050509050019150509081526020016040518091039020548152602001908152602001600020805490508110156121c25760006006600960006008886040518082805190602001908083835b6020831061210d57805182526020820191506020810190506020830392506120ea565b6001836020036101000a0380198251168184511680821785525050505050509050019150509081526020016040518091039020548152602001908152602001600020838154811061215a57fe5b90600052602060002001548154811061216f57fe5b9060005260206000209060020201600001548154811061218b57fe5b9060005260206000209060030201600101548282815181106121a957fe5b6020026020010181815250508080600101915050612048565b5080915050919050565b6003818051602081018201805184825260208301602085012081835280955050505050506000915054906101000a900473ffffffffffffffffffffffffffffffffffffffff1681565b606080600960006008856040518082805190602001908083835b60208310612252578051825260208201915060208101905060208303925061222f565b6001836020036101000a0380198251168184511680821785525050505050509050019150509081526020016040518091039020548152602001908152602001600020805490506040519080825280602002602001820160405280156122c65781602001602082028038833980820191505090505b50905060008090505b600960006008866040518082805190602001908083835b6020831061230957805182526020820191506020810190506020830392506122e6565b6001836020036101000a03801982511681845116808217855250505050505090500191505090815260200160405180910390205481526020019081526020016000208054905081101561242b576006600960006008876040518082805190602001908083835b60208310612392578051825260208201915060208101905060208303925061236f565b6001836020036101000a038019825116818451168082178552505050505050905001915050908152602001604051809103902054815260200190815260200160002082815481106123df57fe5b9060005260206000200154815481106123f457fe5b90600052602060002090600202016001015482828151811061241257fe5b60200260200101818152505080806001019150506122cf565b5080915050919050565b60608060008060006002866040518082805190602001908083835b602083106124735780518252602082019150602081019050602083039250612450565b6001836020036101000a03801982511681845116808217855250505050505090500191505090815260200160405180910390208054905014156124b557600080fd5b3373ffffffffffffffffffffffffffffffffffffffff166003866040518082805190602001908083835b6020831061250257805182526020820191506020810190506020830392506124df565b6001836020036101000a038019825116818451168082178552505050505050905001915050908152602001604051809103902060009054906101000a900473ffffffffffffffffffffffffffffffffffffffff1673ffffffffffffffffffffffffffffffffffffffff161461257657600080fd5b8460006002876040518082805190602001908083835b602083106125af578051825260208201915060208101905060208303925061258c565b6001836020036101000a038019825116818451168082178552505050505050905001915050908152602001604051809103902060016002896040518082805190602001908083835b6020831061261a57805182526020820191506020810190506020830392506125f7565b6001836020036101000a038019825116818451168082178552505050505050905001915050908152602001604051809103902080549050038154811061265c57fe5b90600052602060002001548154811061267157fe5b906000526020600020906003020160000160006002886040518082805190602001908083835b602083106126ba5780518252602082019150602081019050602083039250612697565b6001836020036101000a0380198251168184511680821785525050505050509050019150509081526020016040518091039020600160028a6040518082805190602001908083835b602083106127255780518252602082019150602081019050602083039250612702565b6001836020036101000a038019825116818451168082178552505050505050905001915050908152602001604051809103902080549050038154811061276757fe5b90600052602060002001548154811061277c57fe5b90600052602060002090600302016001015460006002896040518082805190602001908083835b602083106127c657805182526020820191506020810190506020830392506127a3565b6001836020036101000a0380198251168184511680821785525050505050509050019150509081526020016040518091039020600160028b6040518082805190602001908083835b60208310612831578051825260208201915060208101905060208303925061280e565b6001836020036101000a038019825116818451168082178552505050505050905001915050908152602001604051809103902080549050038154811061287357fe5b90600052602060002001548154811061288857fe5b906000526020600020906003020160020154828054600181600116156101000203166002900480601f01602080910402602001604051908101604052809291908181526020018280546001816001161561010002031660029004801561292f5780601f106129045761010080835404028352916020019161292f565b820191906000526020600020905b81548152906001019060200180831161291257829003601f168201915b5050505050925093509350935093509193509193565b600080151561295386611c2f565b151514156129645760009050612cd6565b60008090505b6002866040518082805190602001908083835b602083106129a0578051825260208201915060208101905060208303925061297d565b6001836020036101000a038019825116818451168082178552505050505050905001915050908152602001604051809103902080549050811015612cd057846040516020018082805190602001908083835b60208310612a1557805182526020820191506020810190506020830392506129f2565b6001836020036101000a0380198251168184511680821785525050505050509050019150506040516020818303038152906040528051906020012060006002886040518082805190602001908083835b60208310612a885780518252602082019150602081019050602083039250612a65565b6001836020036101000a03801982511681845116808217855250505050505090500191505090815260200160405180910390208381548110612ac657fe5b906000526020600020015481548110612adb57fe5b90600052602060002090600302016000016040516020018082805460018160011615610100020316600290048015612b4a5780601f10612b28576101008083540402835291820191612b4a565b820191906000526020600020905b815481529060010190602001808311612b36575b505091505060405160208183030381529060405280519060200120148015612c0d57508360006002886040518082805190602001908083835b60208310612ba65780518252602082019150602081019050602083039250612b83565b6001836020036101000a03801982511681845116808217855250505050505090500191505090815260200160405180910390208381548110612be457fe5b906000526020600020015481548110612bf957fe5b906000526020600020906003020160020154145b8015612cb457508260006002886040518082805190602001908083835b60208310612c4d5780518252602082019150602081019050602083039250612c2a565b6001836020036101000a03801982511681845116808217855250505050505090500191505090815260200160405180910390208381548110612c8b57fe5b906000526020600020015481548110612ca057fe5b906000526020600020906003020160010154145b15612cc3576001915050612cd6565b808060010191505061296a565b50600090505b949350505050565b60008181548110612ceb57fe5b9060005260206000209060030201600091509050806000018054600181600116156101000203166002900480601f016020809104026020016040519081016040528092919081815260200182805460018160011615610100020316600290048015612d975780601f10612d6c57610100808354040283529160200191612d97565b820191906000526020600020905b815481529060010190602001808311612d7a57829003601f168201915b5050505050908060010154908060020154905083565b60001515612dba84611894565b151514612dc657600080fd5b6000600160046040518060400160405280868152602001858152509080600181540180825580915050906001820390600052602060002090600202016000909192909190915060008201518160000155602082015181600101555050039050336007600083815260200190815260200160002060006101000a81548173ffffffffffffffffffffffffffffffffffffffff021916908373ffffffffffffffffffffffffffffffffffffffff160217905550806008856040518082805190602001908083835b60208310612eae5780518252602082019150602081019050602083039250612e8b565b6001836020036101000a0380198251168184511680821785525050505050509050019150509081526020016040518091039020819055506005849080600181540180825580915050906001820390600052602060002001600090919290919091509080519060200190612f229291906137eb565b505050505050565b606080600960006008856040518082805190602001908083835b60208310612f675780518252602082019150602081019050602083039250612f44565b6001836020036101000a038019825116818451168082178552505050505050905001915050908152602001604051809103902054815260200190815260200160002080549050604051908082528060200260200182016040528015612fdb5781602001602082028038833980820191505090505b50905060008090505b600960006008866040518082805190602001908083835b6020831061301e5780518252602082019150602081019050602083039250612ffb565b6001836020036101000a03801982511681845116808217855250505050505090500191505090815260200160405180910390205481526020019081526020016000208054905081101561315e5760006006600960006008886040518082805190602001908083835b602083106130a95780518252602082019150602081019050602083039250613086565b6001836020036101000a038019825116818451168082178552505050505050905001915050908152602001604051809103902054815260200190815260200160002083815481106130f657fe5b90600052602060002001548154811061310b57fe5b9060005260206000209060020201600001548154811061312757fe5b90600052602060002090600302016002015482828151811061314557fe5b6020026020010181815250508080600101915050612fe4565b5080915050919050565b6008818051602081018201805184825260208301602085012081835280955050505050506000915090505481565b600681815481106131a357fe5b90600052602060002090600202016000915090508060000154908060010154905082565b6131d082611c2f565b6131d957600080fd5b60006132d26002846040518082805190602001908083835b6020831061321457805182526020820191506020810190506020830392506131f1565b6001836020036101000a038019825116818451168082178552505050505050905001915050908152602001604051809103902060016002866040518082805190602001908083835b6020831061327f578051825260208201915060208101905060208303925061325c565b6001836020036101000a03801982511681845116808217855250505050505090500191505090815260200160405180910390208054905003815481106132c157fe5b906000526020600020015483611ee9565b90507fffffffffffffffffffffffffffffffffffffffffffffffffffffffffffffffff81146133ac5760006008856040518082805190602001908083835b602083106133335780518252602082019150602081019050602083039250613310565b6001836020036101000a038019825116818451168082178552505050505050905001915050908152602001604051809103902054905060096000828152602001908152602001600020829080600181540180825580915050906001820390600052602060002001600090919290919091505550506135a6565b60006001600660405180604001604052806002886040518082805190602001908083835b602083106133f357805182526020820191506020810190506020830392506133d0565b6001836020036101000a0380198251168184511680821785525050505050509050019150509081526020016040518091039020600160028a6040518082805190602001908083835b6020831061345e578051825260208201915060208101905060208303925061343b565b6001836020036101000a03801982511681845116808217855250505050505090500191505090815260200160405180910390208054905003815481106134a057fe5b9060005260206000200154815260200186815250908060018154018082558091505090600182039060005260206000209060020201600090919290919091506000820151816000015560208201518160010155505003905060006008866040518082805190602001908083835b60208310613530578051825260208201915060208101905060208303925061350d565b6001836020036101000a03801982511681845116808217855250505050505090500191505090815260200160405180910390205490506009600082815260200190815260200160002082908060018154018082558091505090600182039060005260206000200160009091929091909150555050505b50505050565b606060008060006006600960006008896040518082805190602001908083835b602083106135ef57805182526020820191506020810190506020830392506135cc565b6001836020036101000a0380198251168184511680821785525050505050509050019150509081526020016040518091039020548152602001908152602001600020868154811061363c57fe5b90600052602060002001548154811061365157fe5b90600052602060002090600202016000015490506000818154811061367257fe5b90600052602060002090600302016000016000828154811061369057fe5b906000526020600020906003020160010154600083815481106136af57fe5b906000526020600020906003020160020154828054600181600116156101000203166002900480601f0160208091040260200160405190810160405280929190818152602001828054600181600116156101000203166002900480156137565780601f1061372b57610100808354040283529160200191613756565b820191906000526020600020905b81548152906001019060200180831161373957829003601f168201915b50505050509250935093509350509250925092565b828054600181600116156101000203166002900490600052602060002090601f016020900481019282601f106137ac57805160ff19168380011785556137da565b828001600101855582156137da579182015b828111156137d95782518255916020019190600101906137be565b5b5090506137e7919061386b565b5090565b828054600181600116156101000203166002900490600052602060002090601f016020900481019282601f1061382c57805160ff191683800117855561385a565b8280016001018555821561385a579182015b8281111561385957825182559160200191906001019061383e565b5b509050613867919061386b565b5090565b61388d91905b80821115613889576000816000905550600101613871565b5090565b9056fea265627a7a723158203bf0e6fdbd10462e093a88f83407597fe628fd3e5c1a607664ae010cd839bf9664736f6c63430005100032",
  "source": "pragma solidity >=0.5.0 <0.6.0;\r\nimport \"./ProductRepo.sol\";\r\n\r\ncontract BillRepo is ProductRepo{\r\n\r\n\r\n    struct BillEntry {\r\n        uint productIndex;\r\n        uint quantity;\r\n    }\r\n\r\n    struct Bill {\r\n        uint date; // in miliseconds from 1 January 1970\r\n        uint total; // again, multiplied by 100\r\n    }\r\n\r\n    Bill[] public bills;\r\n    string[] public orderIds;\r\n    BillEntry[] public entries;\r\n\r\n    mapping (uint => address) public billToOwner;\r\n    mapping (string => uint) public orderToBillId;\r\n    mapping (uint => uint[]) public billIdToEntryId;\r\n\r\n    function idExistsOrders(string memory id) public view returns (bool) {\r\n        for (uint index = 0; index < orderIds.length; index++) {\r\n            if (keccak256(abi.encodePacked(orderIds[index])) == keccak256(abi.encodePacked(id))) {\r\n                return true;\r\n            }\r\n        }\r\n        return false;\r\n    }\r\n\r\n    function entryExists(uint prodIndex, uint quantity) public view returns (int) {\r\n        for (int index = 0; uint(index) < entries.length; index++) {\r\n            if (entries[uint(index)].productIndex == prodIndex && entries[uint(index)].quantity == quantity) {\r\n                return index;\r\n            }\r\n        }\r\n        return -1;\r\n    }\r\n\r\n\r\n    // require order id not exist\r\n    function createBill(string memory orderId, uint date, uint total) public {\r\n        require(idExistsOrders(orderId) == false);\r\n        uint id = bills.push(Bill(date, total)) - 1;\r\n        billToOwner[id] = msg.sender;\r\n        orderToBillId[orderId] = id;\r\n        orderIds.push(orderId);\r\n    }\r\n\r\n    // check if entry exists, if so, reuse it\r\n    function addEntry(string memory orderId,  string memory productId, uint quantity) public {\r\n        require(idExists(productId));\r\n        int index = entryExists(idToProducts[productId][idToProducts[productId].length - 1], quantity);\r\n        if (index != -1) {\r\n            uint billIndex = orderToBillId[orderId];\r\n            billIdToEntryId[billIndex].push(uint(index));\r\n        }\r\n        else {\r\n            uint entryIndex = entries.push(BillEntry(idToProducts[productId][idToProducts[productId].length - 1], quantity)) - 1;\r\n            uint billIndex = orderToBillId[orderId];\r\n            billIdToEntryId[billIndex].push(entryIndex);\r\n        }\r\n    }\r\n\r\n    function getBillByOrderId(string memory orderId) public view returns (uint, uint){\r\n        return (bills[orderToBillId[orderId]].date, bills[orderToBillId[orderId]].total);\r\n    }\r\n\r\n\r\n    function getProductForEntry(string memory orderId, uint entryNumber) public view returns( string memory, uint, uint) {\r\n        uint index = entries[billIdToEntryId[orderToBillId[orderId]][entryNumber]].productIndex;\r\n        return (\r\n        products[index].name,\r\n        products[index].VAT,\r\n        products[index].priceWithVAT);\r\n    }\r\n\r\n    function getProductNameForEntry(string memory orderId, uint entryNumber) public view returns (string memory) {\r\n        return products[entries[billIdToEntryId[orderToBillId[orderId]][entryNumber]].productIndex].name;\r\n    }\r\n\r\n    function getVATsByOrderId(string memory orderId) public view returns (uint[] memory) {\r\n        uint[] memory VATs = new uint[](billIdToEntryId[orderToBillId[orderId]].length);\r\n        for (uint i = 0; i < billIdToEntryId[orderToBillId[orderId]].length; i++) {\r\n            VATs[i] = products[entries[billIdToEntryId[orderToBillId[orderId]][i]].productIndex].VAT;\r\n        }\r\n        return VATs;\r\n    }\r\n\r\n    function getPricesByOrderId(string memory orderId) public view returns (uint[] memory) {\r\n        uint[] memory prices = new uint[](billIdToEntryId[orderToBillId[orderId]].length);\r\n        for (uint i = 0; i < billIdToEntryId[orderToBillId[orderId]].length; i++) {\r\n            prices[i] = products[entries[billIdToEntryId[orderToBillId[orderId]][i]].productIndex].priceWithVAT;\r\n        }\r\n        return prices;\r\n    }\r\n\r\n    function getQuantitiesByOrderId(string memory orderId) public view returns (uint[] memory) {\r\n        uint[] memory quantities = new uint[](billIdToEntryId[orderToBillId[orderId]].length);\r\n        for (uint i = 0; i < billIdToEntryId[orderToBillId[orderId]].length; i++) {\r\n            quantities[i] = entries[billIdToEntryId[orderToBillId[orderId]][i]].quantity;\r\n        }\r\n        return quantities;\r\n    }\r\n\r\n}\r\n",
  "sourcePath": "H:\\Faculta\\Licenta\\webshop\\Licenta\\blockchain\\contracts\\BillRepo.sol",
  "compiler": {
    "name": "solc",
    "version": "0.5.16+commit.9c3226ce.Emscripten.clang"
  },
  "schemaVersion": "3.4.7",
  "updatedAt": "2022-05-22T09:53:38.092Z",
  "devdoc": {
    "methods": {}
  },
  "userdoc": {
    "methods": {}
  }
}