{
  "contractName": "ProductRepo",
  "abi": [
    {
      "constant": true,
      "inputs": [
        {
          "internalType": "string",
          "name": "",
          "type": "string"
        }
      ],
      "name": "productToOwner",
      "outputs": [
        {
          "internalType": "address",
          "name": "",
          "type": "address"
        }
      ],
      "payable": false,
      "stateMutability": "view",
      "type": "function"
    },
    {
      "constant": true,
      "inputs": [
        {
          "internalType": "uint256",
          "name": "",
          "type": "uint256"
        }
      ],
      "name": "products",
      "outputs": [
        {
          "internalType": "string",
          "name": "id",
          "type": "string"
        },
        {
          "internalType": "string",
          "name": "name",
          "type": "string"
        },
        {
          "internalType": "uint256",
          "name": "VAT",
          "type": "uint256"
        },
        {
          "internalType": "uint256",
          "name": "priceWithVAT",
          "type": "uint256"
        }
      ],
      "payable": false,
      "stateMutability": "view",
      "type": "function"
    },
    {
      "constant": false,
      "inputs": [
        {
          "internalType": "string",
          "name": "id",
          "type": "string"
        },
        {
          "internalType": "string",
          "name": "name",
          "type": "string"
        },
        {
          "internalType": "uint256",
          "name": "totalPrice",
          "type": "uint256"
        },
        {
          "internalType": "uint256",
          "name": "VAT",
          "type": "uint256"
        }
      ],
      "name": "addProduct",
      "outputs": [
        {
          "internalType": "uint256",
          "name": "",
          "type": "uint256"
        }
      ],
      "payable": false,
      "stateMutability": "nonpayable",
      "type": "function"
    },
    {
      "constant": true,
      "inputs": [
        {
          "internalType": "string",
          "name": "id",
          "type": "string"
        }
      ],
      "name": "getProduct",
      "outputs": [
        {
          "internalType": "string",
          "name": "",
          "type": "string"
        },
        {
          "internalType": "string",
          "name": "",
          "type": "string"
        },
        {
          "internalType": "uint256",
          "name": "",
          "type": "uint256"
        },
        {
          "internalType": "uint256",
          "name": "",
          "type": "uint256"
        }
      ],
      "payable": false,
      "stateMutability": "view",
      "type": "function"
    }
  ],
  "bytecode": "0x608060405234801561001057600080fd5b50610df1806100206000396000f3fe608060405234801561001057600080fd5b506004361061004c5760003560e01c806301cecd1414610051578063426ed70e146101cb57806368111cce146102c65780637acc0b2014610474575b600080fd5b6101b56004803603608081101561006757600080fd5b810190808035906020019064010000000081111561008457600080fd5b82018360208201111561009657600080fd5b803590602001918460018302840111640100000000831117156100b857600080fd5b91908080601f016020809104026020016040519081016040528093929190818152602001838380828437600081840152601f19601f8201169050808301925050505050505091929192908035906020019064010000000081111561011b57600080fd5b82018360208201111561012d57600080fd5b8035906020019184600183028401116401000000008311171561014f57600080fd5b91908080601f016020809104026020016040519081016040528093929190818152602001838380828437600081840152601f19601f8201169050808301925050505050505091929192908035906020019092919080359060200190929190505050610595565b6040518082815260200191505060405180910390f35b610284600480360360208110156101e157600080fd5b81019080803590602001906401000000008111156101fe57600080fd5b82018360208201111561021057600080fd5b8035906020019184600183028401116401000000008311171561023257600080fd5b91908080601f016020809104026020016040519081016040528093929190818152602001838380828437600081840152601f19601f8201169050808301925050505050505091929192905050506107db565b604051808273ffffffffffffffffffffffffffffffffffffffff1673ffffffffffffffffffffffffffffffffffffffff16815260200191505060405180910390f35b61037f600480360360208110156102dc57600080fd5b81019080803590602001906401000000008111156102f957600080fd5b82018360208201111561030b57600080fd5b8035906020019184600183028401116401000000008311171561032d57600080fd5b91908080601f016020809104026020016040519081016040528093929190818152602001838380828437600081840152601f19601f820116905080830192505050505050509192919290505050610824565b604051808060200180602001858152602001848152602001838103835287818151815260200191508051906020019080838360005b838110156103cf5780820151818401526020810190506103b4565b50505050905090810190601f1680156103fc5780820380516001836020036101000a031916815260200191505b50838103825286818151815260200191508051906020019080838360005b8381101561043557808201518184015260208101905061041a565b50505050905090810190601f1680156104625780820380516001836020036101000a031916815260200191505b50965050505050505060405180910390f35b6104a06004803603602081101561048a57600080fd5b8101908080359060200190929190505050610b23565b604051808060200180602001858152602001848152602001838103835287818151815260200191508051906020019080838360005b838110156104f05780820151818401526020810190506104d5565b50505050905090810190601f16801561051d5780820380516001836020036101000a031916815260200191505b50838103825286818151815260200191508051906020019080838360005b8381101561055657808201518184015260208101905061053b565b50505050905090810190601f1680156105835780820380516001836020036101000a031916815260200191505b50965050505050505060405180910390f35b60008060016000604051806080016040528089815260200188815260200186815260200187815250908060018154018082558091505090600182039060005260206000209060040201600090919290919091506000820151816000019080519060200190610604929190610c90565b506020820151816001019080519060200190610621929190610c90565b50604082015181600201556060820151816003015550500390506000818154811061064857fe5b90600052602060002090600402016001876040518082805190602001908083835b6020831061068c5780518252602082019150602081019050602083039250610669565b6001836020036101000a0380198251168184511680821785525050505050509050019150509081526020016040518091039020600082018160000190805460018160011615610100020316600290046106e6929190610d10565b506001820181600101908054600181600116156101000203166002900461070e929190610d10565b506002820154816002015560038201548160030155905050336002876040518082805190602001908083835b6020831061075d578051825260208201915060208101905060208303925061073a565b6001836020036101000a038019825116818451168082178552505050505050905001915050908152602001604051809103902060006101000a81548173ffffffffffffffffffffffffffffffffffffffff021916908373ffffffffffffffffffffffffffffffffffffffff1602179055506001915050949350505050565b6002818051602081018201805184825260208301602085012081835280955050505050506000915054906101000a900473ffffffffffffffffffffffffffffffffffffffff1681565b6060806000806001856040518082805190602001908083835b60208310610860578051825260208201915060208101905060208303925061083d565b6001836020036101000a03801982511681845116808217855250505050505090500191505090815260200160405180910390206000016001866040518082805190602001908083835b602083106108cc57805182526020820191506020810190506020830392506108a9565b6001836020036101000a03801982511681845116808217855250505050505090500191505090815260200160405180910390206001016001876040518082805190602001908083835b602083106109385780518252602082019150602081019050602083039250610915565b6001836020036101000a0380198251168184511680821785525050505050509050019150509081526020016040518091039020600201546001886040518082805190602001908083835b602083106109a55780518252602082019150602081019050602083039250610982565b6001836020036101000a038019825116818451168082178552505050505050905001915050908152602001604051809103902060030154838054600181600116156101000203166002900480601f016020809104026020016040519081016040528092919081815260200182805460018160011615610100020316600290048015610a715780601f10610a4657610100808354040283529160200191610a71565b820191906000526020600020905b815481529060010190602001808311610a5457829003601f168201915b50505050509350828054600181600116156101000203166002900480601f016020809104026020016040519081016040528092919081815260200182805460018160011615610100020316600290048015610b0d5780601f10610ae257610100808354040283529160200191610b0d565b820191906000526020600020905b815481529060010190602001808311610af057829003601f168201915b5050505050925093509350935093509193509193565b60008181548110610b3057fe5b9060005260206000209060040201600091509050806000018054600181600116156101000203166002900480601f016020809104026020016040519081016040528092919081815260200182805460018160011615610100020316600290048015610bdc5780601f10610bb157610100808354040283529160200191610bdc565b820191906000526020600020905b815481529060010190602001808311610bbf57829003601f168201915b505050505090806001018054600181600116156101000203166002900480601f016020809104026020016040519081016040528092919081815260200182805460018160011615610100020316600290048015610c7a5780601f10610c4f57610100808354040283529160200191610c7a565b820191906000526020600020905b815481529060010190602001808311610c5d57829003601f168201915b5050505050908060020154908060030154905084565b828054600181600116156101000203166002900490600052602060002090601f016020900481019282601f10610cd157805160ff1916838001178555610cff565b82800160010185558215610cff579182015b82811115610cfe578251825591602001919060010190610ce3565b5b509050610d0c9190610d97565b5090565b828054600181600116156101000203166002900490600052602060002090601f016020900481019282601f10610d495780548555610d86565b82800160010185558215610d8657600052602060002091601f016020900482015b82811115610d85578254825591600101919060010190610d6a565b5b509050610d939190610d97565b5090565b610db991905b80821115610db5576000816000905550600101610d9d565b5090565b9056fea265627a7a72315820c16863192b527e9af0b23927822245d176e82120e7c9400faf1cedc781e9fcac64736f6c63430005100032",
  "source": "pragma solidity >=0.5.0 <0.6.0;\r\n\r\ncontract ProductRepo {\r\n    struct Product {\r\n        string id;\r\n        string name;\r\n        uint VAT;  // 24% e 24\r\n        uint priceWithVAT; // all prices are * 100, no decimals\r\n    }\r\n\r\n    Product[] public products;\r\n\r\n    mapping (string => Product) idToProduct;\r\n    mapping (string => address) public productToOwner;\r\n\r\n\r\n    function addProduct(string memory id, string memory name, uint totalPrice, uint VAT) public returns (uint) {\r\n        uint index = products.push(Product(id, name, VAT, totalPrice)) - 1;\r\n        idToProduct[id] = products[index];\r\n        productToOwner[id] = msg.sender;\r\n        return 1;\r\n    }\r\n\r\n    function getProduct(string memory id) public view returns(string memory, string memory, uint, uint) {\r\n       // if (idToProduct[id].isValue) {\r\n            return (idToProduct[id].id, idToProduct[id].name, idToProduct[id].VAT, idToProduct[id].priceWithVAT);\r\n      //  }\r\n    }\r\n}\r\n",
  "sourcePath": "H:\\Faculta\\Licenta\\webshop\\Licenta\\blockchain\\contracts\\ProductRepo.sol",
  "compiler": {
    "name": "solc",
    "version": "0.5.16+commit.9c3226ce.Emscripten.clang"
  },
  "schemaVersion": "3.4.7",
  "updatedAt": "2022-05-06T19:25:38.309Z",
  "devdoc": {
    "methods": {}
  },
  "userdoc": {
    "methods": {}
  }
}